:020000041000EA
:1000000000B5324B212058609868022188439860DF
:10001000D860186158612E4B002199600221596106
:100020000121F02299502B49196001219960352056
:1000300000F044F80222904214D00621196600F024
:1000400034F8196E01211966002018661A6600F04E
:100050002CF8196E196E196E052000F02FF8012189
:100060000842F9D1002199601B49196000215960AB
:100070001A491B48016001219960EB211966A021F2
:10008000196600F012F800219960164914480160C1
:100090000121996001BC002800D000471248134993
:1000A000086003C880F30888084703B5996A0420EC
:1000B0000142FBD001200142F8D103BD02B5186610
:1000C0001866FFF7F2FF186E186E02BD00000240BE
:1000D000000000180000070000035F00212200005C
:1000E000F4000018222000A00001001008ED00E03C
:1000F00000000000000000000000000074B24E7A12
:1001000000200420F7010010C3010010C5010010F9
:10011000C1010010C1010010C1010010C101001097
:10012000C1010010C1010010C1010010C701001081
:10013000C1010010C1010010C9010010CB01001065
:10014000CD010010CD010010CD010010CD01001037
:10015000CD010010CD010010CD010010CD01001027
:10016000CD010010CD010010CD010010CD01001017
:10017000CD010010CD010010CD010010CD01001007
:10018000CD010010CD010010CD010010CD010010F7
:10019000CD010010CD010010CD010010CD010010E7
:1001A000CD010010CD010010CD010010CD010010D7
:1001B000CD010010CD010010CD010010CD010010C7
:1001C00000BE00BE00BE00BE00BE00BE00F04BF888
:1001D000103800BEF2EB88717015011090150110F7
:1001E0003402001090A31AE700202149086006C8D5
:1001F00081F3088810471F48006800282FD10DA4FC
:100200000ECC002902D000F012F8F9E71A491B4A77
:10021000002000E001C19142FCD1194988471949E9
:1002200088471949884700BEFDE701C901C29A42C3
:10023000FBD3704790150110C0000020700500200E
:10024000401A01100000042000000420401A011090
:1002500000100420001004200000000070470B482C
:1002600008F0E0FF0047EFF30580C0B270470000E0
:1002700008ED00E0000000D070050020F4760220B8
:10028000A97600100D030010997700105756000052
:1002900006005250ABB360533013011006005250A9
:1002A000861C030240130110060052505422A29DE6
:1002B0004C13011005005250DE65F468401A01101D
:1002C000F8B5C04610B5064C2378002B07D1054B76
:1002D000002B02D0044800E000BF0123237010BDB2
:1002E0007808002000000000D0D00010044B10B5AA
:1002F000002B03D00349044800E000BF10BDC046F6
:10030000000000007C080020D0D0001010B500F0E4
:1003100001F8FCE710B500F027F802F01BF9C8213E
:100320000420890002F03EFA042005F095FB042128
:10033000042002F045F904F0ADFE04F021FF05F0C1
:100340004DFAFCE70123D02283401206002901D098
:10035000536170479361FCE7D0231B065B68C34081
:10036000012018407047C046F0B5C64600B50AF0F7
:10037000ABF80F2005F0CAFED024802324061B0210
:100380006362082005F0C2FE8023802680275B0080
:100390006362B6010D2005F0B9FEBF006662092058
:1003A00005F0B4FE6762102005F0B0FE80235B020A
:1003B00063621120984605F0A9FE802380259B02E8
:1003C000A362ED03162005F0A1FE00226562012163
:1003D000112005F083FE43460B4963610B486761BA
:1003E000666165610CF03EFD01210A2005F05EFEAC
:1003F00001210B2005F05AFE01210C2005F056FECC
:10040000002080BCB846F0BD001BB70000000440CF
:1004100010B584B06B460F246C44D91D08700123BD
:10042000220003480CF044FE207804B010BDC04602
:100430000000044010B582B06B46DC1D991D0870A9
:100440000123220002480CF033FE207802B010BDD8
:100450000000044010B506F04DFD10BD7047C046C9
:10046000030010B50120002B00D010BD05F026FCC4
:100470000028FAD005F050FBFF2005F049FB05F0FD
:100480004DFB0120F1E7C0460020704770B50D001C
:10049000040011001A1E11D00120002C00D070BDE4
:1004A000280005F0E9FC0028F9D005F035FBFF2015
:1004B00005F02EFB05F032FB0120F0E70420EEE70B
:1004C00070B50D00040011001A1E0AD00120002C86
:1004D00000D070BD280005F03FFD431E9841C0B21A
:1004E000F7E70420F5E7C04670B5140001250028A1
:1004F00008D102290FD007D8002911D005F0A6FB9A
:1005000000252060280070BD04250329FAD10823A6
:1005100000251380F6E780239B0000251380F1E778
:1005200000211620FFF70EFF05F0FAFA431E98414E
:100530000121C5B21620FFF705FFE3E70020704751
:10054000F0B5DE4657464E464546E0B516008A4CA5
:100550000122A544310002A801F014FD874C884F08
:100560001E223B00210002A801F0D6FD638902A8EB
:100570000093A389A58A0193638A9A46E38A9B46DE
:10058000238B9846A38B994601F0F4FD4B4600203F
:10059000182B07D153467B4A2D041D431388013085
:1005A000AB4208D08D239B009D44F0BCBB46B246B5
:1005B000A946A046F0BD434659461B04194353883B
:1005C0008B468B42EED10122310002A801F0DAFC09
:1005D000019B21001A04009B02A81A433B0001F072
:1005E0009BFD694B1B78522B6DD15B46002B00D1D4
:1005F000BEE000239846654B0093B4235B00994608
:10060000A144B4223B002100520002A801F084FD65
:10061000B4223B004946520002A801F07DFD002DA6
:100620001DD0434642461B019B1A1B019C460023DA
:1006300062465900591889B298186218967852780B
:10064000615CF6089208F6025201C90832430A4377
:100650000133009940009BB20A52AB42E8D34346B3
:1006600001339BB298465B45CBD30021002003F0B9
:10067000A5FD01210820FFF765FE00210920FFF7F5
:1006800061FE434943480CF069FC9623009E9B029F
:10069000F5183088000AFFF7BBFE30780236FFF706
:1006A000B7FEB542F5D101210920FFF74BFE02A8A4
:1006B00001F060FD384937480CF050FC3748FFF72F
:1006C000C9FE01206EE70021002003F077FD3049CC
:1006D00030480CF043FC5B46002BE8D000239946E1
:1006E0006933FF339A46294BA2449846B4223B0013
:1006F0002100520002A801F00FFDB4223B00514638
:10070000520002A801F008FDB423B4229B00E118B6
:1007100052003B0002A801F0FFFC8723B422DB005B
:10072000E11852003B0002A801F0F6FC002D18D0A1
:1007300000267200B11889B2631898785B78C008F7
:100740009B085B01C002184384466346605C013627
:10075000C00818434346B6B2985201F0AFFFAE420C
:10076000E7D34B4601339BB299465B45BED39EE728
:10077000064B009379E7C046CCFDFFFF4C0F0020ED
:100780009408002064760220200400204C1E0020E3
:1007900080C3C90100000440C0C62D00DC05000074
:1007A00070B5074D01000122280001F0EBFB431E4C
:1007B00098414400280001F0DDFC200070BDC046D7
:1007C000B8080020F0B54646D6464F46C0B54F4E55
:1007D000040088460100300001F038FD00239946EE
:1007E00000287ED120000CF003FC494B05001027A7
:1007F0009A46484C2100300001F06CFD002870D171
:10080000637A002B6DD02E2BF4D0237A1F42F1D1C6
:100810006B1CE218527A2E2A48D0AA1CA118497AD9
:100820002E2966D0EB1CE118497A2E2966D02A1DA4
:10083000A118497A2E295CD06B1DE118497A2E291E
:100840005CD0AA1DA118497A2E2952D0EB1DE118BF
:10085000497A2E2952D00232A118497A2E2948D03D
:100860000233E118497A2E2948D00232A118497A78
:100870002E293ED00233E118497A2E293ED0023289
:10088000A118497A2E2934D029000D3163185B7ADA
:100890002E2B33D02B000E33E218527A2E2A32D070
:1008A0001D000133E218527A2E2AF9D14B46182B3B
:1008B0001DD86319DA7A0025422A9BD11A7B4D2A6A
:1008C00098D15B7B502B95D14B46414622009B0033
:1008D00058580932514608F061FC01239C46E14416
:1008E00088E74846E0BCBA46B146A846F0BD0025B8
:1008F00080E71D004B46182BF9D8DAE74B46150068
:10090000182BF4D8D5E70D00D0E7C0469C0800208E
:10091000D0D00010E00A00200A00036930B5093287
:10092000002B7CD043691878202805D0052800D1F9
:10093000E0300A0048720A3258781400202804D0A7
:10094000052800D1E030541C10709A782000202A2D
:1009500004D0052A00D1E032601C2270DC7802004D
:10096000202C04D0052C00D1E034421C04701C79EA
:100970001000202C04D0052C00D1E034501C147041
:100980005C790200202C04D0052C00D1E034421CFC
:1009900004709C791000202C04D0052C00D1E03488
:1009A000501C1470DC790200202C04D0052C00D1DE
:1009B000E034421C0470187A1400202806D0052860
:1009C00000D1E0302E2450701470941C5A7A20000C
:1009D000202A04D0052A00D1E032601C22709C7AC3
:1009E0000200202C04D0052C00D1E034421C0470FD
:1009F000D87A08725C7F187F9D7F24020443D87FD9
:100A00002D042C43000620430860587E1C7E000203
:100A100020438880987DDB7D1B020343CB8000232D
:100A2000137030BD002370B50371013B04000D004D
:100A3000C3624B1C09D00A002100012340783031E9
:100A4000FFF724FD00281FD1E562124BE25A124B3A
:100A50009A421BD122006632538811881B040B4333
:100A60000E4A1B021B0A934212D08223E25A0C4BFD
:100A700082349C466088000410430002000A6044EF
:100A8000431E9841C0B270BD0320FCE70220FAE784
:100A90000020F8E72E02000055AA0000464154004D
:100AA000BABEABFFF0B5C646C66A04000D0000B57D
:100AB0008E4235D0070003793037002B0BD101234C
:100AC0002A0039006078FFF7E1FC002826D1E562B2
:100AD00080BCB846F0BD0123320039004078FFF7F2
:100AE000EFFC00281AD1226AA3692071B21A9A4237
:100AF000E5D2E2789046012A01D8E0E7A369F6182A
:100B00003200012339006078FFF7DAFC01235B42F1
:100B10009C46E0444346012BF0D1D0E70120D7E7C3
:100B20000020D5E7F0B54546DE4657464E46002341
:100B3000E0B50C68150083B00360002C00D1C4E060
:100B40002378303B082B00D8B6E0C84B1C68002C3B
:100B500000D11DE123780460002B0FD06078FFF7EF
:100B600093FCC3070AD4002D00D10DE104231E001D
:100B70000640034200D1FFE00A26FDE000230020EA
:100B80002380FFF76DFCC30700D5FFE0002D01D0E7
:100B90004307F1D400212000FFF744FF060001289D
:100BA00000D194E0032800D13AE10025002800D0CC
:100BB000E1E022003B321178537880221B02920040
:100BC0000B43934200D0D6E04623E65A002E00D1D4
:100BD000666D4023A661E25C531EE270012B00D9D2
:100BE000C9E03D23E75CA770002F00D1C3E07B1E66
:100BF0001F4200D0BFE04123E15C230041335B781A
:100C00001B020B43984623811B0700D0B3E043230C
:100C1000E15C230043335B781B020B4300D1236D5F
:100C2000E18F8B46002900D1A5E0724311000192AB
:100C300042468A4612095A449244534500D29AE0E9
:100C400052469B1A99463900180008F045FBB945F1
:100C500000D290E0864B984200D8E3E0854B984262
:100C600000D821E15B46EB1823625346EB18A362E0
:100C7000434602306061E561002B7CD1E36D80006A
:100C800063627D4B9C466044400A864273D30123D5
:100C90005B422361E36081336371203BE35A012BA4
:100CA00000D182E00323754A2370138800260133A4
:100CB0009BB21380E3805FE062783A2A00D044E779
:100CC00002340C60002B00D13FE70B2654E0F923DF
:100CD0005B00E35C0027002B0CD0FB235B00E118DA
:100CE000E25C4B788F781B021A43CB783F041743A2
:100CF0001B061F43624B0025E35C002B0BD0614BAE
:100D0000E2185178E55C090293782943D5781B04F1
:100D100019432D060D4300225B4B9046E35C002BEC
:100D20000CD05A4BE0184278E15C120283781143F0
:100D3000C2781B040B4312061A4390460022544B00
:100D40009146E35C002B0CD0524BE0184278E15CFA
:100D5000120283781143C2781B040B4312061A4314
:100D60009146002F45D1002D4BD14346002B4FD14A
:100D70004B46002B0ED10D26300003B0F0BCBB4615
:100D8000B246A946A046F0BD0026F5E70326F3E7E4
:100D90000C26F1E749462000FFF744FE4D460028A7
:100DA00000D106E70328E7D0E5E72000691CFFF73C
:100DB00079FE002800D075E743466371364BE25A4E
:100DC000364B9A4200D06DE7354B226B9A4200D0E9
:100DD00068E785229200334BA2589A4200D061E71F
:100DE000862387229B009200E358A2582361E26089
:100DF00058E739002000FFF715FE0028B3D13D0069
:100E0000D7E629002000FFF70DFE0028ADD1D0E67F
:100E100041462000FFF706FE45460028A8D1C8E657
:100E20000126A9E75B464146EB18821CE561554463
:100E300062612362A56200299DD0019950008C4611
:100E4000634463620123801840081A4080180A4AEC
:100E500094466044400A864200D28CE70122524206
:100E60002261E260813262711DE7C046980800206D
:100E7000F50F0000F5FF0000FF010000E6760220FC
:100E8000020200000602000012020000160200002A
:100E900022020000260200002E02000055AA0000D7
:100EA00052526141727241615B464246EB18023018
:100EB000E561554460612362A562002A00D15AE7CA
:100EC000019A40009446634463620223BFE7C04630
:100ED000F0B5C646077804000D0000B5022F08D013
:100EE000032F3FD0012F17D00120404280BCB846CD
:100EF000F0BD036A090A9C466144FFF7D3FD002850
:100F0000F2D1FF216D0049000D406419303463783F
:100F100020781B021843E9E7036A4E089C467618BE
:100F2000710A6144FFF7BEFD0028DDD1F305DB0D3A
:100F3000E31830331B7801369846236A710A9C46C1
:100F400020006144FFF7AEFD0028CDD14346F605F1
:100F5000F60DA41930342078000218432F421FD018
:100F60000009C3E7036AC9099C466144FFF79AFD7B
:100F70000028B9D1FE21AD0049000D402B003033CF
:100F8000E318D8789A7864191204000630341043B4
:100F90005B7822781B021043184300010009A5E783
:100FA0000005000DA2E7C046F8B54E46DE4657469E
:100FB00045469B468468C368E0B51B1B06000F00CE
:100FC0009946934200D991464B46002B00D190E0C0
:100FD0002200D305DD0D002B41D13368500A9978EA
:100FE0004C1E0440E4B2002C00D184E070695A69C0
:100FF0000238023A904200D38CE0996A9A788C4683
:1010000050436044002800D184E080468021A04401
:101010008900894500D386E0B26990451AD0350031
:101020004024B17928350C420BD05878290001238F
:10103000FFF746FA002800D0A0E0B379A343B371CC
:1010400033685878424601232900FFF71FFA002829
:1010500000D093E04346B361B368DD05ED0D802316
:101060009B00591B494500D9494602242B00A44640
:101070002933F3180634FB1A9C459B41A446481EAD
:101080002A008445A44128325B426442B2181C42C3
:1010900000D177E03B0013439B0700D072E00023B0
:1010A0008C08A400D558FD500433A342FAD1032381
:1010B0000C009C4323001219C01A3C198B4209D022
:1010C00013782370002805D053786370012801D06D
:1010D0009378A370B3685846CA185B461B68B26021
:1010E0005B1803604B465B1A99467F18002B00D0B3
:1010F0006FE7002011E0002A32D13069012809D9B8
:10110000431C3BD0336870615A690238023A9042FE
:1011100000D272E702230220F371F0BCBB46B24654
:10112000A946A046F8BD4946490A8A4661188A423E
:1011300001D2121B92465246D2B25878390013009F
:101140004246FFF7A3F9002818D1B3795B0604D50E
:101150004246B3699B1A9A4530D853465902B9E7BB
:10116000726A9246002A14D171690129D2D95A694A
:101170009142CFD21800FFF7ABFEBFE70123012059
:10118000F371CAE70023D05CF85401339942FAD1D5
:10119000A0E704235344984608F09EF853465B6842
:1011A000002BB7D0424604E00832C01A1368002B67
:1011B000B0D09842F8D25368C0189FE7310032008F
:1011C00002205B02FB1829312832591A88420BD2BF
:1011D00019001143890707D151595951802104350C
:1011E00089008D42F8D1B8E7515D5955802101350C
:1011F00089008D42F8D1B0E7F8B54746CE4606786B
:1012000004000D00904680B5022E0BD0032E45D071
:101210000227012E1AD0012338002371C0BCB94621
:10122000B046F8BD036A090A9C466144FFF73AFCE0
:10123000071EF0D16B00FF2542466D002B40E318DE
:1012400030331A7092B2120A5A70E4E74B0899468A
:1012500089444B46590A036A9C466144FFF722FCC5
:10126000071ED8D14B46DB05DB0DE31830332E4289
:1012700033D00F2219784D461140424612010A43DD
:101280001A70236A01359C46690A20002671614460
:10129000FFF708FC00283DD00700BCE7036AC90936
:1012A0009C466144FFF7FEFB071EB4D1FE21AD0052
:1012B00049000D402B0041463033E318DA786519B8
:1012C000120912070A4391B2090A30352A7059707F
:1012D000110C120E9970DA709DE742461A704D4655
:1012E000236A01359C46690A200026716144FFF794
:1012F000D9FB0028D0D1ED05ED0D65192B00424634
:101300000F2130331B78120A8B430A401A433035C1
:101310002A7080E74346ED05ED0D1A09D2B2651932
:10132000F5E7C046F8B503790400002B0BD123780C
:10133000032B29D0002200216078FFF7D5F8431E47
:101340009841C0B2F8BD0700C56A303701232A00B2
:1013500039004078FFF7B4F800283AD1226AA3692F
:101360002071AA1A9A42E2D2E678012E01D8DEE76D
:10137000A369ED182A00012339006078013EFFF7C8
:101380009FF8012EF4D1D2E76379012BD2D1250049
:101390008022303500219200280008F079FE0E4BA3
:1013A0000E4A2900E2520E4B0E4A236385239B000E
:1013B000E25022690433E250E2680433E250E36908
:1013C00060785A1CE2620123FFF77AF80023637108
:1013D000B0E70120B6E7C0462E02000055AAFFFF85
:1013E0005252614172724161F0B54E464546DE4649
:1013F0005746E0B58946050083B000291ED1C7686D
:101400004369002F34D10137FF2252009346023A3C
:101410003C00924601349C421FD3012F00D891E03A
:10142000022B1CD902242E78022E00D176E0032E46
:1014300057D0012E20D00124644211E001290ED0A2
:10144000436999420BD2FFF743FD0400012806D9F6
:101450006B69834204D84F46D6E7012CE3D80124B8
:10146000200003B0F0BCBB46B246A946A046F0BD82
:10147000BB42C9D80127C7E763089846A044434642
:10148000590A2B6A28009C466144FFF70BFB002891
:10149000D1D14346DB05DB0DEB1830331B78280038
:1014A000019301239C46E0444346590A2B6A9C461B
:1014B0006144FFF7F7FA0028BDD14146CB05DB0DAB
:1014C000EB1830331B78019A1B02134326423BD0A2
:1014D0001B09002B3BD0012BC1D0A74232D06B6936
:1014E00098E72B6AE1099C4628006144FFF7DAFA85
:1014F0000028A0D15346A2001A40110030316918CB
:10150000CB788878AA18303212781B06000403437F
:1015100013434A78120213431B01D9E72B6A210AAD
:101520009C4628006144FFF7BDFA002800D082E7FE
:101530005B4662001A40AA183032517813780902CB
:101540000B43C6E700248BE71B051B0DC1E76B6946
:10155000A34200D883E721002800134AFFF74CFE7E
:10156000002803D0012800D165E778E74B46002B1F
:101570000DD0012B00D172E76B69994500D36EE75E
:10158000220049462800FFF737FE0028EAD12B69E0
:10159000EC605A1C00D163E70122013B2B616B799F
:1015A00013436B715CE7C046FFFFFF0FF0B5574672
:1015B0004546DE464E46E0B5856807000C0083B020
:1015C000C180012D26D006687369AB4222D9002D57
:1015D00057D0B27812019046914200D291E0FF229A
:1015E000520093469D4215D233789946022B00D182
:1015F00095E0032B5AD0012B14D001200BE0756A23
:10160000002D41D0B27812019046914200D278E08C
:10161000012DE4D1022003B0F0BCBB46B246A9467E
:10162000A046F0BD6B089A46AA445346590A336A4D
:1016300030009C466144FFF735FA0028DDD153465F
:10164000DB05DB0DF31830331B78300001930123E9
:101650009C46E2445346590A336A9C466144FFF76C
:1016600021FA0028C9D15146CB05DB0DF6183036DA
:101670003378019A1B0213434A462A4263D01D095C
:1016800032E03278032ABAD00023FB603389A342C8
:10169000C0D9726A2309944663443B610F210C4010
:1016A00030366401341900207C61B4E7336AE909FB
:1016B0009C4630006144FFF7F5F900289DD1FE22D9
:1016C000AB00520013401A003032B218D57891782E
:1016D000F31830331B782D0609040D431D4353784E
:1016E0001B021D432D012D09012D93D93E687369FD
:1016F000AB4200D88EE74246A41AA4B2444500D3B8
:1017000070E7FD60023B023D9D421FD2B3785D430E
:10171000B36A9C46654423095D193D61BEE7336A9F
:10172000290A9C4630006144FFF7BCF9002800D02C
:1017300063E75B466D001D40761930367378357867
:101740001B021D43D0E71B051D0DCDE70025E2E779
:10175000F8B557464546DE464E46E0B50B780500DF
:101760008A462F2B53D05C2B51D000245346AC60BB
:101770001B781F2B54D95646AB6932782F2A01D0DB
:101780005C2A01D10136F8E720221A705A709A704B
:10179000DA701A715A719A71DA711A725A729A72EF
:1017A0003278202A19D900218C4608318846022136
:1017B0008A4603218B46711E894661469C462B0052
:1017C00000244546012798460B002F2A55D05C2A55
:1017D00053D02E2A2AD09D4206D80620F0BCBB4604
:1017E000B246A946A046F8BD51B2002905DA5946CD
:1017F0000C43B449803A8A5CE4B22221B24803E047
:1018000041780130002923D08A42F9D1E5E701234C
:101810009C460024E2445346AC601B781F2BAAD898
:1018200000212800FFF7C2FE6C61D7E7082DD4D154
:1018300008230B25A400E4B24A460137D25D202AD2
:10184000C3D842466346A846F619150004221DE097
:1018500011004139192906D851460C43E4B26146BA
:10186000CA540133E8E7110061391929F7D8012179
:10187000203A0C43E4B2D2B2F1E742461900A8463E
:1018800063461500F6190029A7D000221978E5292A
:1018900001D1E03919704146082900D105E1032141
:1018A0002140012901D10F310A430C210C40042CA5
:1018B00001D104390A4300212800DA72FFF776FECD
:1018C000002800D0F7E02C682F69B0463E002700C2
:1018D0000823FC6A9A46B4420ED0302291463B79E6
:1018E000B944002B31D10123320049467878FEF704
:1018F000CDFD002859D1FE626A691478002C5FD0B2
:1019000050465346D17A08400B4261D0EC880134EE
:10191000A4B2002C54D02E69002E51D00F232340A6
:1019200099460F23234242D02F684B465A013B0071
:10193000EC803033FC6A9B186B61B442DCD03022FF
:1019400091463B79B944002BCDD001232200494672
:101950007878FEF7B5FD002827D13A6ABB6938715F
:10196000A21A9A42BFD2FA789346012ABBD9310013
:101970002A004E465D468946934600E0BB69E4185E
:101980002200012331007878013DFEF799FD012DF9
:10199000F4D14B46B1461E00494601233200787807
:1019A0005D46FEF773FD0028A5D0012016E7E96823
:1019B00001362F682E61002954D13B89A342B4D847
:1019C000AB69DB7A04205B0700D507E7052005E754
:1019D000AB691F78A74299D157785C78A74295D117
:1019E0009F789478A74291D1D778DC78A7428DD19F
:1019F00017791C79A74289D157795C79A74285D19B
:101A000097799C79A74200D080E7D779DC79A74203
:101A100000D07BE7177A1C7AA74200D076E7577A86
:101A20005C7AA74200D071E7977A9C7AA74200D0EF
:101A30006CE7DC7A4646640700D5CFE6C906C5D513
:101A4000D17E907E0902014328680078032801D0E6
:101A5000A96092E6147D527D1202224312041143C2
:101A6000A9608AE6BB782209013B1A4200D05CE7F4
:101A7000012918D07B69994215D23800FFF728FA5E
:101A8000012810D9431C90D02F687B69984297D2C7
:101A9000E860023B023898420AD2BB785843BB6ADE
:101AA000C6182E6141E7022098E6A400E4B2FCE6E5
:101AB00000262E6139E7AB69DB7A042800D08DE679
:101AC00080E7C046ECD00010DCD00010F8B54546E9
:101AD000DE4657464E464369E0B504000D00994284
:101AE00000D398E0012914D9FF2326785B0099469A
:101AF000023B98460127022E00D175E0032E38D014
:101B0000012E08D00120F0BCBB46B246A946A04633
:101B1000F8BD0220F7E76B089A46AA445346590AD3
:101B2000236A20009C466144FEF7BCFF0028E9D1EF
:101B30005346DB05DB0DE31830331B7820009B4652
:101B400001239C46E2445346590A236A9C46614459
:101B5000FEF7A8FF0028D5D153465A46DB05DB0D1A
:101B6000E31830331B781B0213432E4255D01E0955
:101B70001CE0236AE9099C4620006144FEF792FFBD
:101B80000028BFD14246AB0013401A003032A218E1
:101B9000D6789178E31830331B78360609040E4363
:101BA0001E4353781B021E4336013609002E32D0E5
:101BB000012EAED06369AB42ABD9002229002000D0
:101BC000FFF71AFB00289ED123695A1C20D001334D
:101BD000236163793B43637163699E421BD2350085
:101BE0002678022E00D089E7236A290A9C46200025
:101BF0006144FEF757FF002800D083E74A466B0098
:101C00001340E31830335A781E7812021643CDE79A
:101C10006369B342E3D8002075E71E05360DC5E7BA
:101C2000F0B5DE464E4657464546E0B5002185B044
:101C30000600FFF7BBFC041E0AD0042800D10724CD
:101C4000200005B0F0BCBB46B246A946A046F0BD98
:101C50003369356898460F239A46EC6A44450ED09E
:101C60002F002B793037002B59D101234246390000
:101C70006878FEF70BFC002842D14346EB6273699B
:101C80001B78E52B01D0002B24D131693068FEF799
:101C900009FF041ED4D120220021706908F0F8F950
:101CA0007369B26919001143890700D0F1E0511C32
:101CB000591A022900D8ECE011681960516859607E
:101CC000117A1972517A5972927A9A720122336892
:101CD0001A71B5E7F4880134A4B2002CAFD033698F
:101CE0009846002BABD0574653462740234209D095
:101CF00035687B012F003037FF18F4807761ACE73F
:101D000001249DE701239C46E0444346F168356881
:101D10003361002928D12B89A342EAD88FE7012318
:101D2000220039006878FEF7CBFB0028E8D12A6A48
:101D3000AB692871A21A9A4297D2EA789146012A91
:101D400093D932002E004D46914600E0B369E41865
:101D50002200012339007078013DFEF7B1FB012D0F
:101D6000F4D135004E4680E7AB782209013B1A4298
:101D7000BFD1012921D06B6999421ED22800FFF7FB
:101D8000A7F802000190012817D9431CB8D0356884
:101D90006B69984213D2023A0292023B019AF260B6
:101DA000029A934200D885E0AB785A431300AA6A9E
:101DB00090469844434633619BE7022440E728005D
:101DC000F168FFF711FB031E019000D137E70128EE
:101DD000F3D0013394D035682B79002B6DD12800D6
:101DE000802200219200303008F052F9019B3568C2
:101DF0009A1E6B690292023B9A4200D390E0110056
:101E0000A86AAA788046514388444146E962002A7C
:101E10003CD000230394BB464446B14698462F006D
:101E2000012330372200390068782B71FEF748FB18
:101E3000002800D064E72A6AAB692871A21A9A4286
:101E40000ED2EE78012E01D80AE0AB69E418220028
:101E5000012339006878013EFEF732FB012EF4D1F0
:101E60004B4647461D680137EB6A5C1CFBB298463F
:101E7000AB78EC624345D2D84346A04642465F4623
:101E80004E46D31A98466B69039C023B4246EA626F
:101E900084E7117819705178597091789970D178D8
:101EA000D970117919715179597191799971D179E3
:101EB000D97105E7002398467CE7EB6A6878984675
:101EC00030239B46AB44424659462F3BFEF7F8FA77
:101ED000002800D014E74246296AAB692871521ADB
:101EE0009A421BD2EA789146012A17D9424631001C
:101EF000A0462E0014004D46B9465F468B4600E0D2
:101F0000B369E4182200012339007078013DFEF71F
:101F1000D7FA012DF4D144464F465E4635685EE758
:101F20000021AA78884670E700B583B00B1E0190A7
:101F300000911AD00978303908290FD910490B6857
:101F4000002B01D000201870019B002B15D0002021
:101F50000B601870012A0AD003B000BD58783A28E7
:101F6000ECD1023300930029E8D00B20F4E70022E3
:101F7000694601A8FEF7D6FDEEE700200B60EBE70F
:101F800098080020F0B54746CE4680B58DB00400D5
:101F900017000191002868D000231E2203603A40F8
:101FA00001A905A8FEF7BEFD051E05D028000DB04D
:101FB000C0BCB946B046F0BD1F233B4098460199CE
:101FC00002AB05A80B93FFF7C3FB00280FD10A9EB5
:101FD000002E00D19BE01C233B420FD01122F37A4C
:101FE0001A4246D17B0700D48DE00825DEE71C238A
:101FF0003B4201D004283ED00500D7E7F37ADA0649
:1020000035D4BA0701D5DB0733D4082205983A4006
:1020100003D0424620231A439046C36A2662E361F6
:102020004346A3710023E371F37EB27E1B02134388
:102030000278032A05D1727D377D12023A431204D9
:1020400013432361717F337FB27F09021943F37F0A
:10205000120411431B060B43E36000232060A360BE
:10206000A3616362C388A380A0E709259EE70425D6
:102070009CE707259AE705A8FFF7D2FD424608230B
:102080001A4390460A9E0028B6D1FEF757FA83B24B
:102090001B0AF373030C33740023B073000E7074C7
:1020A0000598F77EF37233777377B377F377B27E61
:1020B00003783F021743032B05D1737D317D1B024B
:1020C0000B431B041F430023B376F37633757375FC
:1020D00001330371002F9CD0012F1AD043699F4216
:1020E00017D2C36A39009946FFF7F0FC002883D164
:1020F0000598013F4946C760FEF7D4FC002800D090
:102100007AE7059885E73B07BFD4059885E706255C
:102110004CE702254AE7C046F8B51D00002304003D
:102120000E0017002B6000281ED00368002B1BD068
:102130001A78002A18D08288D9880920914200D0C4
:10214000F8BD5878FEF7A0F90123034210D1E079D9
:102150000028F5D1A279134208D02B003A003100B3
:102160002000FEF721FFEBE70920E9E70720E7E77A
:102170000320E5E7F8B5041E60D00368002B5DD0AE
:102180001A78002A5AD0D98882880925914201D02C
:102190002800F8BD5878FEF777F901231D000540A7
:1021A00003424DD1A3799A0645D540261E420CD054
:1021B00021002368A269587828310123FEF780F9AD
:1021C00000283FD1A379B343A371E1692068FEF7EA
:1021D00069FC071E01D00500DAE72022266AF37A9F
:1021E0001343F372E3683377A3891B0A7377E38998
:1021F000B377E37BF3772369B3769AB21B0C120AA9
:1022000033751B0AF2767375FEF798F9202283B2B4
:102210001B0AB075F375030C000E33767076B77435
:10222000F774A37920689343A37101230371FFF727
:1022300079F8002808D100232360A9E70925A7E73A
:102240000325A5E70125A3E70500A1E730B587B081
:10225000041E019132D0002201A902A8FEF762FCFF
:10226000002803D00023236007B030BD029B20006C
:10227000236003AB0199A361FFF76AFA002819D123
:102280006369002B23D0DA7AD20615D5DA7E987EE0
:102290000299120202430878032811D0A260CB8869
:1022A00020000021A380FFF781F9042804D0002832
:1022B000DAD0D7E70428D5D10520D3E70920D3E722
:1022C0001D7D5B7D1B022B431B041A43E6E702992D
:1022D000E5E7C046F0B54546DE4657464E46E0B512
:1022E00087B004000D000191002800D1DEE00368F2
:1022F000002B00D1DAE01A78002A00D1D6E08288DB
:102300000920D9888346914207D0584607B0F0BCCF
:10231000BB46B246A946A046F0BD5878FEF7B4F8D1
:1023200001231A0002409346034200D0F3E0002D3F
:1023300000D1C1E0266903ABA361002E00D18AE081
:102340000F239A462568EF6AB7420ED03022904696
:102350002B79A844002B34D1012332004146687800
:10236000FEF794F800285CD1EE6262691378002BC6
:1023700071D0E52B08D02E2B06D0D37A3F22134004
:102380000F2B01D0082B68D1E7880137BFB2002F8F
:1023900061D02669002E5ED0534652463B403A42F9
:1023A00073D02568E7802A005B013032EF6AD318CA
:1023B0006361B742D9D0302290462B79A844002BD4
:1023C000CAD001233A0041466878FEF779F8002820
:1023D00027D12A6AAB692871BA1A9A42BCD2EA7824
:1023E0009146012AB8D942462100B0464C46160013
:1023F000894600E0AB69FF183A0001233100687894
:10240000013CFEF75DF8012CF4D1330046469846B6
:1024100032000123414668784C46FEF737F8002821
:10242000A2D001239B46002323616EE7AB783A09D3
:10243000013B1A4232D101293BD06B69994238D213
:102440002800FEF745FD012833D9431CE9D0256853
:102450006B69984262D30023236120000199FEF743
:102460005BFAE5880135ADB2002DDCD02369002B85
:10247000D9D00F2216002E402A4223D020683030B7
:1024800076018019E58060613FE7E16801362568E3
:1024900026610029CAD12B89BB42DCD92B003033FD
:1024A000E7806361002E00D04DE7D6E709239B4605
:1024B0002BE702239B46B6E700212000FFF776F8C2
:1024C000834622E7E168013320682361002931D087
:1024D0002A0917008378013B1F401A42CFD10129F6
:1024E00032D0436999422FD2FEF7F2FC0300012853
:1024F0002AD9421C2BD020684269934293D2E360D0
:10250000023A023B934204D287785F43836A9C4637
:1025100067442761B3E703239B46F6E6E060023B8E
:10252000023898420AD2AB6AAE789C46464366446B
:102530002661B3E70389AB42A1D874E700233035A5
:102540002361E780656188E702239B46DDE601237E
:102550009B46DAE610B501211620FDF7F3FE0121B6
:102560000920FDF7EFFE01211020FDF7EBFE0D49DC
:1025700001220D48FFF7D8FC0C4B011E187003D048
:102580000B4807F095FF10BD0A4807F0EFFE0A4B15
:102590000A4A19001431FF3108C20B338B42FBD1B8
:1025A000F1E7C046480E0110B41B0020EF76022070
:1025B0004C0E0110840E011094160020E81D00201E
:1025C000F0B5DE46454657464E460023E0B58DB091
:1025D000039000200493884601F068FF2F4D05A862
:1025E0002900FFF733FE2E4C28002100FEF7EAF801
:1025F000071E34D02B4B012599462B4B2B4E9A4668
:102600002B4B9B4615E001283AD0404600F078F865
:102610001F230193274B5A46009350215346002015
:1026200002F0F6F96B1C9F4219D30434AF4216D066
:102630001D0049463000226806F0B0FD300004A9B4
:10264000FEF7AEF80028DED1039800F059F832000A
:1026500000210020FDF774FF6B1C9F42E5D2002093
:1026600001F024FF404600F04BF801211620FDF751
:1026700069FE0DB0F0BCBB46B246A946A046F0BD0F
:10268000404600F03DF81F2301930A4B4021009380
:1026900000205346084A02F0BBF9C3E7480E011078
:1026A000E81D0020D0D0001018040020AC760220D5
:1026B000C00E0110FFFF0000AC0E011010B50F4B53
:1026C00004001B7801210820522B10D0FDF73AFEA0
:1026D00009200021FDF736FE200AFDF799FEE0B241
:1026E000FDF796FE01210920FDF72CFE10BDFDF738
:1026F00029FE00210920FDF725FEF0E72004002037
:1027000070B5254C2378522B00D070BD431EDBB230
:102710000025062B31D9214B1871032829D9A02275
:10272000F02152005980082000211A80FDF70AFE8E
:1027300000210920FDF706FE3620FDF769FE012184
:102740000920FDF7FFFD237801210820522B1CD022
:10275000FDF7F8FD09200021FDF7F4FD0020FDF74D
:1027600057FE2800FDF754FE01210920FDF7EAFD80
:10277000CBE7A021F0224900D4E7094A5B00D55CF1
:10278000064B18710328F4D9C9E7FDF7DBFD0021DA
:102790000920FDF7D7FDE4E720040020647602203D
:1027A000DC0E011070B5012182B005000F20FDF78D
:1027B000C9FDFA204000FDF74DFE00210F20FDF776
:1027C000C1FDFA204000FDF745FE01210F20FDF775
:1027D000B9FDFA204000FDF73DFE6B469E1D00232B
:1027E000002109203370FDF7ADFD00210820FDF721
:1027F000A9FDDC20FDF70CFE6B46DC1D2200012349
:102800003100F4480AF054FC01210920FDF79AFD3B
:102810002378F14C002108202370522B01D100F0C5
:1028200000FCFDF78FFD00210920FDF78BFD212025
:10283000FDF7EEFD01210920FDF784FD00210820B0
:10284000FDF780FD00210920FDF77CFDC220FDF78A
:10285000DFFD01210920FDF775FD23780121082006
:10286000522B00D1D6E3FDF76DFD09200021FDF7C5
:1028700069FD0020FDF7CCFD3320FDF7C9FD0121E6
:102880000920FDF75FFD00210820FDF75BFD002119
:102890000920FDF757FDC520FDF7BAFD01210920EC
:1028A000FDF750FD237801210820522B01D101F0C2
:1028B000E1F9FDF747FD09200021FDF743FD002068
:1028C000FDF7A6FD0020FDF7A3FD01210920FDF77E
:1028D00039FD237801210820522B01D101F0C2F9E2
:1028E000FDF730FD09200021FDF72CFD0020FDF74C
:1028F0008FFD1E20FDF78CFD01210920FDF722FD33
:10290000237801210820522B01D101F0A3F9FDF712
:1029100019FD09200021FDF715FD0020FDF778FDC8
:102920008020FDF775FD01210920FDF70BFD002139
:102930000820FDF707FD00210920FDF703FDB12068
:10294000FDF766FD01210920FDF7FCFC237801213C
:102950000820522B01D101F075F9FDF7F3FC092095
:102960000021FDF7EFFC0020FDF752FDB020FDF740
:102970004FFD01210920FDF7E5FC00210820FDF7AE
:10298000E1FC00210920FDF7DDFC3620FDF740FDCC
:1029900001210920FDF7D6FC237801210820522BC4
:1029A00001D101F047F9FDF7CDFC09200021FDF729
:1029B000C9FC0020FDF72CFD2820FDF729FD012191
:1029C0000920FDF7BFFC00210820FDF7BBFC00211A
:1029D0000920FDF7B7FCE020FDF71AFD01210920D1
:1029E000FDF7B0FC237801210820522B01D101F022
:1029F00019F9FDF7A7FC09200021FDF7A3FC002031
:102A0000FDF706FD0020FDF703FD01210920FDF77C
:102A100099FC237801210820522B01D101F0FAF80A
:102A2000FDF790FC09200021FDF78CFC0020FDF74C
:102A3000EFFC1320FDF7ECFC01210920FDF782FCDF
:102A4000237801210820522B01D101F0DBF8FDF79A
:102A500079FC09200021FDF775FC0020FDF7D8FC6A
:102A60001820FDF7D5FC01210920FDF76BFC237828
:102A700001210820522B01D101F0BCF8FDF762FCC6
:102A800009200021FDF75EFC0020FDF7C1FC0420B9
:102A9000FDF7BEFC01210920FDF754FC237801213C
:102AA0000820522B01D101F09DF8FDF74BFC0920C5
:102AB0000021FDF747FC0020FDF7AAFC0F20FDF7E1
:102AC000A7FC01210920FDF73DFC23780121082006
:102AD000522B01D101F07EF8FDF734FC09200021D2
:102AE000FDF730FC0020FDF793FC0620FDF790FC7D
:102AF00001210920FDF726FC237801210820522B13
:102B000001D101F05FF8FDF71DFC09200021FDF760
:102B100019FC0020FDF77CFC3A20FDF779FC01212F
:102B20000920FDF70FFC237801210820522B01D149
:102B300001F040F8FDF706FC09200021FDF702FC3A
:102B40000020FDF765FC5620FDF762FC01210920FD
:102B5000FDF7F8FB237801210820522B01D101F069
:102B600021F8FDF7EFFB09200021FDF7EBFB00202A
:102B7000FDF74EFC4D20FDF74BFC01210920FDF730
:102B8000E1FB237801210820522B01D101F002F84A
:102B9000FDF7D8FB09200021FDF7D4FB0020FDF74D
:102BA00037FC0320FDF734FC01210920FDF7CAFBA7
:102BB000237801210820522B01D100F0E3FFFDF71B
:102BC000C1FB09200021FDF7BDFB0020FDF720FC23
:102BD00004E0C04600000440200400200A20FDF765
:102BE00017FC01210920FDF7ADFB23780121082006
:102BF000522B01D100F0BEFFFDF7A4FB09200021FC
:102C0000FDF7A0FB0020FDF703FC0620FDF700FC0C
:102C100001210920FDF796FB237801210820522B82
:102C200001D100F09FFFFDF78DFB09200021FDF78A
:102C300089FB0020FDF7ECFB3020FDF7E9FB0121CB
:102C40000920FDF77FFB237801210820522B01D1B9
:102C500000F080FFFDF776FB09200021FDF772FBF5
:102C60000020FDF7D5FB3E20FDF7D2FB0121092016
:102C7000FDF768FB237801210820522B01D100F0D9
:102C800061FFFDF75FFB09200021FDF75BFB0020E2
:102C9000FDF7BEFB0F20FDF7BBFB01210920FDF76F
:102CA00051FB00210820FDF74DFB00210920FDF715
:102CB00049FBE120FDF7ACFB01210920FDF742FBB8
:102CC000237801210820522B01D100F033FFFDF7BA
:102CD00039FB09200021FDF735FB0020FDF798FBAB
:102CE0000020FDF795FB01210920FDF72BFB237840
:102CF00001210820522B01D100F014FFFDF722FB27
:102D000009200021FDF71EFB0020FDF781FB1320A9
:102D1000FDF77EFB01210920FDF714FB237801213B
:102D20000820522B01D100F0F5FEFDF70BFB092026
:102D30000021FDF707FB0020FDF76AFB1820FDF7D7
:102D400067FB01210920FDF7FDFA23780121082006
:102D5000522B01D100F0D6FEFDF7F4FA0920002134
:102D6000FDF7F0FA0020FDF753FB0120FDF750FBC3
:102D700001210920FDF7E6FA237801210820522BD2
:102D800001D100F0B7FEFDF7DDFA09200021FDF7C3
:102D9000D9FA0020FDF73CFB1120FDF739FB01219A
:102DA0000920FDF7CFFA237801210820522B01D109
:102DB00000F098FEFDF7C6FA09200021FDF7C2FADF
:102DC0000020FDF725FB0620FDF722FB012109204D
:102DD000FDF7B8FA237801210820522B01D100F029
:102DE00079FEFDF7AFFA09200021FDF7ABFA0020CC
:102DF000FDF70EFB3820FDF70BFB01210920FDF745
:102E0000A1FA237801210820522B01D100F05AFEAB
:102E1000FDF798FA09200021FDF794FA0020FDF74C
:102E2000F7FA3420FDF7F4FA01210920FDF78AFAB8
:102E3000237801210820522B01D100F03BFEFDF741
:102E400081FA09200021FDF77DFA0020FDF7E0FA64
:102E50004D20FDF7DDFA01210920FDF773FA2378F3
:102E600001210820522B01D100F01CFEFDF76AFA67
:102E700009200021FDF766FA0020FDF7C9FA0620B7
:102E8000FDF7C6FA01210920FDF75CFA237801213C
:102E90000820522B01D100F0FDFDFDF753FA092067
:102EA0000021FDF74FFA0020FDF7B2FA0D20FDF7E3
:102EB000AFFA01210920FDF745FA23780121082006
:102EC000522B01D100F0DEFDFDF73CFA0920002174
:102ED000FDF738FA0020FDF79BFA0B20FDF798FA72
:102EE00001210920FDF72EFA237801210820522B19
:102EF00001D100F0BFFDFDF725FA09200021FDF703
:102F000021FA0020FDF784FA3120FDF781FA012132
:102F10000920FDF717FA237801210820522B01D14F
:102F200000F0A0FDFDF70EFA09200021FDF70AFAD6
:102F30000020FDF76DFA3720FDF76AFA012109201C
:102F4000FDF700FA237801210820522B01D100F06F
:102F500081FDFDF7F7F909200021FDF7F3F90020C5
:102F6000FDF756FA0F20FDF753FA01210920FDF76E
:102F7000E9F900210820FDF7E5F900210920FDF716
:102F8000E1F93A20FDF744FA01210920FDF7DAF9C9
:102F9000237801210820522B01D100F053FDFDF7C9
:102FA000D1F909200021FDF7CDF90020FDF730FA15
:102FB0005520FDF72DFA01210920FDF7C3F9002165
:102FC0000820FDF7BFF900210920FDF7BBF911200A
:102FD000FDF71EFA09200121FDF7B4F97820FDF76D
:102FE00039FA00210820FDF7ADF900210920FDF78D
:102FF000A9F92920FDF70CFA01210920FDF7A2F912
:103000002378522B01D100F0E6FCC820FDF722FA0C
:1030100002B070BDFDF796F900210920FDF792F985
:103020002AE4FDF78FF900210920FDF78BF9112023
:10303000FDF7EEF901210920FDF784F96420FDF781
:1030400009FA00210820FDF77DF900210920FDF78C
:1030500079F93620FDF7DCF901210920FDF772F935
:10306000237801210820522B01D100F06EFFFDF7DB
:1030700069F909200021FDF765F90020FDF7C8F97D
:103080000020FDF7C5F901210920FDF75BF90021BA
:103090000820FDF757F900210920FDF753F93A20E0
:1030A000FDF7B6F901210920FDF74CF9237801213C
:1030B0000820522B01D100F040FFFDF743F9092011
:1030C0000021FDF73FF90020FDF7A2F95520FDF79B
:1030D0009FF901210920FDF735F900210820FDF7AE
:1030E00031F900210920FDF72DF9B220FDF790F903
:1030F00001210920FDF726F9237801210820522B10
:1031000001D100F012FFFDF71DF909200021FDF7A4
:1031100019F90020FDF77CF90C20FDF779F9012160
:103120000920FDF70FF9237801210820522B01D146
:1031300000F0F3FEFDF706F909200021FDF702F982
:103140000020FDF765F90C20FDF762F90121092047
:10315000FDF7F8F8237801210820522B01D100F067
:10316000D4FEFDF7EFF809200021FDF7EBF8002071
:10317000FDF74EF90020FDF74BF901210920FDF77D
:10318000E1F8237801210820522B01D100F0B5FE8F
:10319000FDF7D8F809200021FDF7D4F80020FDF74D
:1031A00037F93320FDF734F901210920FDF7CAF87A
:1031B000237801210820522B01D100F096FEFDF763
:1031C000C1F809200021FDF7BDF80020FDF720F926
:1031D0003320FDF71DF901210920FDF7B3F8002187
:1031E0000820FDF7AFF800210920FDF7ABF8B72064
:1031F000FDF70EF901210920FDF7A4F8237801213C
:103200000820522B01D100F068FEFDF79BF8092041
:103210000021FDF797F80020FDF7FAF83520FDF7BB
:10322000F7F801210920FDF78DF800210820FDF7AE
:1032300089F800210920FDF785F8BB20FDF7E8F8A3
:1032400001210920FDF77EF8237801210820522B67
:1032500001D100F03AFEFDF775F809200021FDF7D5
:1032600071F80020FDF7D4F82820FDF7D1F80121EE
:103270000920FDF767F800210820FDF763F8002119
:103280000920FDF75FF8C020FDF7C2F801210920F1
:10329000FDF758F8237801210820522B01D100F0C6
:1032A0000CFEFDF74FF809200021FDF74BF8002038
:1032B000FDF7AEF83C20FDF7ABF801210920FDF742
:1032C00041F800210820FDF73DF800210920FDF715
:1032D00039F8C220FDF79CF801210920FDF732F8EA
:1032E000237801210820522B01D100F0DEFDFDF7EB
:1032F00029F809200021FDF725F80020FDF788F8BE
:103300000120FDF785F801210920FDF71BF80021B8
:103310000820FDF717F800210920FDF713F8C32056
:10332000FDF776F801210920FDF70CF8237801213B
:103330000820522B01D100F0B0FDFDF703F8092061
:103340000021FCF7FFFF0020FDF762F80B20FDF7DE
:103350005FF801210920FCF7F5FF00210820FCF7A8
:10336000F1FF00210920FCF7EDFFC420FDF750F824
:1033700001210920FCF7E6FF237801210820522BC8
:1033800001D100F082FDFCF7DDFF09200021FCF7F0
:10339000D9FF0020FDF73CF82020FDF739F8012186
:1033A0000920FCF7CFFF00210820FCF7CBFF00210C
:1033B0000920FCF7C7FFC620FDF72AF801210920E4
:1033C000FCF7C0FF237801210820522B01D100F027
:1033D00054FDFCF7B7FF09200021FCF7B3FF0020E4
:1033E000FDF716F80F20FDF713F801210920FCF76F
:1033F000A9FF00210820FCF7A5FF00210920FCF708
:10340000A1FFD020FDF704F801210920FCF79AFF65
:10341000237801210820522B01D100F026FDFCF772
:1034200091FF09200021FCF78DFF0020FCF7F0FF41
:10343000A420FCF7EDFF01210920FCF783FF23788E
:1034400001210820522B01D100F007FDFCF77AFF83
:1034500009200021FCF776FF0020FCF7D9FFA1200E
:10346000FCF7D6FF01210920FCF76CFF00210820A2
:10347000FCF768FF00210920FCF764FFE020FCF75F
:10348000C7FF01210920FCF75DFF237801210820F7
:10349000522B01D100F0D9FCFCF754FF0920002188
:1034A000FCF750FF0020FCF7B3FFD020FCF7B0FF83
:1034B00001210920FCF746FF237801210820522B27
:1034C00001D100F0BAFCFCF73DFF09200021FCF718
:1034D00039FF0020FCF79CFF0120FCF799FF012138
:1034E0000920FCF72FFF237801210820522B01D15E
:1034F00000F09BFCFCF726FF09200021FCF722FFCF
:103500000020FCF785FF0820FCF782FF012109203D
:10351000FCF718FF237801210820522B01D100F07D
:103520007CFCFCF70FFF09200021FCF70BFF0020BB
:10353000FCF76EFF0F20FCF76BFF01210920FCF761
:1035400001FF237801210820522B01D100F05DFCFE
:10355000FCF7F8FE09200021FCF7F4FE0020FCF740
:1035600057FF1120FCF754FF01210920FCF7EAFE68
:10357000237801210820522B01D100F03EFCFCF7FA
:10358000E1FE09200021FCF7DDFE0020FCF740FFF2
:103590002A20FCF73DFF01210920FCF7D3FE237808
:1035A00001210820522B01D100F01FFCFCF7CAFEBC
:1035B00009200021FCF7C6FE0020FCF729FF362079
:1035C000FCF726FF01210920FCF7BCFE237801212E
:1035D0000820522B01D100F000FCFCF7B3FE0920BB
:1035E0000021FCF7AFFE0020FCF712FF5520FCF78E
:1035F0000FFF01210920FCF7A5FE237801210820F7
:10360000522B00D1E2E3FCF79DFE09200021FCF7DC
:1036100099FE0020FCF7FCFE4420FCF7F9FE012196
:103620000920FCF78FFE237801210820522B00D1BE
:10363000C5E3FCF787FE09200021FCF783FE00208C
:10364000FCF7E6FE3A20FCF7E3FE01210920FCF737
:1036500079FE237801210820522B00D1A8E3FCF742
:1036600071FE09200021FCF76DFE0020FCF7D0FE62
:103670000B20FCF7CDFE01210920FCF763FE237827
:1036800001210820522B00D186E3FCF75BFE0920C4
:103690000021FCF757FE0020FCF7BAFE0620FCF7DD
:1036A000B7FE01210920FCF74DFE237801210820F7
:1036B000522B00D169E3FCF745FE09200021FCF7FD
:1036C00041FE0020FCF7A4FE1120FCF7A1FE012121
:1036D0000920FCF737FE237801210820522B00D166
:1036E0004CE3FCF72FFE09200021FCF72BFE002005
:1036F000FCF78EFE2020FCF78BFE01210920FCF751
:1037000021FE00210820FCF71DFE00210920FCF706
:1037100019FEE120FCF77CFE01210920FCF712FED6
:10372000237801210820522B00D120E3FCF70AFE68
:1037300009200021FCF706FE0020FCF769FED020DE
:10374000FCF766FE01210920FCF7FCFD237801212E
:103750000820522B00D103E3FCF7F4FD09200021DF
:10376000FCF7F0FD0020FCF753FE0220FCF750FEB2
:1037700001210920FCF7E6FD237801210820522BC6
:1037800000D1E6E2FCF7DEFD09200021FCF7DAFDBE
:103790000020FCF73DFE0720FCF73AFE012109203E
:1037A000FCF7D0FD237801210820522B00D1C9E27B
:1037B000FCF7C8FD09200021FCF7C4FD0020FCF740
:1037C00027FE0A20FCF724FE01210920FCF7BAFDA0
:1037D000237801210820522B00D1ACE2FCF7B2FD86
:1037E00009200021FCF7AEFD0020FCF711FE0B20A4
:1037F000FCF70EFE01210920FCF7A4FD237801212E
:103800000820522B00D18FE2FCF79CFD09200021FB
:10381000FCF798FD0020FCF7FBFD1820FCF7F8FDF5
:1038200001210920FCF78EFD237801210820522B6D
:1038300000D172E2FCF786FD09200021FCF782FD31
:103840000020FCF7E5FD3420FCF7E2FD0121092012
:10385000FCF778FD237801210820522B00D155E296
:10386000FCF770FD09200021FCF76CFD0020FCF73F
:10387000CFFD4320FCF7CCFD01210920FCF762FDC0
:10388000237801210820522B00D138E2FCF75AFDA1
:1038900009200021FCF756FD0020FCF7B9FD4A2065
:1038A000FCF7B6FD01210920FCF74CFD237801212E
:1038B0000820522B00D11BE2FCF744FD0920002117
:1038C000FCF740FD0020FCF7A3FD2B20FCF7A0FD3A
:1038D00001210920FCF736FD237801210820522B15
:1038E00000D1FEE1FCF72EFD09200021FCF72AFDA6
:1038F0000020FCF78DFD1B20FCF78AFD012109202B
:10390000FCF720FD237801210820522B00D1E1E1B2
:10391000FCF718FD09200021FCF714FD0020FCF73E
:1039200077FD1C20FCF774FD01210920FCF70AFD3E
:10393000237801210820522B00D1C4E1FCF702FDBD
:1039400009200021FCF7FEFC0020FCF761FD22208D
:10395000FCF75EFD01210920FCF7F4FC237801212E
:103960000820522B00D1A7E1FCF7ECFC0920002134
:10397000FCF7E8FC0020FCF74BFD1F20FCF748FD9E
:1039800001210920FCF7DEFC00210820FCF7DAFC0D
:1039900000210920FCF7D6FC5520FCF739FD012158
:1039A0000920FCF7CFFC237801210820522B00D1FD
:1039B0007BE1FCF7C7FC09200021FCF7C3FC0020D9
:1039C000FCF726FDB020FCF723FD01210920FCF7C0
:1039D000B9FCFFF706FB6B1EDBB20026062B00D8F6
:1039E00054E1F14B1D71032D00D84BE1A022F021D1
:1039F00052005980082000211A80FCF7A3FC002106
:103A00000920FCF79FFC3620FCF702FD012109206C
:103A1000FCF798FC237801210820522B00D13DE1CE
:103A2000FCF790FC09200021FCF78CFC0020FCF73F
:103A3000EFFC3000FCF7ECFC01210920FCF782FCD4
:103A4000FFF7E3FAFCF77EFC00210920FCF77AFC83
:103A5000FFF7AEFAFCF776FC00210920FCF772FCB8
:103A6000FFF780FAFCF76EFC00210920FCF76AFCE6
:103A7000FFF761FAFCF766FC00210920FCF762FC05
:103A8000FFF742FAFCF75EFC00210920FCF75AFC24
:103A9000FFF723FAFCF756FC00210920FCF752FC43
:103AA000FFF704FAFCF74EFC00210920FCF74AFC62
:103AB000FFF7E5F9FCF746FC00210920FCF742FC82
:103AC000FFF7C6F9FCF73EFC00210920FCF73AFCA1
:103AD000FFF7A7F9FCF736FC00210920FCF732FCC0
:103AE000FFF788F9FCF72EFC00210920FCF72AFCDF
:103AF000FFF769F9FCF726FC00210920FCF722FCFE
:103B0000FFF74AF9FCF71EFC00210920FCF71AFC1C
:103B1000FFF72BF9FCF716FC00210920FCF712FC3B
:103B2000FFF70CF9FCF70EFC00210920FCF70AFC5A
:103B3000FFF7EDF8FCF706FC00210920FCF702FC7A
:103B4000FFF7CEF8FCF7FEFB00210920FCF7FAFB9B
:103B5000FFF7A0F8FCF7F6FB00210920FCF7F2FBC9
:103B6000FFF781F8FCF7EEFB00210920FCF7EAFBE8
:103B7000FFF762F8FCF7E6FB00210920FCF7E2FB07
:103B8000FFF743F8FCF7DEFB00210920FCF7DAFB26
:103B9000FFF724F8FCF7D6FB00210920FCF7D2FB45
:103BA000FEF7FFFFFCF7CEFB00210920FCF7CAFB64
:103BB000FEF7E0FFFCF7C6FB00210920FCF7C2FB83
:103BC000FEF7C1FFFCF7BEFB00210920FCF7BAFBA2
:103BD000FEF7A2FFFCF7B6FB00210920FCF7B2FBC1
:103BE000FEF783FFFCF7AEFB00210920FCF7AAFBE0
:103BF000FEF764FFFCF7A6FB00210920FCF7A2FBFF
:103C0000FEF745FFFCF79EFB00210920FCF79AFB1D
:103C1000FEF726FFFCF796FB00210920FCF792FB3C
:103C2000FEF707FFFCF78EFB00210920FCF78AFB5B
:103C3000FEF7E8FEFCF786FB00210920FCF782FB7B
:103C4000FEF7BAFEFCF77EFB00210920FCF77AFBA9
:103C5000FEF78CFEFCF776FB00210920FCF772FBD7
:103C6000FEF75EFEFCF76EFB00210920FCF76AFB05
:103C7000FEF73FFEFCF766FB00210920FCF762FB24
:103C8000FEF720FEA021F0224900B2E6474A5B0081
:103C9000D65C454B1D71032DF4D9A7E6FCF752FB0A
:103CA00000210920FCF74EFBC3E6FCF74BFB00218B
:103CB0000920FCF747FB85E6FCF744FB00210920BF
:103CC000FCF740FB59E6FCF73DFB00210920FCF71F
:103CD00039FB3CE6FCF736FB00210920FCF732FB00
:103CE0001FE6FCF72FFB00210920FCF72BFB02E667
:103CF000FCF728FB00210920FCF724FBE5E5FCF795
:103D000021FB00210920FCF71DFBC8E5FCF71AFB8D
:103D100000210920FCF716FBABE5FCF713FB0021A3
:103D20000920FCF70FFB8EE5FCF70CFB00210920B6
:103D3000FCF708FB71E5FCF705FB00210920FCF707
:103D400001FB54E5FCF7FEFA00210920FCF7FAFA22
:103D500037E5FCF7F7FA00210920FCF7F3FA1AE53A
:103D6000FCF7F0FA00210920FCF7ECFAFDE4FCF77F
:103D7000E9FA00210920FCF7E5FAE0E4FCF7E2FAB1
:103D800000210920FCF7DEFAB4E4FCF7DBFA00219D
:103D90000920FCF7D7FA97E4FCF7D4FA00210920B0
:103DA000FCF7D0FA7AE4C04664760220DC0E0110FB
:103DB000FCF7C8FA00210920FCF7C4FA58E4FCF724
:103DC000C1FA00210920FCF7BDFA3BE4FCF7BAFA7E
:103DD00000210920FCF7B6FA1EE4FCF7B3FA002133
:103DE0000920FCF7AFFAFFF701FCFCF7ABFA002162
:103DF0000920FCF7A7FAFFF7E2FBFCF7A3FA002182
:103E00000920FCF79FFAFFF7C3FBFCF79BFA0021A0
:103E10000920FCF797FAFFF7A4FBFCF793FA0021BF
:103E20000920FCF78FFAFFF785FBFCF78BFA0021DE
:103E30000920FCF787FAFFF766FBFCF783FA0021FD
:103E40000920FCF77FFAFFF747FBFCF77BFA00211C
:103E50000920FCF777FAFFF728FBFCF773FA00213B
:103E60000920FCF76FFAFFF7FAFAFCF76BFA00216A
:103E70000920FCF767FAFFF7DBFAFCF763FA002189
:103E80000920FCF75FFAFFF7ADFAFCF75BFA0021B7
:103E90000920FCF757FAFFF77FFAFCF753FA0021E5
:103EA0000920FCF74FFAFFF751FAFCF74BFA002113
:103EB0000920FCF747FAFFF723FAFCF743FA002141
:103EC0000920FCF73FFAFFF7F5F9FCF73BFA002170
:103ED0000920FCF737FAFFF7C7F9FCF733FA00219E
:103EE0000920FCF72FFAFFF799F9FCF72BFA0021CC
:103EF0000920FCF727FAFFF76BF9FCF723FA0021FA
:103F00000920FCF71FFAFFF74CF9FCF71BFA002118
:103F10000920FCF717FAFFF72DF9FCF713FA002137
:103F20000920FCF70FFAFFF70EF9FCF70BFA002156
:103F30000920FCF707FAFFF7EFF8FCF703FA002176
:103F40000920FCF7FFF9FFF7C1F8FCF7FBF90021A6
:103F50000920FCF7F7F9FFF793F8C046F8B5CE460D
:103F60004746804680B508200F0000211C00150040
:103F7000FCF7E8F900210920FCF7E4F92A20FCF716
:103F800047FA01210920FCF7DDF943468A4E1B0A56
:103F90009946337801210820522B00D1D4E0FCF758
:103FA000D1F909200021FCF7CDF90020FCF730FA07
:103FB0004B46D8B2FCF72CFA01210920FCF7C2F9D4
:103FC000337801210820522B00D1EEE0FCF7BAF93A
:103FD00009200021FCF7B6F90020FCF719FA434646
:103FE000D8B2FCF715FA013D01210920FCF7AAF926
:103FF0002B129846337801210820522B00D1CDE0B6
:10400000FCF7A0F909200021FCF79CF94346180EA3
:10401000FCF7FEF94346D8B2FCF7FAF90121092072
:10402000FCF790F9337801210820ADB2522B00D172
:10403000ADE0FCF787F909200021FCF783F90020A7
:10404000FCF7E6F9E8B2FCF7E3F901210920FCF7F7
:1040500079F900210820FCF775F900210920FCF707
:1040600071F92B20FCF7D4F901210920FCF76AF93A
:104070003378012108203D0A522B00D180E0FCF763
:1040800061F909200021FCF75DF90020FCF7C0F977
:10409000E8B2FCF7BDF901210920FCF753F93378A8
:1040A00001210820522B64D0FCF74CF90920002193
:1040B000FCF748F90020FCF7ABF9F8B2FCF7A8F9D7
:1040C00001210920FCF73EF93378013C0121082049
:1040D0002512522B46D0FCF735F909200021FCF7B8
:1040E00031F9280EFCF794F9E8B2FCF791F90121B7
:1040F0000920FCF727F9337801210820A4B2522BBC
:1041000029D0FCF71FF909200021FCF71BF900203A
:10411000FCF77EF9E0B2FCF77BF901210920FCF7FE
:1041200011F900210820FCF70DF900210920FCF706
:1041300009F92C20FCF76CF901210920FCF702F9A0
:10414000C0BCB946B046F8BDFCF7FCF80021092018
:10415000FCF7F8F82CE7FCF7F5F800210920FCF74C
:10416000F1F8D7E7FCF7EEF800210920FCF7EAF8B0
:10417000BAE7FCF7E7F800210920FCF7E3F89CE731
:10418000FCF7E0F800210920FCF7DCF880E7FCF7F9
:10419000D9F800210920FCF7D5F853E7FCF7D2F84D
:1041A00000210920FCF7CEF834E7FCF7CBF800211A
:1041B0000920FCF7C7F812E720040020F8B5050035
:1041C0000C0008200021FCF7BDF800210920FCF7B5
:1041D000B9F82A20FCF71CF901210920FCF7B2F8F4
:1041E000864E0121337808202F0A522B00D1CCE0D3
:1041F000FCF7A8F809200021FCF7A4F80020FCF740
:1042000007F9F8B2FCF704F901210920FCF79AF844
:10421000337801210820522B00D1E7E0FCF792F817
:1042200009200021FCF78EF80020FCF7F1F8E8B235
:10423000FCF7EEF801210920FCF784F83378013D02
:10424000012108202F12522B00D1C8E0FCF77AF888
:1042500009200021FCF776F8380EFCF7D9F8F8B2FF
:10426000FCF7D6F801210920FCF76CF8337801211E
:104270000820ADB2522B00D1AAE0FCF763F8092068
:104280000021FCF75FF80020FCF7C2F8E8B2FCF769
:10429000BFF801210920FCF755F800210820FCF7A0
:1042A00051F800210920FCF74DF82B20FCF7B0F85D
:1042B00001210920FCF746F8337801210820250A5E
:1042C000522B00D17DE0FCF73DF809200021FCF7DE
:1042D00039F80020FCF79CF8E8B2FCF799F80121C6
:1042E0000920FCF72FF8337801210820522B61D0E8
:1042F000FCF728F809200021FCF724F80020FCF73F
:1043000087F8E0B2FCF784F801210920FCF71AF8DD
:104310003378013C012108202512522B43D0FCF7B1
:1043200011F809200021FCF70DF8280EFCF770F8B1
:10433000E8B2FCF76DF801210920FCF703F83378A7
:1043400001210820A4B2522B26D0FBF7FBFF092045
:104350000021FBF7F7FF0020FCF75AF8E0B2FCF76A
:1043600057F801210920FBF7EDFF00210820FBF79A
:10437000E9FF00210920FBF7E5FF2C20FCF748F8B6
:1043800001210920FBF7DEFFF8BDFBF7DBFF002171
:104390000920FBF7D7FF34E7FBF7D4FF0021092002
:1043A000FBF7D0FFDAE7FBF7CDFF00210920FBF791
:1043B000C9FFBDE7FBF7C6FF00210920FBF7C2FFDD
:1043C0009FE7FBF7BFFF00210920FBF7BBFF83E757
:1043D000FBF7B8FF00210920FBF7B4FF56E7FBF716
:1043E000B1FF00210920FBF7ADFF38E7FBF7AAFF7B
:1043F00000210920FBF7A6FF19E7C0462004002092
:10440000104B10B514001A88824202D35B888B428D
:1044100000D210BD0B000200FFF7A0FD0121082013
:10442000FBF790FF00210920FBF78CFF200AFBF728
:10443000EFFFE0B2FBF7ECFF01210920FBF782FF61
:10444000E7E7C04664760220F0B5C64600B51C001A
:1044500006AB80460F0015001E88824201D98C42AF
:1044600002D880BCB846F0BD2300FFF777FD434675
:104470000121ED1A0820E41BFBF764FFADB2002117
:104480000920A4B26C43FBF75DFF0025370AF6B2A2
:104490003800FBF7BDFF01353000FBF7B9FFAC4238
:1044A000F6D101210920FBF74DFFDAE7F8B5144BEF
:1044B00004001D88002D02D05E88002E00D1F8BDBA
:1044C00033002A0000210020FFF748FD01210820C9
:1044D000FBF738FF002109206E43FBF733FF00256F
:1044E000270AE4B23800FBF793FF01352000FBF701
:1044F0008FFFAE42F6D101210920FBF723FFDEE753
:1045000064760220F0B5DE464E46574645469B4649
:10451000E0B585B00EAB1B88072601935B46029180
:104520009988DC880E40731E9E41203ACB08F31810
:10453000160066435E435B461B689C466644002C3F
:1045400044D0029B013B9BB29846431E0393234BEE
:10455000994600293AD06B469889434601339BB26D
:1045600000259A4608E0073C63425C410135ADB244
:104570003619B8B2A94217D9072480232C40234109
:104580003278471C1342EED04B461A88BBB29A428F
:10459000E9D34B465B885345E5D34146019AFFF783
:1045A0002FFF5B469988DEE74B0700D001365B465C
:1045B000DA88434602981B1A02339BB2934205D213
:1045C000434601339BB298460029C4D105B0F0BCE4
:1045D000BB46B246A946A046F0BDC046647602205E
:1045E000F0B54E464546DE4657461C00E0B5072668
:1045F00087B0019310AB0391198811AB88461988D5
:1046000004900291A188203A0E40731E9E41CB086F
:10461000F3181600E08846435E4323689C460593E2
:104620006644002861D0039B013B9BB29A46324B03
:104630009946002959D0049B0025581E5346013342
:104640009BB29B4680B21CE080232341471C13424F
:1046500029D04B461A88BBB29A4209D34B465B8895
:104660005B4505D35146029AFFF7CAFE019B998824
:10467000073C63425C410135ADB23619B8B28D4298
:1046800021D207241D4B32782C409845DCD1802361
:104690002341471C1342EBD0174B1A889446BAB2F9
:1046A0009445DCD2E4E74B461A88BBB29A42DFD38A
:1046B0004B465B885B45DBD351464246FFF7A0FE85
:1046C000019B9988D4E74B0700D00136019B0398E2
:1046D000DA8853461B1A02339BB29A4205D95346D5
:1046E00001339BB29A460029A5D107B0F0BCBB4666
:1046F000B246A946A046F0BD64760220FFFF000046
:10470000F0B557464E464546DE46E0B50F001E0062
:10471000844614008FB00B9318AB1D8819ABA846C4
:104720000A921D78121A1AAB1B780291D1170695BE
:104730005518F21B9946D3174D40D118594008918E
:10474000A4458941D3179A1A5A400592564A0190B6
:104750005648114084460A0002216244BC460800C3
:104760000992B445924108991040421E0C926A1A6F
:1047700000214B468A46079504925D0052009BB289
:10478000013D03920D93534601335BB29A46069B5B
:10479000012B06D10321504604F076FD49B20029D1
:1047A0004FD0434B019A1B88934223D3404B029A2C
:1047B0005B8893421ED3002D1CDD0023019A99468D
:1047C0000D9BD21A9346029AD71ABFB24E460024C6
:1047D0005E44B6B2E11901344246300089B2A4B257
:1047E000FFF70EFEA542F5DC4B4601339BB299461E
:1047F0009D42EBDC059B039A934211DC0A9A019BD4
:104800009A424AD0049A0899521A099904928C46FD
:1048100063449BB201935300079A03939A42B2DB1D
:104820000B9A029B9A4238D00799049A8C460C99AD
:1048300062448C4663449BB20293530004920393F8
:10484000A1E71B4B019A1B88934223D3184B029A72
:104850005B8893421ED3002D1CDD0023019A9946EC
:104860000D9BD21A9246029AD71ABFB24E46002426
:104870005644B6B2E119013430000C4A89B2A4B2F0
:10488000FFF7BEFDAC42F5DB4B4601339BB29946C8
:10489000AB42EBDB00239A46ACE70FB0F0BCBB4663
:1048A000B246A946A046F0BD0200FFFFFFFF000090
:1048B00064760220F0B54F464646D646C0B584B071
:1048C0001F000CAB1B88140099460DAB1B7805002C
:1048D0009A462D4B0E001A889846904225D85B8840
:1048E000994222D8944210D8534602930023019350
:1048F0004B46220000930B00FFF702FF43461A8845
:10490000954212D85B889E420FD89F420DD85346DD
:104910000293002301934B462A00009331003B0091
:104920002800FFF7EDFE43461A88944226D84346F6
:104930005B889F4222D89E4212D85346029300239E
:1049400001934B4622000093390033002000FFF70B
:10495000D7FE43461A88944210D85B88BB420DD3D9
:1049600095420BD853460293002301934B462A00ED
:10497000009339003B002000FFF7C2FE04B0E0BC0A
:10498000BA46B146A846F0BD64760220F0B585B0BF
:104990000AAC26880BAC27780CAC2478A446094CCA
:1049A000258885420CD364888C4209D3954207D36D
:1049B0009C4205D36446019702940096FFF7A0FE3F
:1049C00005B0F0BD64760220F0B583B008AC27884E
:1049D00009AC26780AAC2478A4460C4C258885427C
:1049E0000BD364888C4208D3954206D39C4204D3EF
:1049F000002E04D00097FFF727FD03B0F0BD6446FA
:104A000000970194FFF756FFF7E7C046647602204F
:104A1000F0B557464E46DE464546E0B585B01F0028
:104A20000EAB1B888A4603930FAB1B8881469B46BF
:104A30001F4B160019889846814231D3588850453B
:104A40002ED31278002A2BD0BB8855469C464C4664
:104A50001DE0FB88EB18834201DD55464C468C4235
:104A60000CD885420AD85B460193039B290000932A
:104A700020003B00FFF7B4FDBB889C46727864447D
:104A80000136A4B2002A0BD04346198858886346E1
:104A9000E3188B42DDDDFB884C46ED18ADB2D9E75B
:104AA00005B0F0BCBB46B246A946A046F0BDC04624
:104AB0006476022070B51F4B9A88824205D2DC884A
:104AC0001E008C4201D2300070BD1B4CA58885426F
:104AD00008D2824206D9E2888A4203D2DB882600C5
:104AE0008B42F0D8154B9A88824208D2854206D96B
:104AF000DD888D4203D2E4881E008C42E3D8104C3E
:104B0000A588854208D2824206D9E2888A4203D229
:104B1000DB8826008B42D6D80A4B9A888242D2D2B2
:104B20008542D0D9DA888A42CDD2E2888A42CAD96F
:104B30001E00C8E71804002010040020080400200C
:104B400000040020F8030020F0B5DE464E4645463E
:104B500057468346E0B58FB0984618AB40CB170058
:104B60001B880BAA04931AAB1B880D000693D64B27
:104B700003CB03C21B88072113805B46F81A04F09D
:104B800083FB434684B2591B89B22000FFF792FF92
:104B90000390B3790A211800994604F09DFBC9B22D
:104BA000002900D01DE14B460A3B312B38D97379DF
:104BB000B171581CC0B20A217071994604F08CFB87
:104BC000C9B2002900D034E14B46093B312B00D853
:104BD00056E1337971710133DBB20A211800337168
:104BE000994604F079FB0139C9B2022903D84B4632
:104BF000172B00D86CE100233371069B3A00290083
:104C0000009358464346FFF71FFC6200A318590063
:104C1000594489B20991091B89B208919BB2F7E006
:104C2000A300E3189BB299465B4498B23A00070090
:104C3000069B2900009343460890FFF705FC3B19AB
:104C40004F46620098B26108A31809909BB292B2D5
:104C50000591C01B80B281468A4653440793924413
:104C60009A4F30793B889B4514D87A88AA4200D263
:104C7000D9E00A2104F030FB0C2208ABC0B29B182B
:104C80001A5C049B584600932900039BFFF73AFCEB
:104C900030793B88994513D87A88AA4200D2C5E07A
:104CA0000A2104F019FB0C2208ABC9B29B185A5C0C
:104CB000049B290000934846039BFFF723FC3B8895
:104CC000A208904605984844404480B298420AD8C9
:104CD0007A88AA4207D3049B3A2200932900039BB7
:104CE000FFF710FC3B8852465A4492B292467079C4
:104CF0009A4213D87A88AA4210D30A2104F0ECFA17
:104D00000C2208ABC0B29B181A5C049B504600935F
:104D10002900039BFFF7F6FB70793B88079A5A44FA
:104D200092B291469A4213D87A88AA4200D275E08C
:104D30000A2104F0D1FA0C2208ABC9B29B185A5CC4
:104D4000049B290000934846039BFFF7DBFB3B884D
:104D5000059AA0009446424658446044801A80B2A6
:104D600098420AD87A88AA4258D3049B3A220093E0
:104D70002900039BFFF7C6FB3B88089CB0799C4247
:104D800013D87B88AB4225D30A2104F0A5FA0C2264
:104D900008ABC0B29B181A5C049B2000009329004A
:104DA000039BFFF7AFFBB0793B88099C9C4211D86D
:104DB0007B88AB420ED30A2104F08EFA0C2208AB9A
:104DC000C9B29B185A5C049B290000932000039BE6
:104DD000FFF798FB0FB0F0BCBB46B246A946A04611
:104DE000F0BD63009A46A146D1444B465B005B444C
:104DF00098B23A000700069B2900009343460990A9
:104E0000FFF722FB3B1B9BB208934B4652469BB2DB
:104E10005846610892B2059100191BE7089AB079CB
:104E20009342D7D2C1E74B4500D249E7A20890464A
:104E300059E763009946A246CA446208534694461D
:104E40009BB2634418000793069B5844059280B2B6
:104E50003A00009329004346FFF7F6FA53465B00F9
:104E60005B449BB209931B1B9BB208934B469AB2BF
:104E70005B46181983B29946059B9A469244EFE621
:104E8000630099469AB263089A4658460699924436
:104E900050443A00059300914346290080B2FFF741
:104EA000D3FA494663185A005A4491B20A1B099131
:104EB00091B2089159460A1991B2059A9BB294464B
:104EC000634489460793CBE6EC0E0110647602201A
:104ED0005B461B199BB29946069B3A00290000933A
:104EE00048464346FFF7B0FAA300E3184B449BB291
:104EF00009931B1B9BB2620008936108A3189BB225
:104F000092B20591A8E6C046F0B5C64600B50700C6
:104F100084B03C493C4808F021F80E2301AD6B44B5
:104F20002E00984600211020FBF70CFA3800FBF702
:104F30006FFAC820FBF792FA0020FBF77BFA84B2E5
:104F40000020FBF777FA2402A4B20443A4B20121A3
:104F50001020E408FBF7F6F93480C8200236FBF78E
:104F60007DFA4645DED12949274807F0F7FF2B880F
:104F70006A88934201D92A806B802B88AA88934241
:104F800001D92A80AB802B88EA88934201D92A80F4
:104F9000EB802B882A89934231D86B88AA88934268
:104FA00001D96A80AB806B88EA88934201D96A8014
:104FB000EB806B882A8993421ED8AB88EA8893429B
:104FC00001D9AA80EB80AB882A89934201D9AA80B3
:104FD0002B812B89EA889A4200D9EB80AB886888BC
:104FE0000321C018EB88C01880B204F075F980B2B4
:104FF00004B080BCB846F0BD6A802B81DDE72B8110
:10500000CBE7C046C0C62D000000044080A81201B6
:10501000F8B5D020FFF778FF04009020FFF774FF69
:1050200006000A20FBF71AFAD020FFF76DFF0500F3
:105030009020FFF769FF07000A20FBF70FFAAC4248
:105040000CD2230031330020AB4206DBBE420DD22E
:10505000330031330020BB4210DAF8BD2B0031336E
:10506000A342F3DA0020AC42F7D1EAE73B00313348
:10507000B34203DA0020BE42EFD1E9E7044B6419E2
:10508000F61970106410D8809C800120E5E7C046B6
:105090007076022010B52A4B82B01B78522B1BD0A1
:1050A000284B1A7E062A0CD0002A21D1264A1A61E2
:1050B000264A5A61152252425A81123A9A8102B006
:1050C00010BD234A1A61234A5A61812292005A81F3
:1050D000162252429A81F2E71A4B1F4A1A611F4A5E
:1050E0005A616422FF325A81783AFF3A9A81E6E7A0
:1050F000032A0BD0052A13D1194A1A61194A5A6199
:10510000194A5A81142252429A81D8E7174A1A61E1
:10511000174A5A61162252425A81103A9A81CEE7B2
:10512000144C2000FFF7C2F9F8231B0201933C2125
:105130000020114B114A0094FFF76AFCBFE7C046FC
:10514000200400207076022010B3B73DEA060A3E24
:10515000239F07BE5950B83D6DABB9BDB6118F3D09
:10516000831808BE7826B43D050200005B25B83DD3
:10517000D05F083EFFFF000008040020F80E011079
:10518000F0B5CE46474680B5604885B0FFF78EF94A
:105190000C235F4F0024BB803533FF330125984635
:1051A0005C4E0F3BBC7142460021002002950195E8
:1051B0000096FF3BFFF708FC022399460293322238
:1051C00000210020019400942F33FFF7FDFB4B4694
:1051D0008720424602930021019400942F3340001F
:1051E000FFF7F2FB42463223322100200295019460
:1051F0000094FFF7CBFB484B0F210520474A019451
:1052000000969846FFF704FC142043460F21444AB9
:1052100001940096FF30FFF7FBFB00972023FA2252
:105220000F21462002960194FFF78EFC82238C22E8
:1052300046211420029501950096FFF7C5FB96279D
:1052400082238C2246211420029501940094FFF7BA
:10525000BBFB344B7F0098465A212820324A0194E8
:105260000096FFF7D5FB3A0082234621B420029531
:1052700001950096FFF7A8FB3A0082234621B4204F
:10528000029501940094FFF79FFB43465A21BE20EC
:10529000264A01940096FFF7BBFBD7238C229B2163
:1052A0001420029501950096FFF78EFBD7238C22E0
:1052B0009B211420029501940094FFF785FB43463F
:1052C000AF211E201A4A01940096FFF7A1FB3A0075
:1052D000D7239B21B420029501950096FFF774FB1C
:1052E0003A00D7239B21B420029501940094FFF744
:1052F0006BFBAF21BE200F4B0F4A01940096FFF7C6
:1053000087FB05B0C0BCB946B046F0BDFFFF00004A
:1053100094760220FF070000080400203C0F0110D3
:10532000440F0110180400204C0F0110540F0110FD
:105330005C0F011010040020640F0110F0B5DE4670
:10534000574645464E46E0B5814F87B038000125A7
:10535000FFF7ACF8A0227F4E3223002100200295F7
:10536000019500965200FFF72FFB02230024984678
:105370003222002100200293019400942F33FFF782
:1053800023FB4346A022872000210293019400942E
:105390002F3352004000FFF717FBA02232233221A7
:1053A00000200295019400945200FFF7EFFA6A4B37
:1053B0000F210520694A019400969846FFF728FBC3
:1053C000142043460F21664A01940096FF30FFF7F0
:1053D0001FFB0F215020634B634A01940096FFF797
:1053E00017FBA022614E5A2332210020029501951D
:1053F00052000096FFF7E8FA434641210F205C4A2D
:1054000001970096FFF704FB5A4B4121984655201F
:10541000594A01970096FFF7FBFA43464121AF2016
:10542000564A01970096FFF7F3FA43464121FF20C1
:10543000534A01970096FFF7EBFAF0234D223221F1
:105440004D20029501940094FFF7A0FAF023A022CA
:105450003221A020029501940094FFF797FAF023DF
:10546000029501940094F0223221F020FFF78EFA89
:1054700000239A46434B00259B46434F0C3453462A
:10548000A0229EB201233968002071435A3189B2AB
:10549000029352000B0001950095FFF777FA5A46E8
:1054A0002B4B396899467143009301955F3112592E
:1054B0004346052089B2FFF7ABFA344B39681B59D4
:1054C000714305934B466E310520059A89B20093CE
:1054D00001954346FFF79CFA2D4B39681B597143E0
:1054E00005934B4664315520059A89B20093019586
:1054F0004346FFF78DFA274B39681B5971430593D3
:105500004B466431AF20059A89B20093019543461A
:10551000FFF77EFA204BFF201B59043C05933B68A4
:10552000059A5E4331004B466431009389B243468D
:105530000195FFF76DFA01239C46E244231D9ED19D
:1055400007B0F0BCBB46B246A946A046F0BDC04677
:10555000FFFF0000FF070000080400206C0F01108F
:10556000440F011010040020740F0110308400005B
:10557000800F011000040020880F0110900F01100F
:10558000980F0110340400207404002064040020EB
:10559000540400204404002024040020F0B5C64632
:1055A000A026012700B5264D84B076002548FEF7D9
:1055B0007DFF3200322300210020029701970095E1
:1055C000FFF702FA022300249846029332220021B8
:1055D0000020019400942F33FFF7F6F9434687200B
:1055E000320002930021019400942F334000FFF712
:1055F000EBF932003223322100200297019400940B
:10560000FFF7C4F9104E0F21330005200F4A019413
:105610000095FFF7FDF9142033000F210C4A019487
:105620000095FF30FFF7F4F90F214620094B0A4A95
:1056300001940095FFF7ECF904B080BCB846F0BDCA
:10564000FF070000FFFF0000080400206C0F01109E
:10565000440F011010040020A00F0110F0B5C64641
:10566000A026012700B5264D84B076002548FEF718
:105670001DFF320032230021002002970197009580
:10568000FFF7A2F902230024984602933222002158
:105690000020019400942F33FFF796F943468720AA
:1056A000320002930021019400942F334000FFF751
:1056B0008BF93200322332210020029701940094AA
:1056C000FFF764F9104E0F21330005200F4A0194B3
:1056D0000095FFF79DF9142033000F210C4A019427
:1056E0000095FF30FFF794F90F216E20094B0A4A0D
:1056F00001940095FFF78CF904B080BCB846F0BD6A
:10570000FF070000FFFF0000080400206C0F0110DD
:10571000440F011010040020640F0110F0B5C646BC
:10572000A026012700B5264D84B076002548FEF757
:10573000BDFE320032230021002002970197009520
:10574000FFF742F9022300249846029332220021F7
:105750000020019400942F33FFF736F94346872049
:10576000320002930021019400942F334000FFF790
:105770002BF9320032233221002002970194009449
:10578000FFF704F9104E0F21330005200F4A019452
:105790000095FFF73DF9142033000F210C4A0194C6
:1057A0000095FF30FFF734F90F217820094B0A4AA2
:1057B00001940095FFF72CF904B080BCB846F0BD09
:1057C000FF070000FFFF0000080400206C0F01101D
:1057D000440F0110100400204C0F0110F8B5CE4604
:1057E0004746112080B5FAF7B7FD002829D1FFF709
:1057F0000FFC002833D1934F934E3B883588984651
:10580000924C237A7F2B03D8C023237263682360D2
:10581000454520D273887A889A421CD96A1E302A5C
:1058200000D991E05A1E302A00D98DE0884C002121
:10583000625E012A00D087E0FFF7A2FC00232380EC
:1058400009E00821814B5956187A00294CDB0022C7
:105850001A60013A5A60C0BCB946B046F8BD7D4BEB
:105860007A4C1B78522B45D0237E032B00D186E047
:10587000002B3DD1734F3B881800984604F090FBF5
:10588000051CA08804F08CFB216904F082FB011C3C
:10589000281C04F064FB051C0A23E05E04F080FB76
:1058A000011C281C04F05BFB04F09CFB664E85B2D7
:1058B0003580788804F074FB8146E08804F070FB42
:1058C000616904F066FB011C484604F048FB814610
:1058D0000C23E05E04F064FB011C484604F03FFB2F
:1058E00004F080FB70808CE77F2202401A72B2E7DE
:1058F000052B6DD1E08804F053FB216904F049FBCE
:10590000051C0A23E05E04F04BFB011C281C04F07C
:1059100029FB04F067FB4C4E85B23580A08804F06B
:105920003FFB616904F035FB071C0C23E05E04F0CB
:1059300037FB011C381C04F015FB04F053FB414FEE
:1059400070803B8898465CE72A00B53A762A2CD9C5
:10595000153D762D00D97EE71A00473A442A66D9CC
:105960009C3B3A2B00D976E7394C0022A35E002BF2
:1059700000D070E7FFF712FE012323806BE7A088B9
:1059800004F00EFB216904F004FB051C0A23E05E11
:1059900004F006FB011C281C04F0E4FA04F022FBCE
:1059A000294E85B23580E088B9E71A00473A3A2A8D
:1059B00033D99C3B3A2B00D94DE7254C0022A35EFE
:1059C000002B00D047E7FFF749FE0123238042E781
:1059D0001C4F3B881800984604F0E2FA051CE0884A
:1059E00004F0DEFA216904F0D4FA011C281C04F04A
:1059F000B6FA051C0A23E05E04F0D2FA011C281C4A
:105A000004F0ADFA04F0EEFA0F4E85B235807888D6
:105A100004F0C6FA8146A08850E70D4C0021625E72
:105A2000002AC6D1FFF78AFC0123238013E7084C24
:105A30000021625E002A93D1FFF770FE01232380CC
:105A400009E7C046647602208C7602207076022038
:105A5000E87602202004002070B505000121102006
:105A6000FAF770FC054CD0202576FFF74DFAA080A0
:105A70009020FFF749FAE08070BDC04670760220A2
:105A800070B505000E0016200121FAF75BFCFF201F
:105A9000FAF7BEFC00211620FAF754FC1B4C02E07A
:105AA000013C002C25D0FF20FAF7B2FCFF28F7D1EB
:105AB00040202843FAF7ACFC0020FAF7A9FC0020AC
:105AC000FAF7A6FC0020FAF7A3FC0020FAF7A0FCE6
:105AD0003000FAF79DFC0C2D14D0202403E0013C8B
