:020000041000EA
:1000000000B5324B212058609868022188439860DF
:10001000D860186158612E4B002199600221596106
:100020000121F02299502B49196001219960352056
:1000300000F044F80222904214D00621196600F024
:1000400034F8196E01211966002018661A6600F04E
:100050002CF8196E196E196E052000F02FF8012189
:100060000842F9D1002199601B49196000215960AB
:100070001A491B48016001219960EB211966A021F2
:10008000196600F012F800219960164914480160C1
:100090000121996001BC002800D000471248134993
:1000A000086003C880F30888084703B5996A0420EC
:1000B0000142FBD001200142F8D103BD02B5186610
:1000C0001866FFF7F2FF186E186E02BD00000240BE
:1000D000000000180000070000035F00212200005C
:1000E000F4000018222000A00001001008ED00E03C
:1000F00000000000000000000000000074B24E7A12
:1001000000200420F7010010C3010010C5010010F9
:10011000C1010010C1010010C1010010C101001097
:10012000C1010010C1010010C1010010C701001081
:10013000C1010010C1010010C9010010CB01001065
:10014000CD010010CD010010CD010010CD01001037
:10015000CD010010CD010010CD010010CD01001027
:10016000CD010010CD010010CD010010CD01001017
:10017000CD010010CD010010CD010010CD01001007
:10018000CD010010CD010010CD010010CD010010F7
:10019000CD010010CD010010CD010010CD010010E7
:1001A000CD010010CD010010CD010010CD010010D7
:1001B000CD010010CD010010CD010010CD010010C7
:1001C00000BE00BE00BE00BE00BE00BE00F04BF888
:1001D000103800BEF2EB8871580F0110780F011033
:1001E0003402001090A31AE700202149086006C8D5
:1001F00081F3088810471F48006800282FD10DA4FC
:100200000ECC002902D000F012F8F9E71A491B4A77
:10021000002000E001C19142FCD1194988471949E9
:1002200088471949884700BEFDE701C901C29A42C3
:10023000FBD37047780F0110C0000020000500209C
:10024000B81301100000042000000420B8130110AE
:1002500000100420001004200000000070470B482C
:1002600009F05EFE0047EFF30580C0B27047000062
:1002700008ED00E0000000D0000500207C760220A0
:10028000A58300100D030010958400105756000040
:1002900006005250ABB36053180D011006005250C7
:1002A000861C0302280D0110060052505422A29D04
:1002B000340D011005005250DE65F468B8130110CA
:1002C000F8B5C04610B5064C2378002B07D1054B76
:1002D000002B02D0044800E000BF0123237010BDB2
:1002E000080800200000000058E00010044B10B582
:1002F000002B03D00349044800E000BF10BDC046F6
:10030000000000000C08002058E0001010B500F0BC
:1003100001F8FCE710B500F02BF802F01FF9C82136
:100320000420890002F05AFA042006F013FA06208D
:10033000042102F049F905F0C5FE05F039FF32202D
:1003400000F08CF806F0C2F8FCE7C0460123D0228A
:1003500083401206002901D0536170479361FCE786
:10036000D0231B065B68C340012018407047C0467D
:10037000F0B5C64600B50BF06BF80F2006F044FD53
:10038000D024802324061B026362082006F03CFD73
:100390008023802680275B006362B6010D2006F073
:1003A00033FDBF006662092006F02EFD6762102053
:1003B00006F02AFD80235B0263621120984606F056
:1003C00023FD802380259B02A362ED03162006F007
:1003D0001BFD002265620121112006F0FDFC434651
:1003E0000B4963610B486761666165610DF0FEFC56
:1003F00001210A2006F0D8FC01210B2006F0D4FCD4
:1004000001210C2006F0D0FC002080BCB846F0BDD5
:1004100000093D000000044010B584B06B460F2475
:100420006C44D91D08700123220003480DF004FE1E
:10043000207804B010BDC0460000044010B582B062
:100440006B46DC1D991D08700123220002480DF047
:10045000F3FD207802B010BD0000044010B507F095
:10046000C7FB10BD7047C046030010B50120002B2C
:1004700000D010BD06F0A0FA0028FAD006F0CAF9A4
:10048000FF2006F0C3F906F0C7F90120F1E7C046E6
:100490000020704770B50D00040011001A1E11D025
:1004A0000120002C00D070BD280006F063FB00285E
:1004B000F9D006F0AFF9FF2006F0A8F906F0ACF984
:1004C0000120F0E70420EEE770B50D0004001100F4
:1004D0001A1E0AD00120002C00D070BD280006F0A2
:1004E000B9FB431E9841C0B2F7E70420F5E7C046C8
:1004F00070B514000125002808D102290FD007D8B3
:10050000002911D006F020FA00252060280070BDD7
:1005100004250329FAD1082300251380F6E7802358
:100520009B0000251380F1E700211620FFF70EFF46
:1005300006F074F9431E98410121C5B21620FFF759
:1005400005FFE3E700207047F0B5DE4657464E460C
:100550004546E0B516008A4C0122A544310002A8A8
:1005600001F014FD874C884F1E223B00210002A899
:1005700001F0D6FD638902A80093A389A58A01939F
:10058000638A9A46E38A9B46238B9846A38B9946B7
:1005900001F0F4FD4B460020182B07D153467B4A4F
:1005A0002D041D4313880130AB4208D08D239B00DE
:1005B0009D44F0BCBB46B246A946A046F0BD4346AA
:1005C00059461B04194353888B468B42EED10122B6
:1005D000310002A801F0DAFC019B21001A04009B03
:1005E00002A81A433B0001F09BFD694B1B78522B7C
:1005F0006DD15B46002B00D1BEE000239846654BD1
:100600000093B4235B009946A144B4223B0021002F
:10061000520002A801F084FDB4223B00494652007A
:1006200002A801F07DFD002D1DD0434642461B016E
:100630009B1A1B019C46002362465900591889B237
:100640009818621896785278615CF6089208F6025B
:100650005201C90832430A430133009940009BB25A
:100660000A52AB42E8D3434601339BB298465B45FE
:10067000CBD30021002003F0BDFD01210820FFF7AE
:1006800065FE00210920FFF761FE434943480DF054
:1006900029FC9623009E9B02F5183088000AFFF77C
:1006A000BBFE30780236FFF7B7FEB542F5D1012127
:1006B0000920FFF74BFE02A801F060FD38493748DA
:1006C0000DF010FC3748FFF7C9FE01206EE700214E
:1006D000002003F08FFD304930480DF003FC5B46ED
:1006E000002BE8D0002399466933FF339A46294B03
:1006F000A2449846B4223B002100520002A801F017
:100700000FFDB4223B005146520002A801F008FD43
:10071000B423B4229B00E11852003B0002A801F070
:10072000FFFC8723B422DB00E11852003B0002A843
:1007300001F0F6FC002D18D000267200B11889B225
:10074000631898785B78C0089B085B01C002184367
:1007500084466346605C0136C00818434346B6B21F
:10076000985201F0C7FFAE42E7D34B4601339BB22C
:1007700099465B45BED39EE7064B009379E7C0469A
:10078000CCFDFFFFDC0E002024080020F4750220C1
:1007900008040020DC1D002080C3C90100000440C3
:1007A000C0C62D00DC05000070B5074D0100012218
:1007B000280001F0EBFB431E98414400280001F0A3
:1007C000DDFC200070BDC04648080020F0B546465C
:1007D000D6464F46C0B54F4E040088460100300053
:1007E00001F038FD0023994600287ED120000DF04D
:1007F000C3FB494B050010279A46484C21003000A6
:1008000001F06CFD002870D1637A002B6DD02E2B87
:10081000F4D0237A1F42F1D16B1CE218527A2E2AAF
:1008200048D0AA1CA118497A2E2966D0EB1CE118E1
:10083000497A2E2966D02A1DA118497A2E295CD022
:100840006B1DE118497A2E295CD0AA1DA118497A9E
:100850002E2952D0EB1DE118497A2E2952D00232AE
:10086000A118497A2E2948D00233E118497A2E2955
:1008700048D00232A118497A2E293ED00233E1181D
:10088000497A2E293ED00232A118497A2E2934D035
:1008900029000D3163185B7A2E2B33D02B000E33D9
:1008A000E218527A2E2A32D01D000133E218527A11
:1008B0002E2AF9D14B46182B1DD86319DA7A002558
:1008C000422A9BD11A7B4D2A98D15B7B502B95D124
:1008D0004B46414622009B0058580932514609F0C8
:1008E000DBFA01239C46E14488E74846E0BCBA466F
:1008F000B146A846F0BD002580E71D004B46182BE9
:10090000F9D8DAE74B461500182BF4D8D5E70D00D7
:10091000D0E7C0462C08002058E00010700A0020E4
:100920000A00036930B50932002B7CD0436918787E
:10093000202805D0052800D1E0300A0048720A328C
:1009400058781400202804D0052800D1E030541C29
:1009500010709A782000202A04D0052A00D1E032B5
:10096000601C2270DC780200202C04D0052C00D101
:10097000E034421C04701C791000202C04D0052C9B
:1009800000D1E034501C14705C790200202C04D09B
:10099000052C00D1E034421C04709C791000202CFE
:1009A00004D0052C00D1E034501C1470DC79020016
:1009B000202C04D0052C00D1E034421C0470187A9D
:1009C0001400202806D0052800D1E0302E245070D5
:1009D0001470941C5A7A2000202A04D0052A00D1D1
:1009E000E032601C22709C7A0200202C04D0052C7E
:1009F00000D1E034421C0470D87A08725C7F187F02
:100A00009D7F24020443D87F2D042C4300062043FD
:100A10000860587E1C7E000220438880987DDB7D24
:100A20001B020343CB800023137030BD002370B53D
:100A30000371013B04000D00C3624B1C09D00A0086
:100A40002100012340783031FFF724FD00281FD119
:100A5000E562124BE25A124B9A421BD122006632D7
:100A6000538811881B040B430E4A1B021B0A934236
:100A700012D08223E25A0C4B82349C4660880004D8
:100A800010430002000A6044431E9841C0B270BD8A
:100A90000320FCE70220FAE70020F8E72E0200001E
:100AA00055AA000046415400BABEABFFF0B5C64699
:100AB000C66A04000D0000B58E4235D007000379E8
:100AC0003037002B0BD101232A0039006078FFF763
:100AD000E1FC002826D1E56280BCB846F0BD0123C8
:100AE000320039004078FFF7EFFC00281AD1226A63
:100AF000A3692071B21A9A42E5D2E2789046012A9F
:100B000001D8E0E7A369F6183200012339006078C4
:100B1000FFF7DAFC01235B429C46E0444346012B8D
:100B2000F0D1D0E70120D7E70020D5E7F0B5454662
:100B3000DE4657464E460023E0B50C68150083B0EC
:100B40000360002C00D1C4E02378303B082B00D890
:100B5000B6E0C84B1C68002C00D11DE1237804606E
:100B6000002B0FD06078FFF793FCC3070AD4002D49
:100B700000D10DE104231E000640034200D1FFE036
:100B80000A26FDE0002300202380FFF76DFCC30749
:100B900000D5FFE0002D01D04307F1D40021200053
:100BA000FFF744FF0600012800D194E0032800D19C
:100BB0003AE10025002800D0E1E022003B32117824
:100BC000537880221B0292000B43934200D0D6E060
:100BD0004623E65A002E00D1666D4023A661E25CF2
:100BE000531EE270012B00D9C9E03D23E75CA770DA
:100BF000002F00D1C3E07B1E1F4200D0BFE0412385
:100C0000E15C230041335B781B020B439846238150
:100C10001B0700D0B3E04323E15C230043335B7840
:100C20001B020B4300D1236DE18F8B46002900D1BD
:100C3000A5E072431100019242468A4612095A44C5
:100C40009244534500D29AE052469B1A9946390085
:100C5000180009F0BFF9B94500D290E0864B9842E0
:100C600000D8E3E0854B984200D821E15B46EB18C1
:100C700023625346EB18A362434602306061E5618C
:100C8000002B7CD1E36D800063627D4B9C46604409
:100C9000400A864273D301235B422361E3608133C0
:100CA0006371203BE35A012B00D182E00323754A94
:100CB00023701388002601339BB21380E3805FE02A
:100CC00062783A2A00D044E702340C60002B00D14D
:100CD0003FE70B2654E0F9235B00E35C0027002B81
:100CE0000CD0FB235B00E118E25C4B788F781B0291
:100CF0001A43CB783F0417431B061F43624B002562
:100D0000E35C002B0BD0614BE2185178E55C0902E3
:100D100093782943D5781B0419432D060D430022EF
:100D20005B4B9046E35C002B0CD05A4BE0184278AA
:100D3000E15C120283781143C2781B040B43120654
:100D40001A4390460022544B9146E35C002B0CD092
:100D5000524BE0184278E15C120283781143C2786A
:100D60001B040B4312061A439146002F45D1002D58
:100D70004BD14346002B4FD14B46002B0ED10D26B5
:100D8000300003B0F0BCBB46B246A946A046F0BD59
:100D90000026F5E70326F3E70C26F1E74946200095
:100DA000FFF744FE4D46002800D106E70328E7D0B0
:100DB000E5E72000691CFFF779FE002800D075E701
:100DC00043466371364BE25A364B9A4200D06DE788
:100DD000354B226B9A4200D068E785229200334B54
:100DE000A2589A4200D061E7862387229B00920096
:100DF000E358A2582361E26058E739002000FFF76A
:100E000015FE0028B3D13D00D7E629002000FFF7EA
:100E10000DFE0028ADD1D0E641462000FFF706FECA
:100E200045460028A8D1C8E60126A9E75B46414609
:100E3000EB18821CE561554462612362A5620029BA
:100E40009DD0019950008C46634463620123801851
:100E500040081A4080180A4A94466044400A864274
:100E600000D28CE7012252422261E260813262713B
:100E70001DE7C04628080020F50F0000F5FF000020
:100E8000FF0100006E760220020200000602000050
:100E900012020000160200002202000026020000DA
:100EA0002E02000055AA0000525261417272416147
:100EB0005B464246EB180230E561554460612362AF
:100EC000A562002A00D15AE7019A40009446634483
:100ED00063620223BFE7C046F0B5C6460778040048
:100EE0000D0000B5022F08D0032F3FD0012F17D0DF
:100EF0000120404280BCB846F0BD036A090A9C4606
:100F00006144FFF7D3FD0028F2D1FF216D004900B5
:100F10000D4064193034637820781B021843E9E7E8
:100F2000036A4E089C467618710A6144FFF7BEFDBD
:100F30000028DDD1F305DB0DE31830331B780136D3
:100F40009846236A710A9C4620006144FFF7AEFD73
:100F50000028CDD14346F605F60DA419303420788B
:100F6000000218432F421FD00009C3E7036AC909D2
:100F70009C466144FFF79AFD0028B9D1FE21AD00DF
:100F800049000D402B003033E318D8789A78641963
:100F900012040006303410435B7822781B021043A1
:100FA000184300010009A5E70005000DA2E7C046AF
:100FB000F8B54E46DE46574645469B468468C368AC
:100FC000E0B51B1B06000F009946934200D99146DD
:100FD0004B46002B00D190E02200D305DD0D002B05
:100FE00041D13368500A99784C1E0440E4B2002C79
:100FF00000D184E070695A690238023A904200D305
:101000008CE0996A9A788C4650436044002800D15D
:1010100084E080468021A0448900894500D386E091
:10102000B26990451AD035004024B17928350C4278
:101030000BD0587829000123FFF746FA002800D08A
:10104000A0E0B379A343B3713368587842460123D3
:101050002900FFF71FFA002800D093E04346B36150
:10106000B368DD05ED0D80239B00591B494500D970
:10107000494602242B00A4462933F3180634FB1AF0
:101080009C459B41A446481E2A008445A441283221
:101090005B426442B2181C4200D177E03B0013432C
:1010A0009B0700D072E000238C08A400D558FD50A7
:1010B0000433A342FAD103230C009C4323001219EA
:1010C000C01A3C198B4209D013782370002805D030
:1010D00053786370012801D09378A370B3685846A1
:1010E000CA185B461B68B2605B1803604B465B1A0C
:1010F00099467F18002B00D06FE7002011E0002AEE
:1011000032D13069012809D9431C3BD03368706162
:101110005A690238023A904200D272E70223022052
:10112000F371F0BCBB46B246A946A046F8BD49469D
:10113000490A8A4661188A4201D2121B92465246D7
:10114000D2B25878390013004246FFF7A3F90028BD
:1011500018D1B3795B0604D54246B3699B1A9A4508
:1011600030D853465902B9E7726A9246002A14D120
:1011700071690129D2D95A699142CFD21800FFF77B
:10118000ABFEBFE701230120F371CAE70023D05C67
:10119000F85401339942FAD1A0E704235344984606
:1011A00008F018FF53465B68002BB7D0424604E0B6
:1011B0000832C01A1368002BB0D09842F8D2536896
:1011C000C0189FE73100320002205B02FB18293172
:1011D0002832591A88420BD219001143890707D1C6
:1011E000515959518021043589008D42F8D1B8E711
:1011F000515D59558021013589008D42F8D1B0E704
:10120000F8B54746CE46067804000D00904680B5F6
:10121000022E0BD0032E45D00227012E1AD0012317
:1012200038002371C0BCB946B046F8BD036A090A4C
:101230009C466144FFF73AFC071EF0D16B00FF2586
:1012400042466D002B40E31830331A7092B2120AF6
:101250005A70E4E74B08994689444B46590A036A99
:101260009C466144FFF722FC071ED8D14B46DB05A4
:10127000DB0DE31830332E4233D00F2219784D4660
:101280001140424612010A431A70236A01359C46F6
:10129000690A200026716144FFF708FC00283DD050
:1012A0000700BCE7036AC9099C466144FFF7FEFBDF
:1012B000071EB4D1FE21AD0049000D402B00414670
:1012C0003033E318DA786519120912070A4391B22C
:1012D000090A30352A705970110C120E9970DA70A3
:1012E0009DE742461A704D46236A01359C46690ABD
:1012F000200026716144FFF7D9FB0028D0D1ED050D
:10130000ED0D65192B0042460F2130331B78120A70
:101310008B430A401A4330352A7080E74346ED0577
:10132000ED0D1A09D2B26519F5E7C046F8B5037993
:101330000400002B0BD12378032B29D0002200219D
:101340006078FFF7D5F8431E9841C0B2F8BD07009A
:10135000C56A303701232A0039004078FFF7B4F816
:1013600000283AD1226AA3692071AA1A9A42E2D2CD
:10137000E678012E01D8DEE7A369ED182A000123E3
:1013800039006078013EFFF79FF8012EF4D1D2E7D3
:101390006379012BD2D125008022303500219200C3
:1013A000280009F039FE0E4B0E4A2900E2520E4B7E
:1013B0000E4A236385239B00E25022690433E250E6
:1013C000E2680433E250E36960785A1CE262012368
:1013D000FFF77AF800236371B0E70120B6E7C04653
:1013E0002E02000055AAFFFF525261417272416104
:1013F000F0B54E464546DE465746E0B589460500FF
:1014000083B000291ED1C7684369002F34D101374A
:10141000FF2252009346023A3C00924601349C421D
:101420001FD3012F00D891E0022B1CD902242E7863
:10143000022E00D176E0032E57D0012E20D00124B9
:10144000644211E001290ED0436999420BD2FFF7A3
:1014500043FD0400012806D96B69834204D84F4636
:10146000D6E7012CE3D80124200003B0F0BCBB4632
:10147000B246A946A046F0BDBB42C9D80127C7E77E
:1014800063089846A0444346590A2B6A28009C46A4
:101490006144FFF70BFB0028D1D14346DB05DB0D90
:1014A000EB1830331B782800019301239C46E0445D
:1014B0004346590A2B6A9C466144FFF7F7FA002815
:1014C000BDD14146CB05DB0DEB1830331B78019ABB
:1014D0001B02134326423BD01B09002B3BD0012BA0
:1014E000C1D0A74232D06B6998E72B6AE1099C46CC
:1014F00028006144FFF7DAFA0028A0D15346A20081
:101500001A40110030316918CB788878AA18303227
:1015100012781B060004034313434A781202134354
:101520001B01D9E72B6A210A9C4628006144FFF77A
:10153000BDFA002800D082E75B4662001A40AA1874
:1015400030325178137809020B43C6E700248BE749
:101550001B051B0DC1E76B69A34200D883E721007F
:101560002800134AFFF74CFE002803D0012800D1C1
:1015700065E778E74B46002B0DD0012B00D172E7D1
:101580006B69994500D36EE7220049462800FFF7B2
:1015900037FE0028EAD12B69EC605A1C00D163E7C2
:1015A0000122013B2B616B7913436B715CE7C046F1
:1015B000FFFFFF0FF0B557464546DE464E46E0B505
:1015C000856807000C0083B0C180012D26D0066815
:1015D0007369AB4222D9002D57D0B27812019046E0
:1015E000914200D291E0FF22520093469D4215D2D3
:1015F00033789946022B00D195E0032B5AD0012B6A
:1016000014D001200BE0756A002D41D0B278120190
:101610009046914200D278E0012DE4D1022003B03F
:10162000F0BCBB46B246A946A046F0BD6B089A4640
:10163000AA445346590A336A30009C466144FFF776
:1016400035FA0028DDD15346DB05DB0DF3183033C6
:101650001B783000019301239C46E2445346590A0B
:10166000336A9C466144FFF721FA0028C9D15146EC
:10167000CB05DB0DF61830363378019A1B02134385
:101680004A462A4263D01D0932E03278032ABAD092
:101690000023FB603389A342C0D9726A23099446B0
:1016A00063443B610F210C40303664013419002043
:1016B0007C61B4E7336AE9099C4630006144FFF776
:1016C000F5F900289DD1FE22AB00520013401A000C
:1016D0003032B218D5789178F31830331B782D0654
:1016E00009040D431D4353781B021D432D012D0991
:1016F000012D93D93E687369AB4200D88EE742460C
:10170000A41AA4B2444500D370E7FD60023B023D39
:101710009D421FD2B3785D43B36A9C46654423095A
:101720005D193D61BEE7336A290A9C463000614479
:10173000FFF7BCF9002800D063E75B466D001D4051
:1017400076193036737835781B021D43D0E71B05B8
:101750001D0DCDE70025E2E7F8B557464546DE46C4
:101760004E46E0B50B7805008A462F2B53D05C2BF4
:1017700051D000245346AC601B781F2B54D95646D9
:10178000AB6932782F2A01D05C2A01D10136F8E703
:1017900020221A705A709A70DA701A715A719A71FE
:1017A000DA711A725A729A723278202A19D9002183
:1017B0008C460831884602218A4603218B46711ED9
:1017C000894661469C462B000024454601279846E1
:1017D0000B002F2A55D05C2A53D02E2A2AD09D42A6
:1017E00006D80620F0BCBB46B246A946A046F8BDC6
:1017F00051B2002905DA59460C43B449803A8A5C53
:10180000E4B22221B24803E041780130002923D01C
:101810008A42F9D1E5E701239C460024E24453467D
:10182000AC601B781F2BAAD800212800FFF7C2FE4E
:101830006C61D7E7082DD4D108230B25A400E4B2AE
:101840004A460137D25D202AC3D842466346A8469D
:10185000F619150004221DE011004139192906D896
:1018600051460C43E4B26146CA540133E8E7110023
:1018700061391929F7D80121203A0C43E4B2D2B2D8
:10188000F1E742461900A84663461500F6190029FB
:10189000A7D000221978E52901D1E0391970414615
:1018A000082900D105E103212140012901D10F318F
:1018B0000A430C210C40042C01D104390A430021B5
:1018C0002800DA72FFF776FE002800D0F7E02C68D7
:1018D0002F69B0463E0027000823FC6A9A46B442AE
:1018E0000ED0302291463B79B944002B31D10123EF
:1018F000320049467878FEF7CDFD002859D1FE62C6
:101900006A691478002C5FD050465346D17A08405B
:101910000B4261D0EC880134A4B2002C54D02E6963
:10192000002E51D00F23234099460F23234242D04B
:101930002F684B465A013B00EC803033FC6A9B1801
:101940006B61B442DCD0302291463B79B944002B24
:10195000CDD00123220049467878FEF7B5FD002856
:1019600027D13A6ABB693871A21A9A42BFD2FA7873
:101970009346012ABBD931002A004E465D4689466E
:10198000934600E0BB69E418220001233100787817
:10199000013DFEF799FD012DF4D14B46B1461E00E5
:1019A00049460123320078785D46FEF773FD002832
:1019B000A5D0012016E7E96801362F682E610029BD
:1019C00054D13B89A342B4D8AB69DB7A04205B07CE
:1019D00000D507E7052005E7AB691F78A74299D135
:1019E00057785C78A74295D19F789478A74291D197
:1019F000D778DC78A7428DD117791C79A74289D195
:101A000057795C79A74285D197799C79A74200D014
:101A100080E7D779DC79A74200D07BE7177A1C7A78
:101A2000A74200D076E7577A5C7AA74200D071E7E8
:101A3000977A9C7AA74200D06CE7DC7A4646640726
:101A400000D5CFE6C906C5D5D17E907E09020143F7
:101A500028680078032801D0A96092E6147D527DA1
:101A60001202224312041143A9608AE6BB782209BC
:101A7000013B1A4200D05CE7012918D07B699942EA
:101A800015D23800FFF728FA012810D9431C90D04E
:101A90002F687B69984297D2E860023B02389842EF
:101AA0000AD2BB785843BB6AC6182E6141E70220B0
:101AB00098E6A400E4B2FCE600262E6139E7AB69A3
:101AC000DB7A042800D08DE680E7C04674E0001081
:101AD00064E00010F8B54546DE4657464E46436979
:101AE000E0B504000D00994200D398E0012914D913
:101AF000FF2326785B009946023B98460127022E79
:101B000000D175E0032E38D0012E08D00120F0BCA2
:101B1000BB46B246A946A046F8BD0220F7E76B08CF
:101B20009A46AA445346590A236A20009C466144B7
:101B3000FEF7BCFF0028E9D15346DB05DB0DE318B7
:101B400030331B7820009B4601239C46E2445346D9
:101B5000590A236A9C466144FEF7A8FF0028D5D1A4
:101B600053465A46DB05DB0DE31830331B781B0266
:101B700013432E4255D01E091CE0236AE9099C46F6
:101B800020006144FEF792FF0028BFD14246AB001F
:101B900013401A003032A218D6789178E318303307
:101BA0001B78360609040E431E4353781B021E435E
:101BB00036013609002E32D0012EAED06369AB4219
:101BC000ABD9002229002000FFF71AFB00289ED184
:101BD00023695A1C20D00133236163793B4363712D
:101BE00063699E421BD235002678022E00D089E719
:101BF000236A290A9C4620006144FEF757FF00280B
:101C000000D083E74A466B001340E31830335A781C
:101C10001E7812021643CDE76369B342E3D8002071
:101C200075E71E05360DC5E7F0B5DE464E4657464C
:101C30004546E0B5002185B00600FFF7BBFC041E59
:101C40000AD0042800D10724200005B0F0BCBB4610
:101C5000B246A946A046F0BD3369356898460F23C1
:101C60009A46EC6A44450ED02F002B793037002B72
:101C700059D10123424639006878FEF70BFC002851
:101C800042D14346EB6273691B78E52B01D0002BF0
:101C900024D131693068FEF709FF041ED4D1202217
:101CA0000021706909F0B8F97369B269190011432C
:101CB000890700D0F1E0511C591A022900D8ECE044
:101CC0001168196051685960117A1972517A597204
:101CD000927A9A72012233681A71B5E7F488013456
:101CE000A4B2002CAFD033699846002BABD0574636
:101CF00053462740234209D035687B012F003037F7
:101D0000FF18F4807761ACE701249DE701239C462E
:101D1000E0444346F16835683361002928D12B89B6
:101D2000A342EAD88FE70123220039006878FEF742
:101D3000CBFB0028E8D12A6AAB692871A21A9A4223
:101D400097D2EA789146012A93D932002E004D4667
:101D5000914600E0B369E41822000123390070784D
:101D6000013DFEF7B1FB012DF4D135004E4680E771
:101D7000AB782209013B1A42BFD1012921D06B69FE
:101D800099421ED22800FFF7A7F80200019001280F
:101D900017D9431CB8D035686B69984213D2023A00
:101DA0000292023B019AF260029A934200D885E0C7
:101DB000AB785A431300AA6A90469844434633616D
:101DC0009BE7022440E72800F168FFF711FB031EA0
:101DD000019000D137E70128F3D0013394D0356862
:101DE0002B79002B6DD12800802200219200303009
:101DF00009F012F9019B35689A1E6B690292023B49
:101E00009A4200D390E01100A86AAA788046514314
:101E100088444146E962002A3CD000230394BB4633
:101E20004446B14698462F0001233037220039003E
:101E300068782B71FEF748FB002800D064E72A6A17
:101E4000AB692871A21A9A420ED2EE78012E01D8FF
:101E50000AE0AB69E4182200012339006878013EEA
:101E6000FEF732FB012EF4D14B4647461D68013781
:101E7000EB6A5C1CFBB29846AB78EC624345D2D867
:101E80004346A04642465F464E46D31A98466B6983
:101E9000039C023B4246EA6284E71178197051784C
:101EA000597091789970D178D970117919715179E7
:101EB000597191799971D179D97105E700239846C3
:101EC0007CE7EB6A6878984630239B46AB444246F1
:101ED00059462F3BFEF7F8FA002800D014E7424697
:101EE000296AAB692871521A9A421BD2EA78914644
:101EF000012A17D942463100A0462E0014004D4653
:101F0000B9465F468B4600E0B369E418220001231E
:101F100039007078013DFEF7D7FA012DF4D144461F
:101F20004F465E4635685EE70021AA78884670E72E
:101F300000B583B00B1E019000911AD0097830399A
:101F400008290FD910490B68002B01D00020187008
:101F5000019B002B15D000200B601870012A0AD0BD
:101F600003B000BD58783A28ECD102330093002921
:101F7000E8D00B20F4E70022694601A8FEF7D6FD61
:101F8000EEE700200B60EBE728080020F0B547469D
:101F9000CE4680B58DB0040017000191002868D0AE
:101FA00000231E2203603A4001A905A8FEF7BEFDEA
:101FB000051E05D028000DB0C0BCB946B046F0BD26
:101FC0001F233B409846019902AB05A80B93FFF7EE
:101FD000C3FB00280FD10A9E002E00D19BE01C23DA
:101FE0003B420FD01122F37A1A4246D17B0700D42C
:101FF0008DE00825DEE71C233B4201D004283ED0BB
:102000000500D7E7F37ADA0635D4BA0701D5DB073E
:1020100033D4082205983A4003D0424620231A437D
:102020009046C36A2662E3614346A3710023E371CD
:10203000F37EB27E1B0213430278032A05D1727D20
:10204000377D12023A43120413432361717F337FB9
:10205000B27F09021943F37F120411431B060B439D
:10206000E36000232060A360A3616362C388A38050
:10207000A0E709259EE704259CE707259AE705A820
:10208000FFF7D2FD424608231A4390460A9E0028D5
:10209000B6D1FEF757FA83B21B0AF373030C3374FD
:1020A0000023B073000E70740598F77EF3723377D7
:1020B0007377B377F377B27E03783F021743032B2E
:1020C00005D1737D317D1B020B431B041F4300238D
:1020D000B376F3763375737501330371002F9CD09B
:1020E000012F1AD043699F4217D2C36A390099461B
:1020F000FFF7F0FC002883D10598013F4946C760EF
:10210000FEF7D4FC002800D07AE7059885E73B0766
:10211000BFD4059885E706254CE702254AE7C04667
:10212000F8B51D00002304000E0017002B600028E6
:102130001ED00368002B1BD01A78002A18D0828882
:10214000D9880920914200D0F8BD5878FEF7A0F94F
:102150000123034210D1E0790028F5D1A27913427E
:1021600008D02B003A0031002000FEF721FFEBE7FA
:102170000920E9E70720E7E70320E5E7F8B5041EB3
:1021800060D00368002B5DD01A78002A5AD0D98815
:1021900082880925914201D02800F8BD5878FEF7C1
:1021A00077F901231D00054003424DD1A3799A061A
:1021B00045D540261E420CD021002368A2695878DC
:1021C00028310123FEF780F900283FD1A379B343DA
:1021D000A371E1692068FEF769FC071E01D00500C4
:1021E000DAE72022266AF37A1343F372E36833773F
:1021F000A3891B0A7377E389B377E37BF3772369BA
:10220000B3769AB21B0C120A33751B0AF2767375F9
:10221000FEF798F9202283B21B0AB075F375030C00
:10222000000E33767076B774F774A3792068934301
:10223000A37101230371FFF779F8002808D1002367
:102240002360A9E70925A7E70325A5E70125A3E75B
:102250000500A1E730B587B0041E019132D00022FD
:1022600001A902A8FEF762FC002803D00023236026
:1022700007B030BD029B2000236003AB0199A3612E
:10228000FFF76AFA002819D16369002B23D0DA7AA4
:10229000D20615D5DA7E987E02991202024308789A
:1022A000032811D0A260CB8820000021A380FFF773
:1022B00081F9042804D00028DAD0D7E70428D5D142
:1022C0000520D3E70920D3E71D7D5B7D1B022B434F
:1022D0001B041A43E6E70299E5E7C046F0B5454618
:1022E000DE4657464E46E0B587B004000D0001912A
:1022F000002800D1DEE00368002B00D1DAE01A7874
:10230000002A00D1D6E082880920D98883469142EC
:1023100007D0584607B0F0BCBB46B246A946A04617
:10232000F0BD5878FEF7B4F801231A000240934636
:10233000034200D0F3E0002D00D1C1E0266903ABD9
:10234000A361002E00D18AE00F239A462568EF6A28
:10235000B7420ED0302290462B79A844002B34D1BE
:102360000123320041466878FEF794F800285CD1DA
:10237000EE6262691378002B71D0E52B08D02E2B0A
:1023800006D0D37A3F2213400F2B01D0082B68D1FF
:10239000E7880137BFB2002F61D02669002E5ED0DA
:1023A000534652463B403A4273D02568E7802A00A4
:1023B0005B013032EF6AD3186361B742D9D0302263
:1023C00090462B79A844002BCAD001233A004146FD
:1023D0006878FEF779F8002827D12A6AAB69287156
:1023E000BA1A9A42BCD2EA789146012AB8D9424632
:1023F0002100B0464C461600894600E0AB69FF1844
:102400003A00012331006878013CFEF75DF8012CA9
:10241000F4D133004646984632000123414668789D
:102420004C46FEF737F80028A2D001239B46002334
:1024300023616EE7AB783A09013B1A4232D1012998
:102440003BD06B69994238D22800FEF745FD012840
:1024500033D9431CE9D025686B69984262D30023C5
:10246000236120000199FEF75BFAE5880135ADB2E2
:10247000002DDCD02369002BD9D00F2216002E406E
:102480002A4223D02068303076018019E5806061CF
:102490003FE7E1680136256826610029CAD12B890A
:1024A000BB42DCD92B003033E7806361002E00D0C3
:1024B0004DE7D6E709239B462BE702239B46B6E769
:1024C00000212000FFF776F8834622E7E168013318
:1024D00020682361002931D02A0917008378013B45
:1024E0001F401A42CFD1012932D0436999422FD2DD
:1024F000FEF7F2FC030001282AD9421C2BD02068E9
:102500004269934293D2E360023A023B934204D27F
:1025100087785F43836A9C4667442761B3E7032358
:102520009B46F6E6E060023B023898420AD2AB6A6C
:10253000AE789C46464366442661B3E70389AB42C6
:10254000A1D874E7002330352361E780656188E70F
:1025500002239B46DDE601239B46DAE610B5012106
:102560001620FDF7F3FE01210920FDF7EFFE012102
:102570001020FDF7EBFE0D4901220D48FFF7D8FCB6
:102580000C4B011E187003D00B4808F055FF10BD0E
:102590000A4808F0AFFE0A4B0A4A19001431FF310D
:1025A00008C20B338B42FBD1F1E7C0468C07011008
:1025B000441B00207576022090070110C807011007
:1025C00024160020781D0020F0B54546DE4657460B
:1025D0004E460023E0B53D4C8DB003902000884668
:1025E000049301F07FFF3A4D05A82900FFF732FE62
:1025F00000280AD01F2300940193364B0D285FD08A
:1026000030210020344A02F06DFD344C28002100B6
:10261000FEF7DCF8071E34D0314B012599462D4BCF
:10262000304E9A46304B9B4615E001283AD0404642
:1026300000F082F81F230193244B5A460093502147
:102640005346002002F04EFD6B1C9F4219D3043408
:10265000AF4216D01D0049463000226807F01CFC2E
:10266000300004A9FEF7A0F80028DED1039800F09E
:1026700063F8320000210020FDF766FF6B1C9F42CB
:10268000E5D2124801F02EFF404600F055F8012136
:102690001620FDF75BFE0DB0F0BCBB46B246A94666
:1026A000A046F0BD404600F047F81F230193074BBA
:1026B00040210093002053460C4A02F013FDC3E76B
:1026C000202100200A4A02F00DFD9EE7FFFF0000D6
:1026D0008C0701100004002008080110781D00205C
:1026E00058E0001034760220300801101C08011058
:1026F000F007011010B50F4B04001B7801210820D2
:10270000522B10D0FDF722FE09200021FDF71EFEFE
:10271000200AFDF781FEE0B2FDF77EFE01210920CF
:10272000FDF714FE10BDFDF711FE00210920FDF795
:102730000DFEF0E70804002070B5254C2378522BDD
:1027400000D070BD431EDBB20025062B31D9214BD2
:102750001871032829D9A022F0215200598008209D
:1027600000211A80FDF7F2FD00210920FDF7EEFDA2
:102770003620FDF751FE01210920FDF7E7FD237802
:1027800001210820522B1CD0FDF7E0FD092000217B
:10279000FDF7DCFD0020FDF73FFE2800FDF73CFEC5
:1027A00001210920FDF7D2FDCBE7A021F02249004D
:1027B000D4E7094A5B00D55C064B18710328F4D9AD
:1027C000C9E7FDF7C3FD00210920FDF7BFFDE4E7E0
:1027D00008040020F47502204C08011070B5012196
:1027E00082B005000F20FDF7B1FDFA204000FDF793
:1027F00035FE00210F20FDF7A9FDFA204000FDF76E
:102800002DFE01210F20FDF7A1FDFA204000FDF76C
:1028100025FE6B469E1D0023002109203370FDF725
:1028200095FD00210820FDF791FDDC20FDF7F4FD6A
:102830006B46DC1D220001233100F4480BF0FCFB49
:1028400001210920FDF782FD2378F14C00210820A9
:102850002370522B01D100F000FCFDF777FD002121
:102860000920FDF773FD2120FDF7D6FD0121092088
:10287000FDF76CFD00210820FDF768FD002109200F
:10288000FDF764FDC220FDF7C7FD01210920FDF71A
:102890005DFD237801210820522B00D1D6E3FDF7FE
:1028A00055FD09200021FDF751FD0020FDF7B4FD85
:1028B0003320FDF7B1FD01210920FDF747FD00217F
:1028C0000820FDF743FD00210920FDF73FFDC5204D
:1028D000FDF7A2FD01210920FDF738FD2378012134
:1028E0000820522B01D101F0E1F9FDF72FFD09205D
:1028F0000021FDF72BFD0020FDF78EFD0020FDF7E8
:102900008BFD01210920FDF721FD237801210820FD
:10291000522B01D101F0C2F9FDF718FD0920002169
:10292000FDF714FD0020FDF777FD1E20FDF774FD77
:1029300001210920FDF70AFD237801210820522BEF
:1029400001D101F0A3F9FDF701FD09200021FDF7F8
:10295000FDFC0020FDF760FD8020FDF75DFD0121FD
:102960000920FDF7F3FC00210820FDF7EFFC002112
:102970000920FDF7EBFCB120FDF74EFD01210920F8
:10298000FDF7E4FC237801210820522B01D101F04E
:1029900075F9FDF7DBFC09200021FDF7D7FC0020CD
:1029A000FDF73AFDB020FDF737FD01210920FDF7C5
:1029B000CDFC00210820FDF7C9FC00210920FDF70E
:1029C000C5FC3620FDF728FD01210920FDF7BEFCDE
:1029D000237801210820522B01D101F047F9FDF79E
:1029E000B5FC09200021FDF7B1FC0020FDF714FD26
:1029F0002820FDF711FD01210920FDF7A7FC00218A
:102A00000820FDF7A3FC00210920FDF79FFCE02032
:102A1000FDF702FD01210920FDF798FC2378012133
:102A20000820522B01D101F019F9FDF78FFC092084
:102A30000021FDF78BFC0020FDF7EEFC0020FDF7E8
:102A4000EBFC01210920FDF781FC237801210820FE
:102A5000522B01D101F0FAF8FDF778FC0920002192
:102A6000FDF774FC0020FDF7D7FC1320FDF7D4FC24
:102A700001210920FDF76AFC237801210820522B4F
:102A800001D101F0DBF8FDF761FC09200021FDF721
:102A90005DFC0020FDF7C0FC1820FDF7BDFC012106
:102AA0000920FDF753FC237801210820522B01D186
:102AB00001F0BCF8FDF74AFC09200021FDF746FCB7
:102AC0000020FDF7A9FC0420FDF7A6FC0121092048
:102AD000FDF73CFC237801210820522B01D101F0A5
:102AE0009DF8FDF733FC09200021FDF72FFC0020A5
:102AF000FDF792FC0F20FDF78FFC01210920FDF767
:102B000025FC237801210820522B01D101F07EF809
:102B1000FDF71CFC09200021FDF718FC0020FDF743
:102B20007BFC0620FDF778FC01210920FDF70EFC57
:102B3000237801210820522B01D101F05FF8FDF725
:102B400005FC09200021FDF701FC0020FDF764FCD5
:102B50003A20FDF761FC01210920FDF7F7FB2378FE
:102B600001210820522B01D101F040F8FDF7EEFBC6
:102B700009200021FDF7EAFB0020FDF74DFC56205F
:102B8000FDF74AFC01210920FDF7E0FB2378012134
:102B90000820522B01D101F021F8FDF7D7FB0920C5
:102BA0000021FDF7D3FB0020FDF736FC4D20FDF79B
:102BB00033FC01210920FDF7C9FB237801210820FE
:102BC000522B01D101F002F8FDF7C0FB09200021D2
:102BD000FDF7BCFB0020FDF71FFC0320FDF71CFCEC
:102BE00001210920FDF7B2FB237801210820522B97
:102BF00001D100F0E3FFFDF7A9FB09200021FDF75B
:102C0000A5FB0020FDF708FC04E0C04600000440DE
:102C1000080400200A20FDF7FFFB01210920FDF731
:102C200095FB237801210820522B01D100F0BEFF33
:102C3000FDF78CFB09200021FDF788FB0020FDF744
:102C4000EBFB0620FDF7E8FB01210920FDF77EFBE9
:102C5000237801210820522B01D100F09FFFFDF7BE
:102C600075FB09200021FDF771FB0020FDF7D4FB67
:102C70003020FDF7D1FB01210920FDF767FB237808
:102C800001210820522B01D100F080FFFDF75EFBEF
:102C900009200021FDF75AFB0020FDF7BDFB3E2077
:102CA000FDF7BAFB01210920FDF750FB2378012134
:102CB0000820522B01D100F061FFFDF747FB0920EE
:102CC0000021FDF743FB0020FDF7A6FB0F20FDF7D9
:102CD000A3FB01210920FDF739FB00210820FDF7A6
:102CE00035FB00210920FDF731FBE120FDF794FBC6
:102CF00001210920FDF72AFB237801210820522B0E
:102D000001D100F033FFFDF721FB09200021FDF781
:102D10001DFB0020FDF780FB0020FDF77DFB01215E
:102D20000920FDF713FB237801210820522B01D144
:102D300000F014FFFDF70AFB09200021FDF706FB58
:102D40000020FDF769FB1320FDF766FB0121092038
:102D5000FDF7FCFA237801210820522B01D100F065
:102D6000F5FEFDF7F3FA09200021FDF7EFFA002048
:102D7000FDF752FB1820FDF74FFB01210920FDF75D
:102D8000E5FA237801210820522B01D100F0D6FE6C
:102D9000FDF7DCFA09200021FDF7D8FA0020FDF745
:102DA0003BFB0120FDF738FB01210920FDF7CEFA9E
:102DB000237801210820522B01D100F0B7FEFDF746
:102DC000C5FA09200021FDF7C1FA0020FDF724FB18
:102DD0001120FDF721FB01210920FDF7B7FA237827
:102DE00001210820522B01D100F098FEFDF7AEFA28
:102DF00009200021FDF7AAFA0020FDF70DFB0620AF
:102E0000FDF70AFB01210920FDF7A0FA2378012133
:102E10000820522B01D100F079FEFDF797FA092026
:102E20000021FDF793FA0020FDF7F6FA3820FDF7B0
:102E3000F3FA01210920FDF789FA237801210820FE
:102E4000522B01D100F05AFEFDF780FA0920002133
:102E5000FDF77CFA0020FDF7DFFA3420FDF7DCFAFD
:102E600001210920FDF772FA237801210820522B55
:102E700001D100F03BFEFDF769FA09200021FDF7C2
:102E800065FA0020FDF7C8FA4D20FDF7C5FA0121CB
:102E90000920FDF75BFA237801210820522B01D18C
:102EA00000F01CFEFDF752FA09200021FDF74EFA52
:102EB0000020FDF7B1FA0620FDF7AEFA0121092046
:102EC000FDF744FA237801210820522B01D100F0AC
:102ED000FDFDFDF73BFA09200021FDF737FA002040
:102EE000FDF79AFA0D20FDF797FA01210920FDF769
:102EF0002DFA237801210820522B01D100F0DEFDAC
:102F0000FDF724FA09200021FDF720FA0020FDF743
:102F100083FA0B20FDF780FA01210920FDF716FA4C
:102F2000237801210820522B01D100F0BFFDFDF7CD
:102F30000DFA09200021FDF709FA0020FDF76CFACF
:102F40003120FDF769FA01210920FDF7FFF9237807
:102F500001210820522B01D100F0A0FDFDF7F6F968
:102F600009200021FDF7F2F90020FDF755FA37207E
:102F7000FDF752FA01210920FDF7E8F92378012134
:102F80000820522B01D100F081FDFDF7DFF9092067
:102F90000021FDF7DBF90020FDF73EFA0F20FDF7D9
:102FA0003BFA01210920FDF7D1F900210820FDF7A6
:102FB000CDF900210920FDF7C9F93A20FDF72CFAD7
:102FC00001210920FDF7C2F9237801210820522BA5
:102FD00001D100F053FDFDF7B9F909200021FDF7FB
:102FE000B5F90020FDF718FA5520FDF715FA012173
:102FF0000920FDF7ABF900210820FDF7A7F9002112
:103000000920FDF7A3F91120FDF706FA0920012197
:10301000FDF79CF97820FDF721FA00210820FDF743
:1030200095F900210920FDF791F92920FDF7F4F920
:1030300001210920FDF78AF92378522B01D100F0F4
:10304000E6FCC820FDF70AFA02B070BDFDF77EF974
:1030500000210920FDF77AF92AE4FDF777F900212C
:103060000920FDF773F91120FDF7D6F90121092098
:10307000FDF76CF96420FDF7F1F900210820FDF758
:1030800065F900210920FDF761F93620FDF7C4F943
:1030900001210920FDF75AF9237801210820522B3C
:1030A00001D100F06EFFFDF751F909200021FDF775
:1030B0004DF90020FDF7B0F90020FDF7ADF9012131
:1030C0000920FDF743F900210820FDF73FF9002111
:1030D0000920FDF73BF93A20FDF79EF9012109206F
:1030E000FDF734F9237801210820522B01D100F09B
:1030F00040FFFDF72BF909200021FDF727F90020FB
:10310000FDF78AF95520FDF787F901210920FDF720
:103110001DF900210820FDF719F900210920FDF70C
:1031200015F9B220FDF778F901210920FDF70EF914
:10313000237801210820522B01D100F012FFFDF766
:1031400005F909200021FDF701F90020FDF764F9D8
:103150000C20FDF761F901210920FDF7F7F823782C
:1031600001210820522B01D100F0F3FEFDF7EEF80B
:1031700009200021FDF7EAF80020FDF74DF90C20A9
:10318000FDF74AF901210920FDF7E0F82378012134
:103190000820522B01D100F0D4FEFDF7D7F809200A
:1031A0000021FDF7D3F80020FDF736F90020FDF7E8
:1031B00033F901210920FDF7C9F8237801210820FE
:1031C000522B01D100F0B5FEFDF7C0F80920002117
:1031D000FDF7BCF80020FDF71FF93320FDF71CF9BF
:1031E00001210920FDF7B2F8237801210820522B94
:1031F00001D100F096FEFDF7A9F809200021FDF7A6
:10320000A5F80020FDF708F93320FDF705F90121A5
:103210000920FDF79BF800210820FDF797F8002111
:103220000920FDF793F8B720FDF7F6F801210920F2
:10323000FDF78CF8237801210820522B01D100F0F2
:1032400068FEFDF783F809200021FDF77FF80020D4
:10325000FDF7E2F83520FDF7DFF801210920FDF741
:1032600075F800210820FDF771F800210920FDF70D
:103270006DF8BB20FDF7D0F801210920FDF766F8B5
:10328000237801210820522B01D100F03AFEFDF7EE
:103290005DF809200021FDF759F80020FDF7BCF882
:1032A0002820FDF7B9F801210920FDF74FF800218A
:1032B0000820FDF74BF800210920FDF747F8C02052
:1032C000FDF7AAF801210920FDF740F82378012134
:1032D0000820522B01D100F00CFEFDF737F8092031
:1032E0000021FDF733F80020FDF796F83C20FDF7AC
:1032F00093F801210920FDF729F800210820FDF7A6
:1033000025F800210920FDF721F8C220FDF784F8F7
:1033100001210920FDF71AF8237801210820522BFA
:1033200001D100F0DEFDFDF711F809200021FDF7C5
:103330000DF80020FDF770F80120FDF76DF8012170
:103340000920FDF703F800210820FCF7FFFF00210A
:103350000920FCF7FBFFC320FDF75EF801210920DF
:10336000FCF7F4FF237801210820522B01D100F053
:10337000B0FDFCF7EBFF09200021FCF7E7FF002080
:10338000FDF74AF80B20FDF747F801210920FCF76B
:10339000DDFF00210820FCF7D9FF00210920FCF700
:1033A000D5FFC420FDF738F801210920FCF7CEFF36
:1033B000237801210820522B01D100F082FDFCF777
:1033C000C5FF09200021FCF7C1FF0020FDF724F80C
:1033D0002020FDF721F801210920FCF7B7FF00218B
:1033E0000820FCF7B3FF00210920FCF7AFFFC6203F
:1033F000FDF712F801210920FCF7A8FF237801212D
:103400000820522B01D100F054FDFCF79FFF09204A
:103410000021FCF79BFF0020FCF7FEFF0F20FCF7CC
:10342000FBFF01210920FCF791FF00210820FCF798
:103430008DFF00210920FCF789FFD020FCF7ECFF6D
:1034400001210920FCF782FF237801210820522B5B
:1034500001D100F026FDFCF779FF09200021FCF7DF
:1034600075FF0020FCF7D8FFA420FCF7D5FF012151
:103470000920FCF76BFF237801210820522B01D192
:1034800000F007FDFCF762FF09200021FCF75EFF5A
:103490000020FCF7C1FFA120FCF7BEFF012109209D
:1034A000FCF754FF00210820FCF750FF0021092001
:1034B000FCF74CFFE020FCF7AFFF01210920FCF7EF
:1034C00045FF237801210820522B01D100F0D9FCBF
:1034D000FCF73CFF09200021FCF738FF0020FCF737
:1034E0009BFFD020FCF798FF01210920FCF72EFF5D
:1034F000237801210820522B01D100F0BAFCFCF7FF
:1035000025FF09200021FCF721FF0020FCF784FFA4
:103510000120FCF781FF01210920FCF717FF237828
:1035200001210820522B01D100F09BFCFCF70EFF7B
:1035300009200021FCF70AFF0020FCF76DFF08209E
:10354000FCF76AFF01210920FCF700FF2378012125
:103550000820522B01D100F07CFCFCF7F7FE09207B
:103560000021FCF7F3FE0020FCF756FF0F20FCF7CC
:1035700053FF01210920FCF7E9FE237801210820EF
:10358000522B01D100F05DFCFCF7E0FE0920002188
:10359000FCF7DCFE0020FCF73FFF1120FCF73CFFAE
:1035A00001210920FCF7D2FE237801210820522BAB
:1035B00001D100F03EFCFCF7C9FE09200021FCF718
:1035C000C5FE0020FCF728FF2A20FCF725FF01217B
:1035D0000920FCF7BBFE237801210820522B01D1E2
:1035E00000F01FFCFCF7B2FE09200021FCF7AEFE44
:1035F0000020FCF711FF3620FCF70EFF0121092007
:10360000FCF7A4FE237801210820522B01D100F001
:1036100000FCFCF79BFE09200021FCF797FE002030
:10362000FCF7FAFE5520FCF7F7FE01210920FCF714
:103630008DFE237801210820522B00D1E2E3FCF714
:1036400085FE09200021FCF781FE0020FCF7E4FE46
:103650004420FCF7E1FE01210920FCF777FE2378E6
:1036600001210820522B00D1C5E3FCF76FFE092091
:103670000021FCF76BFE0020FCF7CEFE3A20FCF7A1
:10368000CBFE01210920FCF761FE237801210820EF
:10369000522B00D1A8E3FCF759FE09200021FCF7CA
:1036A00055FE0020FCF7B8FE0B20FCF7B5FE01210B
:1036B0000920FCF74BFE237801210820522B00D172
:1036C00086E3FCF743FE09200021FCF73FFE0020C3
:1036D000FCF7A2FE0620FCF79FFE01210920FCF763
:1036E00035FE237801210820522B00D169E3FCF735
:1036F0002DFE09200021FCF729FE0020FCF78CFE9E
:103700001120FCF789FE01210920FCF71FFE237818
:1037100001210820522B00D14CE3FCF717FE0920B1
:103720000021FCF713FE0020FCF776FE2020FCF7BA
:1037300073FE01210920FCF709FE00210820FCF797
:1037400005FE00210920FCF701FEE120FCF764FEE4
:1037500001210920FCF7FAFD237801210820522BD2
:1037600000D120E3FCF7F2FD09200021FCF7EEFD7B
:103770000020FCF751FED020FCF74EFE012109206D
:10378000FCF7E4FD237801210820522B00D103E34C
:10379000FCF7DCFD09200021FCF7D8FD0020FCF738
:1037A0003BFE0220FCF738FE01210920FCF7CEFD8C
:1037B000237801210820522B00D1E6E2FCF7C6FD58
:1037C00009200021FCF7C2FD0020FCF725FE0720A0
:1037D000FCF722FE01210920FCF7B8FD2378012126
:1037E0000820522B00D1C9E2FCF7B0FD09200021CE
:1037F000FCF7ACFD0020FCF70FFE0A20FCF70CFEE6
:1038000001210920FCF7A2FD237801210820522B79
:1038100000D1ACE2FCF79AFD09200021FCF796FDEF
:103820000020FCF7F9FD0B20FCF7F6FD0121092033
:10383000FCF78CFD237801210820522B00D18FE268
:10384000FCF784FD09200021FCF780FD0020FCF737
:10385000E3FD1820FCF7E0FD01210920FCF776FDCF
:10386000237801210820522B00D172E2FCF76EFD73
:1038700009200021FCF76AFD0020FCF7CDFD342073
:10388000FCF7CAFD01210920FCF760FD2378012126
:103890000820522B00D155E2FCF758FD09200021E9
:1038A000FCF754FD0020FCF7B7FD4320FCF7B4FD06
:1038B00001210920FCF74AFD237801210820522B21
:1038C00000D138E2FCF742FD09200021FCF73EFD63
:1038D0000020FCF7A1FD4A20FCF79EFD01210920F4
:1038E000FCF734FD237801210820522B00D11BE284
:1038F000FCF72CFD09200021FCF728FD0020FCF737
:103900008BFD2B20FCF788FD01210920FCF71EFD13
:10391000237801210820522B00D1FEE1FCF716FD8F
:1039200009200021FCF712FD0020FCF775FD1B208B
:10393000FCF772FD01210920FCF708FD2378012125
:103940000820522B00D1E1E1FCF700FD0920002105
:10395000FCF7FCFC0020FCF75FFD1C20FCF75CFD85
:1039600001210920FCF7F2FC237801210820522BC9
:1039700000D1C4E1FCF7EAFC09200021FCF7E6FCD9
:103980000020FCF749FD2220FCF746FD012109201B
:10399000FCF7DCFC237801210820522B00D1A7E1A1
:1039A000FCF7D4FC09200021FCF7D0FC0020FCF738
:1039B00033FD1F20FCF730FD01210920FCF7C6FC78
:1039C00000210820FCF7C2FC00210920FCF7BEFC06
:1039D0005520FCF721FD01210920FCF7B7FC2378D5
:1039E00001210820522B00D17BE1FCF7AFFC09201C
:1039F0000021FCF7ABFC0020FCF70EFDB020FCF72B
:103A00000BFD01210920FCF7A1FCFFF706FB6B1E53
:103A1000DBB20026062B00D854E1F14B1D71032DBB
:103A200000D84BE1A022F02152005980082000214B
:103A30001A80FCF78BFC00210920FCF787FC36205C
:103A4000FCF7EAFC01210920FCF780FC2378012126
:103A50000820522B00D13DE1FCF778FC0920002121
:103A6000FCF774FC0020FCF7D7FC3000FCF7D4FC1A
:103A700001210920FCF76AFCFFF7E3FAFCF766FC7A
:103A800000210920FCF762FCFFF7AEFAFCF75EFCB0
:103A900000210920FCF75AFCFFF780FAFCF756FCDE
:103AA00000210920FCF752FCFFF761FAFCF74EFCFD
:103AB00000210920FCF74AFCFFF742FAFCF746FC1C
:103AC00000210920FCF742FCFFF723FAFCF73EFC3B
:103AD00000210920FCF73AFCFFF704FAFCF736FC5A
:103AE00000210920FCF732FCFFF7E5F9FCF72EFC7A
:103AF00000210920FCF72AFCFFF7C6F9FCF726FC99
:103B000000210920FCF722FCFFF7A7F9FCF71EFCB7
:103B100000210920FCF71AFCFFF788F9FCF716FCD6
:103B200000210920FCF712FCFFF769F9FCF70EFCF5
:103B300000210920FCF70AFCFFF74AF9FCF706FC14
:103B400000210920FCF702FCFFF72BF9FCF7FEFB34
:103B500000210920FCF7FAFBFFF70CF9FCF7F6FB54
:103B600000210920FCF7F2FBFFF7EDF8FCF7EEFB74
:103B700000210920FCF7EAFBFFF7CEF8FCF7E6FB93
:103B800000210920FCF7E2FBFFF7A0F8FCF7DEFBC1
:103B900000210920FCF7DAFBFFF781F8FCF7D6FBE0
:103BA00000210920FCF7D2FBFFF762F8FCF7CEFBFF
:103BB00000210920FCF7CAFBFFF743F8FCF7C6FB1E
:103BC00000210920FCF7C2FBFFF724F8FCF7BEFB3D
:103BD00000210920FCF7BAFBFEF7FFFFFCF7B6FB5C
:103BE00000210920FCF7B2FBFEF7E0FFFCF7AEFB7B
:103BF00000210920FCF7AAFBFEF7C1FFFCF7A6FB9A
:103C000000210920FCF7A2FBFEF7A2FFFCF79EFBB8
:103C100000210920FCF79AFBFEF783FFFCF796FBD7
:103C200000210920FCF792FBFEF764FFFCF78EFBF6
:103C300000210920FCF78AFBFEF745FFFCF786FB15
:103C400000210920FCF782FBFEF726FFFCF77EFB34
:103C500000210920FCF77AFBFEF707FFFCF776FB53
:103C600000210920FCF772FBFEF7E8FEFCF76EFB73
:103C700000210920FCF76AFBFEF7BAFEFCF766FBA1
:103C800000210920FCF762FBFEF78CFEFCF75EFBCF
:103C900000210920FCF75AFBFEF75EFEFCF756FBFD
:103CA00000210920FCF752FBFEF73FFEFCF74EFB1C
:103CB00000210920FCF74AFBFEF720FEA021F0229C
:103CC0004900B2E6474A5B00D65C454B1D71032DA7
:103CD000F4D9A7E6FCF73AFB00210920FCF736FBF4
:103CE000C3E6FCF733FB00210920FCF72FFB85E638
:103CF000FCF72CFB00210920FCF728FB59E6FCF718
:103D000025FB00210920FCF721FB3CE6FCF71EFB0C
:103D100000210920FCF71AFB1FE6FCF717FB002126
:103D20000920FCF713FB02E6FCF710FB0021092039
:103D3000FCF70CFBE5E5FCF709FB00210920FCF78B
:103D400005FBC8E5FCF702FB00210920FCF7FEFAA1
:103D5000ABE5FCF7FBFA00210920FCF7F7FA8EE54A
:103D6000FCF7F4FA00210920FCF7F0FA71E5FCF702
:103D7000EDFA00210920FCF7E9FA54E5FCF7E6FA30
:103D800000210920FCF7E2FA37E5FCF7DFFA002111
:103D90000920FCF7DBFA1AE5FCF7D8FA0021092024
:103DA000FCF7D4FAFDE4FCF7D1FA00210920FCF776
:103DB000CDFAE0E4FCF7CAFA00210920FCF7C6FAC4
:103DC000B4E4FCF7C3FA00210920FCF7BFFA97E43A
:103DD000FCF7BCFA00210920FCF7B8FA7AE4C046E7
:103DE000F47502204C080110FCF7B0FA00210920FC
:103DF000FCF7ACFA58E4FCF7A9FA00210920FCF71B
:103E0000A5FA3BE4FCF7A2FA00210920FCF79EFA90
:103E10001EE4FCF79BFA00210920FCF797FAFFF754
:103E200001FCFCF793FA00210920FCF78FFAFFF759
:103E3000E2FBFCF78BFA00210920FCF787FAFFF779
:103E4000C3FBFCF783FA00210920FCF77FFAFFF798
:103E5000A4FBFCF77BFA00210920FCF777FAFFF7B7
:103E600085FBFCF773FA00210920FCF76FFAFFF7D6
:103E700066FBFCF76BFA00210920FCF767FAFFF7F5
:103E800047FBFCF763FA00210920FCF75FFAFFF714
:103E900028FBFCF75BFA00210920FCF757FAFFF733
:103EA000FAFAFCF753FA00210920FCF74FFAFFF762
:103EB000DBFAFCF74BFA00210920FCF747FAFFF781
:103EC000ADFAFCF743FA00210920FCF73FFAFFF7AF
:103ED0007FFAFCF73BFA00210920FCF737FAFFF7DD
:103EE00051FAFCF733FA00210920FCF72FFAFFF70B
:103EF00023FAFCF72BFA00210920FCF727FAFFF739
:103F0000F5F9FCF723FA00210920FCF71FFAFFF767
:103F1000C7F9FCF71BFA00210920FCF717FAFFF795
:103F200099F9FCF713FA00210920FCF70FFAFFF7C3
:103F30006BF9FCF70BFA00210920FCF707FAFFF7F1
:103F40004CF9FCF703FA00210920FCF7FFF9FFF711
:103F50002DF9FCF7FBF900210920FCF7F7F9FFF731
:103F60000EF9FCF7F3F900210920FCF7EFF9FFF750
:103F7000EFF8FCF7EBF900210920FCF7E7F9FFF770
:103F8000C1F8FCF7E3F900210920FCF7DFF9FFF79E
:103F900093F8C046F8B5CE464746804680B508201F
:103FA0000F0000211C001500FCF7D0F900210920AA
:103FB000FCF7CCF92A20FCF72FFA01210920FCF7A5
:103FC000C5F943468A4E1B0A9946337801210820D9
:103FD000522B00D1D4E0FCF7B9F909200021FCF7FD
:103FE000B5F90020FCF718FA4B46D8B2FCF714FAE2
:103FF00001210920FCF7AAF9337801210820522B6E
:1040000000D1EEE0FCF7A2F909200021FCF79EF9AF
:104010000020FCF701FA4346D8B2FCF7FDF9013D58
:1040200001210920FCF792F92B12984633780121DF
:104030000820522B00D1CDE0FCF788F9092000219F
:10404000FCF784F94346180EFCF7E6F94346D8B26C
:10405000FCF7E2F901210920FCF778F93378012116
:104060000820ADB2522B00D1ADE0FCF76FF909206A
:104070000021FCF76BF90020FCF7CEF9E8B2FCF761
:10408000CBF901210920FCF761F900210820FCF798
:104090005DF900210920FCF759F92B20FCF7BCF948
:1040A00001210920FCF752F93378012108203D0A4B
:1040B000522B00D180E0FCF749F909200021FCF7E0
:1040C00045F90020FCF7A8F9E8B2FCF7A5F90121B1
:1040D0000920FCF73BF9337801210820522B64D0EA
:1040E000FCF734F909200021FCF730F90020FCF737
:1040F00093F9F8B2FCF790F901210920FCF726F9B1
:104100003378013C012108202512522B46D0FCF7C0
:104110001DF909200021FCF719F9280EFCF77CF99C
:10412000E8B2FCF779F901210920FCF70FF933789F
:1041300001210820A4B2522B29D0FCF707F909204D
:104140000021FCF703F90020FCF766F9E0B2FCF768
:1041500063F901210920FCF7F9F800210820FCF798
:10416000F5F800210920FCF7F1F82C20FCF754F9B0
:1041700001210920FCF7EAF8C0BCB946B046F8BDF9
:10418000FCF7E4F800210920FCF7E0F82CE7FCF745
:10419000DDF800210920FCF7D9F8D7E7FCF7D6F8BD
:1041A00000210920FCF7D2F8BAE7FCF7CFF800218C
:1041B0000920FCF7CBF89CE7FCF7C8F800210920A0
:1041C000FCF7C4F880E7FCF7C1F800210920FCF7F0
:1041D000BDF853E7FCF7BAF800210920FCF7B6F860
:1041E00034E7FCF7B3F800210920FCF7AFF812E739
:1041F00008040020F8B505000C0008200021FCF799
:10420000A5F800210920FCF7A1F82A20FCF704F901
:1042100001210920FCF79AF8864E01213378082005
:104220002F0A522B00D1CCE0FCF790F80920002196
:10423000FCF78CF80020FCF7EFF8F8B2FCF7ECF88C
:1042400001210920FCF782F8337801210820522B44
:1042500000D1E7E0FCF77AF809200021FCF776F8B6
:104260000020FCF7D9F8E8B2FCF7D6F801210920C4
:10427000FCF76CF83378013D012108202F12522BF6
:1042800000D1C8E0FCF762F809200021FCF75EF8D5
:10429000380EFCF7C1F8F8B2FCF7BEF8012109208E
:1042A000FCF754F8337801210820ADB2522B00D12D
:1042B000AAE0FCF74BF809200021FCF747F80020A2
:1042C000FCF7AAF8E8B2FCF7A7F801210920FCF7EF
:1042D0003DF800210820FCF739F800210920FCF7FF
:1042E00035F82B20FCF798F801210920FCF72EF86F
:1042F000337801210820250A522B00D17DE0FCF7FC
:1043000025F809200021FCF721F80020FCF784F8AB
:10431000E8B2FCF781F801210920FCF717F833789F
:1043200001210820522B61D0FCF710F80920002150
:10433000FCF70CF80020FCF76FF8E0B2FCF76CF823
:1043400001210920FCF702F83378013C0121082003
:104350002512522B43D0FBF7F9FF09200021FBF770
:10436000F5FF280EFCF758F8E8B2FCF755F80121E4
:104370000920FBF7EBFF337801210820A4B2522B70
:1043800026D0FBF7E3FF09200021FBF7DFFF002029
:10439000FCF742F8E0B2FCF73FF801210920FBF7F7
:1043A000D5FF00210820FBF7D1FF00210920FBF7F2
:1043B000CDFF2C20FCF730F801210920FBF7C6FFC8
:1043C000F8BDFBF7C3FF00210920FBF7BFFF34E76F
:1043D000FBF7BCFF00210920FBF7B8FFDAE7FBF78A
:1043E000B5FF00210920FBF7B1FFBDE7FBF7AEFFEA
:1043F00000210920FBF7AAFF9FE7FBF7A7FF002199
:104400000920FBF7A3FF83E7FBF7A0FF00210920AA
:10441000FBF79CFF56E7FBF799FF00210920FBF70C
:1044200095FF38E7FBF792FF00210920FBF78EFF8D
:1044300019E7C04608040020104B10B514001A8874
:10444000824202D35B888B4200D210BD0B00020077
:10445000FFF7A0FD01210820FBF778FF00210920CC
:10446000FBF774FF200AFBF7D7FFE0B2FBF7D4FF9E
:1044700001210920FBF76AFFE7E7C046F475022037
:10448000F0B5C64600B51C0006AB80460F0015000F
:104490001E88824201D98C4202D880BCB846F0BD49
:1044A0002300FFF777FD43460121ED1A0820E41BA6
:1044B000FBF74CFFADB200210920A4B26C43FBF71F
:1044C00045FF0025370AF6B23800FBF7A5FF013596
:1044D0003000FBF7A1FFAC42F6D101210920FBF728
:1044E00035FFDAE7F8B5144B04001D88002D02D023
:1044F0005E88002E00D1F8BD33002A000021002084
:10450000FFF748FD01210820FBF720FF00210920CB
:104510006E43FBF71BFF0025270AE4B23800FBF7C8
:104520007BFF01352000FBF777FFAE42F6D101217A
:104530000920FBF70BFFDEE7F4750220F0B54E46CD
:104540004546DE4657461C00E0B5072687B0019376
:1045500010AB0391198811AB884619880490029119
:10456000A188203A0E40731E9E41CB08F318160016
:10457000E08846435E4323689C46059366440028D2
:1045800061D0039B013B9BB29A46324B994600296E
:1045900059D0049B0025581E534601339BB29B46BD
:1045A00080B21CE080232341471C134229D04B4694
:1045B0001A88BBB29A4209D34B465B885B4505D348
:1045C0005146029AFFF738FF019B9988073C6342E6
:1045D0005C410135ADB23619B8B28D4221D2072403
:1045E0001D4B32782C409845DCD180232341471C59
:1045F0001342EBD0174B1A889446BAB29445DCD2DA
:10460000E4E74B461A88BBB29A42DFD34B465B883D
:104610005B45DBD351464246FFF70EFF019B99886D
:10462000D4E74B0700D00136019B0398DA88534644
:104630001B1A02339BB29A4205D9534601339BB2EF
:104640009A460029A5D107B0F0BCBB46B246A946A0
:10465000A046F0BDF4750220FFFF0000F0B55746FC
:104660004E464546DE46E0B50F001E008446140067
:104670008FB00B9318AB1D8819ABA8460A921D7812
:10468000121A1AAB1B780291D11706955518F21B16
:104690009946D3174D40D11859400891A4458941F6
:1046A000D3179A1A5A400592564A0190564811401B
:1046B00084460A0002216244BC4608000992B445BF
:1046C000924108991040421E0C926A1A00214B46F2
:1046D0008A46079504925D0052009BB2013D039209
:1046E0000D93534601335BB29A46069B012B06D1CC
:1046F0000321504605F046FC49B200294FD0434BF8
:10470000019A1B88934223D3404B029A5B889342C1
:104710001ED3002D1CDD0023019A99460D9BD21A51
:104720009346029AD71ABFB24E4600245E44B6B2F0
:10473000E11901344246300089B2A4B2FFF77CFE91
:10474000A542F5DC4B4601339BB299469D42EBDC1A
:10475000059B039A934211DC0A9A019B9A424AD024
:10476000049A0899521A099904928C4663449BB2A0
:1047700001935300079A03939A42B2DB0B9A029B70
:104780009A4238D00799049A8C460C9962448C4618
:1047900063449BB20293530004920393A1E71B4B23
:1047A000019A1B88934223D3184B029A5B88934249
:1047B0001ED3002D1CDD0023019A99460D9BD21AB1
:1047C0009246029AD71ABFB24E4600245644B6B259
:1047D000E119013430000C4A89B2A4B2FFF72CFE73
:1047E000AC42F5DB4B4601339BB29946AB42EBDB67
:1047F00000239A46ACE70FB0F0BCBB46B246A946D0
:10480000A046F0BD0200FFFFFFFF0000F47502208C
:10481000F0B54F464646D646C0B584B01F000CAB37
:104820001B88140099460DAB1B7805009A462D4B4A
:104830000E001A889846904225D85B88994222D863
:10484000944210D853460293002301934B46220012
:1048500000930B00FFF702FF43461A88954212D8D7
:104860005B889E420FD89F420DD853460293002387
:1048700001934B462A00009331003B002800FFF7CC
:10488000EDFE43461A88944226D843465B889F42F1
:1048900022D89E4212D853460293002301934B46DE
:1048A00022000093390033002000FFF7D7FE434673
:1048B0001A88944210D85B88BB420DD395420BD81E
:1048C00053460293002301934B462A00009339007C
:1048D0003B002000FFF7C2FE04B0E0BCBA46B14680
:1048E000A846F0BDF4750220F0B55746DE464E46A8
:1048F0004546E0B591B00091032114B21F0052006B
:104900001AAB03908A1A187812B21BAB1B78059465
:104910000992012800D11CE2002C00DAEAE15A00D9
:10492000013A90469AB20892009A4446D21A92B23C
:104930009246039A5646D31A9BB2029301930023E0
:104940000A93BB4B04936B469B8A0693069A009B83
:10495000944663449DB2049B0E951A886B46198D4C
:10496000039B8C46634498B24B00079199B20B901D
:104970000C9182422BD3049B5B88AB4200D2C6E1F0
:1049800000239B46089BEB1A002C00DCBFE19BB286
:1049900098463B00B1464746260098460025029CB3
:1049A0005C44A4B2791901354246200089B2ADB207
:1049B000FFF742FDAE42F5DC5B4601339BB29B46FE
:1049C0009E42EBDC340047464E46049B1A880B9B04
:1049D0000C995B1A9BB20D939A422AD3049B0E99B1
:1049E0005B888B4225D300239946089BCB1A002C69
:1049F0001FDD9BB298463B00B346474626009846CB
:104A00000025019C4C44A4B2E9190135424620001E
:104A100089B2ADB2FFF710FDAE42F5DC4B46013373
:104A20009BB299469E42EBDC340047465E46049BAF
:104A30001A88039B06995B1A98B20E90904200D98F
:104A40005FE1079D049BAC4600995B88614489B295
:104A50000F91994200D96DE100239946089BC31A32
:104A60009B46002C00DC85E2B8465746B24626003D
:104A70004C4600255C44A4B2791901354246200019
:104A800089B2ADB2FFF7D8FCAE42F5DC4B4601333C
:104A90009BB299469E42EBDC0F9B0C9A0E989B1A98
:104AA00099B2049B34001A8856460F91BA4647467D
:104AB000904220D85B888B421DD30023B84699468C
:104AC000370026004C4600255C44A4B27919013514
:104AD0004246200089B2ADB2FFF7AEFCAE42F5DC33
:104AE0004B4601339BB299469E42EBDC34003E00BC
:104AF0004746049B1A880699009B5B1A99B20D9B46
:104B00000C91934229D8049B5B888B4253D300239A
:104B10009B46089BCB1A002C4DDD9BB298463B0070
:104B2000B1464746260098460025019C5C44A4B245
:104B3000E91901354246200089B2ADB2FFF77CFC8D
:104B4000AE42F5DC5B4601339BB29B469E42EBDCFA
:104B5000340047464E46049B1A880B9B93422AD842
:104B6000049B0C995B888B4225D300239946089BB4
:104B7000CB1A002C1FDD9BB298463B00B34647463C
:104B8000260098460025029C4C44A4B279190135B0
:104B90004246200089B2ADB2FFF74EFCAE42F5DCD2
:104BA0004B4601339BB299469E42EBDC34004746AC
:104BB0005E46049B1A880699039B8C46634499B20F
:104BC0000B91914254D8049B0F9A5B889A4200D96A
:104BD000A1E000239946089BCB1A9B46002C47DD99
:104BE000B846370026004C4600255C44A4B279192B
:104BF00001354246200089B2ADB2FFF71DFCAE423E
:104C0000F5DC4B4601339BB299469E42EBDC049A9D
:104C10000B99138834003E0047468B4228D30799EE
:104C2000009B8C46528863449BB29A4220D301E099
:104C3000F47502200023B84699465746B24626002E
:104C40004C4600255C44A4B2791901354246200047
:104C500089B2ADB2FFF7F0FBAE42F5DC4B46013353
:104C60009BB299469E42EBDC34005646BA46474614
:104C7000099A002A23DB059A0A9B013E9B1A099A8E
:104C80009B000A329B181BB20993069BB6B2013BEC
:104C90001AB2079B0592013319B2534601339BB2F6
:104CA0009A46029B0A9101339BB20293019B013BFE
:104CB0009BB201938A421DDB93B2069346E60799A5
:104CC00006328B009B181BB209934B1C1AB2534639
:104CD00001339BB29A46029B013E01339BB2029381
:104CE000019B0A92013B9BB20193059BB6B2934292
:104CF00000DB2BE611B0F0BCBB46B246A946A0468D
:104D0000F0BD009B07995B1A9BB20F93F3E6431A21
:104D10009BB20D938DE60799009A8C46624492B23D
:104D20009342A5D30B9B089A9B1A9B46002C00DD4F
:104D300080E79DE70C98091A89B20F918B4200D247
:104D4000D9E60E9B08995B1A9B46002C00DDB4E661
:104D5000D1E6002CCEDB009A0398531E99B2431E75
:104D60009BB29A469B460493002389468046844D15
:104D700002910190069207920A9308910A9C71E0B1
:104D8000009A6988121992B2914200D2BCE0029B4B
:104D90003A00E118504689B2FFF74EFB2B88039A80
:104DA000161BB6B2B34219D36A8807998A420AD34E
:104DB000049B3A00181B089980B2FFF73DFB2B8833
:104DC000B3420BD36A8806998A4207D3049B3A0000
:104DD000181B494680B2FFF72FFB2B88019A93429C
:104DE0000DD3009A6988121B92B2914217D3029B8D
:104DF0003A00191B504689B2FFF71EFB2B8843452A
:104E00000DD3009A6988121B92B2914207D3029B7C
:104E10003A00191B584689B2FFF70EFB2B88620037
:104E2000B618B6B29E4218D86B88069A93420AD337
:104E3000049B3A00E018494680B2FFF7FDFA2B8840
:104E4000B3420AD36B88079A934206D3049B3A0075
:104E5000E018089980B2FFF7EFFA0134059B24B2FD
:104E60009C421CDC2B88A4B243450DD3009A698870
:104E7000121992B2914292D3029B3A00E11858461D
:104E800089B2FFF7D9FA2B88019A934200D377E7CA
:104E9000039A161BB6B29E4200D885E7AFE7099A7F
:104EA000002A38DB18000A990A32CB1A9B009B189B
:104EB0001BB20993431E1AB24B1C19B2089B0592F0
:104EC00001339BB20893079B0A9101339BB207936E
:104ED0004B46013B9BB29946069B013B9BB2069316
:104EE0005B4601339BB29B46434601339BB29846D7
:104EF000019B013B9BB201935346013B9BB29A46F7
:104F00008A4200DB3AE7F5E6039A161BB6B2B342D3
:104F100000D349E765E76B461B8D063299005218AE
:104F200012B2013309921AB2089B0A9201339BB262
:104F30000893079B01339BB207934B46013B9BB2FF
:104F40009946069B013B9BB206935B4601339BB29D
:104F50009B46434601339BB29846019B013B9BB263
:104F600001935346013B9BB29A46059B934200DB5B
:104F700004E7BFE60B000C995B1A9BB20F93BAE5EE
:104F8000F4750220F0B54646D6464F46C0B515002A
:104F900008AA1678264A1488844223D352888A4263
:104FA00020D3012E23D09AB29046002B1AD001387C
:104FB00083B29A460023994601398FB2564600249F
:104FC0004E44B6B2391901342A00300089B2A4B275
:104FD000FFF732FA4445F5D34B4601339BB299466D
:104FE0004345EBD3E0BCBA46B146A846F0BD5A00F3
:104FF000013A9046002AF5DD00229146C21A9246F7
:10500000C91A8EB24F4600245744BFB23119013439
:105010002A00380089B2A4B2FFF70EFAA045F5DCE9
:105020004B4601339BB299469845EBDCDAE7C04624
:10503000F4750220F0B585B00AAC26880BAC277851
:105040000CAC2478A446094C258885420CD364888E
:105050008C4209D3954207D39C4205D364460197FD
:1050600002940096FFF7FAFA05B0F0BDF47502203D
:10507000F0B583B008AC278809AC26780AAC247850
:10508000A4460C4C258885420BD364888C4208D3F7
:10509000954206D39C4204D3002E04D00097FFF71C
:1050A000EFF903B0F0BD644600970194FFF7B0FB41
:1050B000F7E7C046F4750220F0B583B008AC267857
:1050C00009AC2778064C2588854206D364888C4233
:1050D00003D901970096FFF707FC03B0F0BDC04667
:1050E000F4750220F0B557464E46DE464546E0B51B
:1050F00085B01F000EAB1B888A4603930FAB1B883D
:1051000081469B461F4B160019889846814231D331
:10511000588850452ED31278002A2BD0BB8855468C
:105120009C464C461DE0FB88EB18834201DD55464A
:105130004C468C420CD885420AD85B460193039BAF
:105140002900009320003B00FFF7F8F9BB889C463C
:10515000727864440136A4B2002A0BD04346198801
:1051600058886346E3188B42DDDDFB884C46ED181A
:10517000ADB2D9E705B0F0BCBB46B246A946A046E1
:10518000F0BDC046F4750220F0B5DE464E464546F9
:105190005746E0B5424C8246A5440024984690AB61
:1051A0001B888B46039391AB1B880021150007A831
:1051B000FB220493069405F02FFFFB22002147A851
:1051C000469405F029FF374B1E88994656455DD316
:1051D0005F885F455AD3002D58D028000A2104F07B
:1051E000D1FE842204AB520030319B18195528009F
:1051F0000A2104F0C7FE0134050024B20028ECD1D6
:10520000002C43DD46AB013C1D1906AB00E0013C20
:105210002A7824B21A70013D0133002CF7D104AB77
:105220001A7A002A32D043469988059706AB300097
:105230000F005D4654461E0005991EE04346DB887C
:10524000EB188B4201DD5D46544684420CD88D42FA
:105250000AD8049B29000193039B20000093434636
:10526000FFF76CF943469F887278E4190136A4B2BF
:10527000002A0BD04B4618885988E3198342DDDD9C
:105280004346DB8854465D19ADB2D9E787239B00BE
:105290009D44F0BCBB46B246A946A046F0BDC04600
:1052A000E4FDFFFFF4750220F0B5C64600B5070027
:1052B00084B03C493C4808F015FE0E2301AD6B4418
:1052C0002E00984600211020FBF740F83800FBF72D
:1052D000A3F8C820FBF7C6F80020FBF7AFF884B2AC
:1052E0000020FBF7ABF82402A4B20443A4B20121CE
:1052F0001020E408FBF72AF83480C8200236FBF7B8
:10530000B1F84645DED12949274808F0EBFD2B8846
:105310006A88934201D92A806B802B88AA8893429D
:1053200001D92A80AB802B88EA88934201D92A8050
:10533000EB802B882A89934231D86B88AA889342C4
:1053400001D96A80AB806B88EA88934201D96A8070
:10535000EB806B882A8993421ED8AB88EA889342F7
:1053600001D9AA80EB80AB882A89934201D9AA800F
:105370002B812B89EA889A4200D9EB80AB88688818
:105380000321C018EB88C01880B204F023FE80B25D
:1053900004B080BCB846F0BD6A802B81DDE72B816C
:1053A000CBE7C046C0C62D000000044080A8120113
:1053B000F0B5DE4657464E464546E0B58DB00693FD
:1053C00016AB8A46198817AB8346188818AB1C8819
:1053D00019AB1D881AAB1E8805920B9601228723F4
:1053E000F82609945A4C079108900A95A788594DB8
:1053F000B846360202920192A021282000955B0057
:10540000F932FFF735FE2300A0212820524A0196E9
:105410000095FFF767FE2300A0218C204F4A0196DC
:105420000095FFF75FFE2300B42128204C4A019627
:105430000095FFF757FE2300B4218C20494A0196BE
:105440000095FFF74FFE2300C8212820464A019609
:105450000095FFF747FE2300C8218C20434A0196A0
:105460000095FFF73FFE7F002300DC212820404A03
:1054700001960095FFF736FE47442300DC218C207F
:105480003C4A01960095FFF72DFEBFB22300F021A4
:105490002820394A01960095FFF724FE3B00283367
:1054A0009BB299468C37BFB223005A464846A0218A
:1054B00001960095FFF768FE230052463800A021B0
:1054C00001960095FFF760FE23004846059AB42137
:1054D00001960095FFF758FE23003800069AB42184
:1054E00001960095FFF750FE23004846079AC82111
:1054F00001960095FFF748FE23003800089AC8215E
:1055000001960095FFF740FE23004846099ADC21EA
:1055100001960095FFF738FE230038000A9ADC2137
:1055200001960095FFF730FE434698004044400046
:1055300028302300F0210B9A80B201960095FFF7E6
:1055400023FE0DB0F0BCBB46B246A946A046F0BD56
:10555000F8030020FFFF00005C0801106008011044
:1055600064080110680801106C080110700801102F
:1055700074080110780801107C080110F8B5D020DB
:10558000FFF792FE04009020FFF78EFE06000A202F
:10559000FAF768FFD020FFF787FE05009020FFF79D
:1055A00083FE07000A20FAF75DFFAC420CD223000D
:1055B00031330020AB4206DBBE420DD23300313323
:1055C0000020BB4210DAF8BD2B003133A342F3DADE
:1055D0000020AC42F7D1EAE73B003133B34203DAB3
:1055E0000020BE42EFD1E9E7044B6419F6197010B0
:1055F0006410D8809C800120E5E7C0460076022038
:10560000F0B5DE46454657464E46E0B5CF4DF82448
:1056100097B02800FEF766FF0126009500252402BA
:105620003C210020CA4BCB4A0194FFF75BFD0C23C1
:1056300018220C210020009402960195FFF7FAFC35
:1056400018230C2200210C20009402960195FFF7EC
:10565000F1FC220002230C210C200096FFF792FCA3
:10566000230006220C210C2001960095FFF724FD53
:10567000B94B00249B46B94BB94F98463D72002365
:1056800001263F25994676421120FAF769FE002847
:105690000FD1FFF773FF0822BA563B7A002A11DBBD
:1056A000C0233B727B6811203B60FAF759FE00284B
:1056B000EFD00822BA563B7A002A00DA89E04A463F
:1056C0007E603A601A00AA43402ADDD118250CA852
:1056D00093434019FA887D68A1003B72BB8845500E
:1056E0002100009258462200013405F0A5FEE4B2E4
:1056F000C820FAF7B3FE032C00D1F2E2042C00D14B
:1057000032E1012C00D1CFE0022C66D143461A8849
:105710000023100001259A4601938C4B18389946B6
:1057200000930C210C2380B202951600FFF782FC37
:10573000534601934B460C3EB6B232003000009304
:10574000002118230295FFF775FC4A46300002231A
:105750000C210095FFF716FC5346300000930622FB
:105760004B460C210195FFF7A7FC434652465B8848
:1057700001921E00F8220C3EB6B212029146310090
:10578000069300923300182200200295FFF752FC86
:105790005246069B019219004A46183900920C2085
:1057A0000C2289B20295FFF745FC4A4631000223DC
:1057B0000C200095FFF7E6FB5346062200933100CC
:1057C0004B460C200195FFF777FCC820FAF746FE00
:1057D00055E77F2213403B7274E7434600211A8845
:1057E0005B8810001E0001248A4601910C3E574937
:1057F000B6B218388946069380B2330002940091FD
:1058000031001500FFF716FC5246069B0192190065
:105810004A460C3DADB21839280089B20294009274
:105820002A00FFF707FC280002234A4631000094B3
:10583000FFF7A8FB5346280006223100019400938D
:10584000F8254B46FFF738FC53462D0218220C2151
:1058500000200294019300950C33FFF7EBFB5346B5
:105860000C2200210C200294019300951833FFF7BD
:10587000E1FB02232A000C210C200094FFF782FB9D
:10588000534606220C210C20019400932B00FFF7B5
:1058900013FC4B461A21009328202D4B314A0195C9
:1058A000FFF720FC0024EAE60026284D0C23009593
:1058B00018220C21002002940196FFF7BBFB0095F3
:1058C00018230C2200210C2002940196FFF7B2FB52
:1058D0002A0002230C210C200094FFF753FB2B001D
:1058E00006220C210C2001940096FFF7E5FB4346AD
:1058F0001A88F82310001B029946150018380093E7
:105900000C210C2380B202940196FFF793FB4B46C7
:105910000C3DADB22A002800009300211823029408
:105920000196FFF787FB4A46280002230C210094CA
:10593000FFF728FB28004B4606220C210194009615
:10594000FFF7BAFBC820FAF789FD98E6FFFF0000D1
:10595000F80300208808011000090110F4750220E6
:1059600000760220D80901100CAB1B8B9A465246D8
:105970000CAB9B8B0693D31A1BB2DA170F939818B4
:105980000CAB5B8B50400A930CAAD28B80B29B1A53
:105990001BB20792DA1710939B1853409BB25B43DC
:1059A0004043C01804F0F6FD04F040FE04F032FE5F
:1059B0000CAB1B8C0CAA0893928C86B2981A00B27E
:1059C000C317C0180B9258400CAB5B8C0CAA099300
:1059D000D28C80B29B1A1BB20E92DA179B185340DE
:1059E0009BB25B434043C01804F0D4FD04F01EFE9C
:1059F00004F010FE85B2300005F030FA041C2800D7
:105A00000C9505F031FA011C201C05F00CFA8146BA
:105A100005F084FAEB4AEC4B04000D0004F090FD15
:105A2000002800D0E6E120002900E84AE84B04F015
:105A30009DFD002800D0DDE1002E00D1DAE10C9DB3
:105A4000002D00D1D6E15346089A9B1A1BB2DA17F3
:105A50009818119350400A9B099A80B29B1A1BB266
:105A6000DA1799469B1853409BB25B434043C018DA
:105A700004F090FD04F0DAFD069B0B9A0C900D915A
:105A8000981A00B2C317C0180E9A5840079B80B2EC
:105A90009B1A1BB2DA179B1853409BB25B434043DF
:105AA000C01804F077FD04F0C1FD04000D000C984F
:105AB0000D9904F0AFFD80B205F0D0F92900061C65
:105AC000200004F0A7FD80B205F0CEF9011C301CC7
:105AD00005F0A9F9061C05F021FABA4ABA4B0400F0
