:020000041000EA
:1000000000B5324B212058609868022188439860DF
:10001000D860186158612E4B002199600221596106
:100020000121F02299502B49196001219960352056
:1000300000F044F80222904214D00621196600F024
:1000400034F8196E01211966002018661A6600F04E
:100050002CF8196E196E196E052000F02FF8012189
:100060000842F9D1002199601B49196000215960AB
:100070001A491B48016001219960EB211966A021F2
:10008000196600F012F800219960164914480160C1
:100090000121996001BC002800D000471248134993
:1000A000086003C880F30888084703B5996A0420EC
:1000B0000142FBD001200142F8D103BD02B5186610
:1000C0001866FFF7F2FF186E186E02BD00000240BE
:1000D000000000180000070000035F00212200005C
:1000E000F4000018222000A00001001008ED00E03C
:1000F00000000000000000000000000074B24E7A12
:1001000000200420F7010010C3010010C5010010F9
:10011000C1010010C1010010C1010010C101001097
:10012000C1010010C1010010C1010010C701001081
:10013000C1010010C1010010C9010010CB01001065
:10014000CD010010CD010010CD010010CD01001037
:10015000CD010010CD010010CD010010CD01001027
:10016000CD010010CD010010CD010010CD01001017
:10017000CD010010CD010010CD010010CD01001007
:10018000CD010010CD010010CD010010CD010010F7
:10019000CD010010CD010010CD010010CD010010E7
:1001A000CD010010CD010010CD010010CD010010D7
:1001B000CD010010CD010010CD010010CD010010C7
:1001C00000BE00BE00BE00BE00BE00BE00F04BF888
:1001D000103800BEF2EB8871641B0110841B011003
:1001E0003402001090A31AE700202149086006C8D5
:1001F00081F3088810471F48006800282FD10DA4FC
:100200000ECC002902D000F012F8F9E71A491B4A77
:10021000002000E001C19142FCD1194988471949E9
:1002200088471949884700BEFDE701C901C29A42C3
:10023000FBD37047841B0110C00000207405002010
:100240003820011000000420000004203820011094
:1002500000100420001004200000000070470B482C
:1002600009F0ACFA0047EFF30580C0B27047000018
:1002700008ED00E0000000D0780500200C77022097
:10028000898000100D03001079810010575600007E
:1002900006005250ABB360532019011006005250B3
:1002A000861C030230190110060052505422A29DF0
:1002B0004019011005005250DE65F4683820011025
:1002C000F8B5C04610B5064C2378002B07D1054B76
:1002D000002B02D0044800E000BF0123237010BDB2
:1002E000800800200000000078D60010044B10B5F4
:1002F000002B03D00349044800E000BF10BDC046F6
:10030000000000008408002078D6001010B500F02E
:1003100001F8FCE710B506F085F900F0A1F802F04D
:1003200095F900F025F8C8210420890002F0B6FAFA
:10033000042005F04DFE0421042002F0BDF904F074
:1003400025FF04F099FF05F057FCFCE70123D022BC
:1003500083401206002901D0536170479361FCE786
:10036000D0231B065B68C340012018407047C0467D
:1003700070B50421192006F06BFB04231C4E0520E8
:10038000336006F0BDFA1B4909F072FA0AF0D4F89E
:10039000051C0AF0F9F8C4B220000AF0D3F8011CD9
:1003A000281C0AF0A8F88321C9050AF0BEF80AF053
:1003B000EBF82401104BC0B204435C653268802125
:1003C00093009B180C4A9B009818FA229200026135
:1003D0000A4A4901944663441A680B43120C1204FA
:1003E0001A6001230268014393430B6070BDC0464D
:1003F000B476022040420F00000005400C0005408A
:10040000FF210A4B00041A6893009B18084A9B00BE
:100410009A181161074A944663441A685040802232
:10042000000C52010004134318607047B476022098
:10043000000005400C000540074B80211A68490167
:1004400093009B18054A9B00944663441A680B432B
:10045000120C12041A607047B47602200C0005409A
:10046000F0B5C64600B50AF001FB0F2006F020FBF0
:10047000D024802324061B026362082006F018FBA8
:100480008023802680275B006362B6010D2006F082
:100490000FFBBF006662092006F00AFB67621020AE
:1004A00006F006FB80235B0263621120984606F08B
:1004B000FFFA802380259B02A362ED03162006F03D
:1004C000F7FA002265620121112006F0D9FA4346AD
:1004D0000B4963610B486761666165610CF094FFCD
:1004E00001210A2006F0B4FA01210B2006F0B0FA2F
:1004F00001210C2006F0ACFA002080BCB846F0BD0B
:10050000C0E1E4000000044010B584B06B460F2445
:100510006C44D91D08700123220003480DF09CF89B
:10052000207804B010BDC0460000044010B582B071
:100530006B46DC1D991D08700123220002480DF056
:100540008BF8207802B010BD0000044010B507F011
:1005500001F910BD7047C046030010B50120002B03
:1005600000D010BD05F066FE0028FAD005F090FD21
:10057000FF2005F089FD05F08DFD0120F1E7C04663
:100580000020704770B50D00040011001A1E11D034
:100590000120002C00D070BD280005F029FF0028A4
:1005A000F9D005F075FDFF2005F06EFD05F072FD38
:1005B0000120F0E70420EEE770B50D000400110003
:1005C0001A1E0AD00120002C00D070BD280005F0B2
:1005D0007FFF431E9841C0B2F7E70420F5E7C0460D
:1005E00070B514000125002808D102290FD007D8C2
:1005F000002911D005F0E6FD00252060280070BD1F
:1006000004250329FAD1082300251380F6E7802367
:100610009B0000251380F1E700211620FFF796FECE
:1006200005F03AFD431E98410121C5B21620FFF79F
:100630008DFEE3E700207047F0B5DE4657464E4694
:100640004546E0B516008A4C0122A544310002A8B7
:1006500001F014FD874C884F1E223B00210002A8A8
:1006600001F0D6FD638902A80093A389A58A0193AE
:10067000638A9A46E38A9B46238B9846A38B9946C6
:1006800001F0F4FD4B460020182B07D153467B4A5E
:100690002D041D4313880130AB4208D08D239B00ED
:1006A0009D44F0BCBB46B246A946A046F0BD4346B9
:1006B00059461B04194353888B468B42EED10122C5
:1006C000310002A801F0DAFC019B21001A04009B12
:1006D00002A81A433B0001F09BFD694B1B78522B8B
:1006E0006DD15B46002B00D1BEE000239846654BE0
:1006F0000093B4235B009946A144B4223B0021003F
:10070000520002A801F084FDB4223B004946520089
:1007100002A801F07DFD002D1DD0434642461B017D
:100720009B1A1B019C46002362465900591889B246
:100730009818621896785278615CF6089208F6026A
:100740005201C90832430A430133009940009BB269
:100750000A52AB42E8D3434601339BB298465B450D
:10076000CBD30021002003F0A5FD01210820FFF7D5
:10077000EDFD00210920FFF7E9FD434943480CF056
:10078000BFFE9623009E9B02F5183088000AFFF7F3
:10079000BBFE30780236FFF7B7FEB542F5D1012136
:1007A0000920FFF7D3FD02A801F060FD3849374862
:1007B0000CF0A6FE3748FFF7C9FE01206EE70021C6
:1007C000002003F077FD304930480CF099FE5B467D
:1007D000002BE8D0002399466933FF339A46294B12
:1007E000A2449846B4223B002100520002A801F026
:1007F0000FFDB4223B005146520002A801F008FD53
:10080000B423B4229B00E11852003B0002A801F07F
:10081000FFFC8723B422DB00E11852003B0002A852
:1008200001F0F6FC002D18D000267200B11889B234
:10083000631898785B78C0089B085B01C002184376
:1008400084466346605C0136C00818434346B6B22E
:10085000985201F0AFFFAE42E7D34B4601339BB253
:1008600099465B45BED39EE7064B009379E7C046A9
:10087000CCFDFFFF580F00209C080020747602205A
:1008800020040020581E002080C3C901000004403D
:10089000C0C62D00DC05000070B5074D0100012227
:1008A000280001F0EBFB431E98414400280001F0B2
:1008B000DDFC200070BDC046C0080020F0B54646F3
:1008C000D6464F46C0B54F4E040088460100300062
:1008D00001F038FD0023994600287ED120000CF05D
:1008E00059FE494B050010279A46484C210030001C
:1008F00001F06CFD002870D1637A002B6DD02E2B97
:10090000F4D0237A1F42F1D16B1CE218527A2E2ABE
:1009100048D0AA1CA118497A2E2966D0EB1CE118F0
:10092000497A2E2966D02A1DA118497A2E295CD031
:100930006B1DE118497A2E295CD0AA1DA118497AAD
:100940002E2952D0EB1DE118497A2E2952D00232BD
:10095000A118497A2E2948D00233E118497A2E2964
:1009600048D00232A118497A2E293ED00233E1182C
:10097000497A2E293ED00232A118497A2E2934D044
:1009800029000D3163185B7A2E2B33D02B000E33E8
:10099000E218527A2E2A32D01D000133E218527A20
:1009A0002E2AF9D14B46182B1DD86319DA7A002567
:1009B000422A9BD11A7B4D2A98D15B7B502B95D133
:1009C0004B46414622009B0058580932514608F0D8
:1009D000B1FE01239C46E14488E74846E0BCBA46A4
:1009E000B146A846F0BD002580E71D004B46182BF8
:1009F000F9D8DAE74B461500182BF4D8D5E70D00E7
:100A0000D0E7C046A408002078D60010E80A0020ED
:100A10000A00036930B50932002B7CD0436918788D
:100A2000202805D0052800D1E0300A0048720A329B
:100A300058781400202804D0052800D1E030541C38
:100A400010709A782000202A04D0052A00D1E032C4
:100A5000601C2270DC780200202C04D0052C00D110
:100A6000E034421C04701C791000202C04D0052CAA
:100A700000D1E034501C14705C790200202C04D0AA
:100A8000052C00D1E034421C04709C791000202C0D
:100A900004D0052C00D1E034501C1470DC79020025
:100AA000202C04D0052C00D1E034421C0470187AAC
:100AB0001400202806D0052800D1E0302E245070E4
:100AC0001470941C5A7A2000202A04D0052A00D1E0
:100AD000E032601C22709C7A0200202C04D0052C8D
:100AE00000D1E034421C0470D87A08725C7F187F11
:100AF0009D7F24020443D87F2D042C43000620430D
:100B00000860587E1C7E000220438880987DDB7D33
:100B10001B020343CB800023137030BD002370B54C
:100B20000371013B04000D00C3624B1C09D00A0095
:100B30002100012340783031FFF724FD00281FD128
:100B4000E562124BE25A124B9A421BD122006632E6
:100B5000538811881B040B430E4A1B021B0A934245
:100B600012D08223E25A0C4B82349C4660880004E7
:100B700010430002000A6044431E9841C0B270BD99
:100B80000320FCE70220FAE70020F8E72E0200002D
:100B900055AA000046415400BABEABFFF0B5C646A8
:100BA000C66A04000D0000B58E4235D007000379F7
:100BB0003037002B0BD101232A0039006078FFF772
:100BC000E1FC002826D1E56280BCB846F0BD0123D7
:100BD000320039004078FFF7EFFC00281AD1226A72
:100BE000A3692071B21A9A42E5D2E2789046012AAE
:100BF00001D8E0E7A369F6183200012339006078D4
:100C0000FFF7DAFC01235B429C46E0444346012B9C
:100C1000F0D1D0E70120D7E70020D5E7F0B5454671
:100C2000DE4657464E460023E0B50C68150083B0FB
:100C30000360002C00D1C4E02378303B082B00D89F
:100C4000B6E0C84B1C68002C00D11DE1237804607D
:100C5000002B0FD06078FFF793FCC3070AD4002D58
:100C600000D10DE104231E000640034200D1FFE045
:100C70000A26FDE0002300202380FFF76DFCC30758
:100C800000D5FFE0002D01D04307F1D40021200062
:100C9000FFF744FF0600012800D194E0032800D1AB
:100CA0003AE10025002800D0E1E022003B32117833
:100CB000537880221B0292000B43934200D0D6E06F
:100CC0004623E65A002E00D1666D4023A661E25C01
:100CD000531EE270012B00D9C9E03D23E75CA770E9
:100CE000002F00D1C3E07B1E1F4200D0BFE0412394
:100CF000E15C230041335B781B020B439846238160
:100D00001B0700D0B3E04323E15C230043335B784F
:100D10001B020B4300D1236DE18F8B46002900D1CC
:100D2000A5E072431100019242468A4612095A44D4
:100D30009244534500D29AE052469B1A9946390094
:100D4000180008F095FDB94500D290E0864B984216
:100D500000D8E3E0854B984200D821E15B46EB18D0
:100D600023625346EB18A362434602306061E5619B
:100D7000002B7CD1E36D800063627D4B9C46604418
:100D8000400A864273D301235B422361E3608133CF
:100D90006371203BE35A012B00D182E00323754AA3
:100DA00023701388002601339BB21380E3805FE039
:100DB00062783A2A00D044E702340C60002B00D15C
:100DC0003FE70B2654E0F9235B00E35C0027002B90
:100DD0000CD0FB235B00E118E25C4B788F781B02A0
:100DE0001A43CB783F0417431B061F43624B002571
:100DF000E35C002B0BD0614BE2185178E55C0902F3
:100E000093782943D5781B0419432D060D430022FE
:100E10005B4B9046E35C002B0CD05A4BE0184278B9
:100E2000E15C120283781143C2781B040B43120663
:100E30001A4390460022544B9146E35C002B0CD0A1
:100E4000524BE0184278E15C120283781143C27879
:100E50001B040B4312061A439146002F45D1002D67
:100E60004BD14346002B4FD14B46002B0ED10D26C4
:100E7000300003B0F0BCBB46B246A946A046F0BD68
:100E80000026F5E70326F3E70C26F1E749462000A4
:100E9000FFF744FE4D46002800D106E70328E7D0BF
:100EA000E5E72000691CFFF779FE002800D075E710
:100EB00043466371364BE25A364B9A4200D06DE797
:100EC000354B226B9A4200D068E785229200334B63
:100ED000A2589A4200D061E7862387229B009200A5
:100EE000E358A2582361E26058E739002000FFF779
:100EF00015FE0028B3D13D00D7E629002000FFF7FA
:100F00000DFE0028ADD1D0E641462000FFF706FED9
:100F100045460028A8D1C8E60126A9E75B46414618
:100F2000EB18821CE561554462612362A5620029C9
:100F30009DD0019950008C46634463620123801860
:100F400040081A4080180A4A94466044400A864283
:100F500000D28CE7012252422261E260813262714A
:100F60001DE7C046A0080020F50F0000F5FF0000B7
:100F7000FF010000FA7602200202000006020000D3
:100F800012020000160200002202000026020000E9
:100F90002E02000055AA0000525261417272416156
:100FA0005B464246EB180230E561554460612362BE
:100FB000A562002A00D15AE7019A40009446634492
:100FC00063620223BFE7C046F0B5C6460778040057
:100FD0000D0000B5022F08D0032F3FD0012F17D0EE
:100FE0000120404280BCB846F0BD036A090A9C4615
:100FF0006144FFF7D3FD0028F2D1FF216D004900C5
:101000000D4064193034637820781B021843E9E7F7
:10101000036A4E089C467618710A6144FFF7BEFDCC
:101020000028DDD1F305DB0DE31830331B780136E2
:101030009846236A710A9C4620006144FFF7AEFD82
:101040000028CDD14346F605F60DA419303420789A
:10105000000218432F421FD00009C3E7036AC909E1
:101060009C466144FFF79AFD0028B9D1FE21AD00EE
:1010700049000D402B003033E318D8789A78641972
:1010800012040006303410435B7822781B021043B0
:10109000184300010009A5E70005000DA2E7C046BE
:1010A000F8B54E46DE46574645469B468468C368BB
:1010B000E0B51B1B06000F009946934200D99146EC
:1010C0004B46002B00D190E02200D305DD0D002B14
:1010D00041D13368500A99784C1E0440E4B2002C88
:1010E00000D184E070695A690238023A904200D314
:1010F0008CE0996A9A788C4650436044002800D16D
:1011000084E080468021A0448900894500D386E0A0
:10111000B26990451AD035004024B17928350C4287
:101120000BD0587829000123FFF746FA002800D099
:10113000A0E0B379A343B3713368587842460123E2
:101140002900FFF71FFA002800D093E04346B3615F
:10115000B368DD05ED0D80239B00591B494500D97F
:10116000494602242B00A4462933F3180634FB1AFF
:101170009C459B41A446481E2A008445A441283230
:101180005B426442B2181C4200D177E03B0013433B
:101190009B0700D072E000238C08A400D558FD50B6
:1011A0000433A342FAD103230C009C4323001219F9
:1011B000C01A3C198B4209D013782370002805D03F
:1011C00053786370012801D09378A370B3685846B0
:1011D000CA185B461B68B2605B1803604B465B1A1B
:1011E00099467F18002B00D06FE7002011E0002AFD
:1011F00032D13069012809D9431C3BD03368706172
:101200005A690238023A904200D272E70223022061
:10121000F371F0BCBB46B246A946A046F8BD4946AC
:10122000490A8A4661188A4201D2121B92465246E6
:10123000D2B25878390013004246FFF7A3F90028CC
:1012400018D1B3795B0604D54246B3699B1A9A4517
:1012500030D853465902B9E7726A9246002A14D12F
:1012600071690129D2D95A699142CFD21800FFF78A
:10127000ABFEBFE701230120F371CAE70023D05C76
:10128000F85401339942FAD1A0E704235344984615
:1012900008F0EEFA53465B68002BB7D0424604E0F4
:1012A0000832C01A1368002BB0D09842F8D25368A5
:1012B000C0189FE73100320002205B02FB18293181
:1012C0002832591A88420BD219001143890707D1D5
:1012D000515959518021043589008D42F8D1B8E720
:1012E000515D59558021013589008D42F8D1B0E713
:1012F000F8B54746CE46067804000D00904680B506
:10130000022E0BD0032E45D00227012E1AD0012326
:1013100038002371C0BCB946B046F8BD036A090A5B
:101320009C466144FFF73AFC071EF0D16B00FF2595
:1013300042466D002B40E31830331A7092B2120A05
:101340005A70E4E74B08994689444B46590A036AA8
:101350009C466144FFF722FC071ED8D14B46DB05B3
:10136000DB0DE31830332E4233D00F2219784D466F
:101370001140424612010A431A70236A01359C4605
:10138000690A200026716144FFF708FC00283DD05F
:101390000700BCE7036AC9099C466144FFF7FEFBEE
:1013A000071EB4D1FE21AD0049000D402B0041467F
:1013B0003033E318DA786519120912070A4391B23B
:1013C000090A30352A705970110C120E9970DA70B2
:1013D0009DE742461A704D46236A01359C46690ACC
:1013E000200026716144FFF7D9FB0028D0D1ED051C
:1013F000ED0D65192B0042460F2130331B78120A80
:101400008B430A401A4330352A7080E74346ED0586
:10141000ED0D1A09D2B26519F5E7C046F8B50379A2
:101420000400002B0BD12378032B29D000220021AC
:101430006078FFF7D5F8431E9841C0B2F8BD0700A9
:10144000C56A303701232A0039004078FFF7B4F825
:1014500000283AD1226AA3692071AA1A9A42E2D2DC
:10146000E678012E01D8DEE7A369ED182A000123F2
:1014700039006078013EFFF79FF8012EF4D1D2E7E2
:101480006379012BD2D125008022303500219200D2
:10149000280009F0CFF80E4B0E4A2900E2520E4BFD
:1014A0000E4A236385239B00E25022690433E250F5
:1014B000E2680433E250E36960785A1CE262012377
:1014C000FFF77AF800236371B0E70120B6E7C04662
:1014D0002E02000055AAFFFF525261417272416113
:1014E000F0B54E464546DE465746E0B5894605000E
:1014F00083B000291ED1C7684369002F34D101375A
:10150000FF2252009346023A3C00924601349C422C
:101510001FD3012F00D891E0022B1CD902242E7872
:10152000022E00D176E0032E57D0012E20D00124C8
:10153000644211E001290ED0436999420BD2FFF7B2
:1015400043FD0400012806D96B69834204D84F4645
:10155000D6E7012CE3D80124200003B0F0BCBB4641
:10156000B246A946A046F0BDBB42C9D80127C7E78D
:1015700063089846A0444346590A2B6A28009C46B3
:101580006144FFF70BFB0028D1D14346DB05DB0D9F
:10159000EB1830331B782800019301239C46E0446C
:1015A0004346590A2B6A9C466144FFF7F7FA002824
:1015B000BDD14146CB05DB0DEB1830331B78019ACA
:1015C0001B02134326423BD01B09002B3BD0012BAF
:1015D000C1D0A74232D06B6998E72B6AE1099C46DB
:1015E00028006144FFF7DAFA0028A0D15346A20090
:1015F0001A40110030316918CB788878AA18303237
:1016000012781B060004034313434A781202134363
:101610001B01D9E72B6A210A9C4628006144FFF789
:10162000BDFA002800D082E75B4662001A40AA1883
:1016300030325178137809020B43C6E700248BE758
:101640001B051B0DC1E76B69A34200D883E721008E
:101650002800134AFFF74CFE002803D0012800D1D0
:1016600065E778E74B46002B0DD0012B00D172E7E0
:101670006B69994500D36EE7220049462800FFF7C1
:1016800037FE0028EAD12B69EC605A1C00D163E7D1
:101690000122013B2B616B7913436B715CE7C04600
:1016A000FFFFFF0FF0B557464546DE464E46E0B514
:1016B000856807000C0083B0C180012D26D0066824
:1016C0007369AB4222D9002D57D0B27812019046EF
:1016D000914200D291E0FF22520093469D4215D2E2
:1016E00033789946022B00D195E0032B5AD0012B79
:1016F00014D001200BE0756A002D41D0B2781201A0
:101700009046914200D278E0012DE4D1022003B04E
:10171000F0BCBB46B246A946A046F0BD6B089A464F
:10172000AA445346590A336A30009C466144FFF785
:1017300035FA0028DDD15346DB05DB0DF3183033D5
:101740001B783000019301239C46E2445346590A1A
:10175000336A9C466144FFF721FA0028C9D15146FB
:10176000CB05DB0DF61830363378019A1B02134394
:101770004A462A4263D01D0932E03278032ABAD0A1
:101780000023FB603389A342C0D9726A23099446BF
:1017900063443B610F210C40303664013419002052
:1017A0007C61B4E7336AE9099C4630006144FFF785
:1017B000F5F900289DD1FE22AB00520013401A001B
:1017C0003032B218D5789178F31830331B782D0663
:1017D00009040D431D4353781B021D432D012D09A0
:1017E000012D93D93E687369AB4200D88EE742461B
:1017F000A41AA4B2444500D370E7FD60023B023D49
:101800009D421FD2B3785D43B36A9C466544230969
:101810005D193D61BEE7336A290A9C463000614488
:10182000FFF7BCF9002800D063E75B466D001D4060
:1018300076193036737835781B021D43D0E71B05C7
:101840001D0DCDE70025E2E7F8B557464546DE46D3
:101850004E46E0B50B7805008A462F2B53D05C2B03
:1018600051D000245346AC601B781F2B54D95646E8
:10187000AB6932782F2A01D05C2A01D10136F8E712
:1018800020221A705A709A70DA701A715A719A710D
:10189000DA711A725A729A723278202A19D9002192
:1018A0008C460831884602218A4603218B46711EE8
:1018B000894661469C462B000024454601279846F0
:1018C0000B002F2A55D05C2A53D02E2A2AD09D42B5
:1018D00006D80620F0BCBB46B246A946A046F8BDD5
:1018E00051B2002905DA59460C43B449803A8A5C62
:1018F000E4B22221B24803E041780130002923D02C
:101900008A42F9D1E5E701239C460024E24453468C
:10191000AC601B781F2BAAD800212800FFF7C2FE5D
:101920006C61D7E7082DD4D108230B25A400E4B2BD
:101930004A460137D25D202AC3D842466346A846AC
:10194000F619150004221DE011004139192906D8A5
:1019500051460C43E4B26146CA540133E8E7110032
:1019600061391929F7D80121203A0C43E4B2D2B2E7
:10197000F1E742461900A84663461500F61900290A
:10198000A7D000221978E52901D1E0391970414624
:10199000082900D105E103212140012901D10F319E
:1019A0000A430C210C40042C01D104390A430021C4
:1019B0002800DA72FFF776FE002800D0F7E02C68E6
:1019C0002F69B0463E0027000823FC6A9A46B442BD
:1019D0000ED0302291463B79B944002B31D10123FE
:1019E000320049467878FEF7CDFD002859D1FE62D5
:1019F0006A691478002C5FD050465346D17A08406B
:101A00000B4261D0EC880134A4B2002C54D02E6972
:101A1000002E51D00F23234099460F23234242D05A
:101A20002F684B465A013B00EC803033FC6A9B1810
:101A30006B61B442DCD0302291463B79B944002B33
:101A4000CDD00123220049467878FEF7B5FD002865
:101A500027D13A6ABB693871A21A9A42BFD2FA7882
:101A60009346012ABBD931002A004E465D4689467D
:101A7000934600E0BB69E418220001233100787826
:101A8000013DFEF799FD012DF4D14B46B1461E00F4
:101A900049460123320078785D46FEF773FD002841
:101AA000A5D0012016E7E96801362F682E610029CC
:101AB00054D13B89A342B4D8AB69DB7A04205B07DD
:101AC00000D507E7052005E7AB691F78A74299D144
:101AD00057785C78A74295D19F789478A74291D1A6
:101AE000D778DC78A7428DD117791C79A74289D1A4
:101AF00057795C79A74285D197799C79A74200D024
:101B000080E7D779DC79A74200D07BE7177A1C7A87
:101B1000A74200D076E7577A5C7AA74200D071E7F7
:101B2000977A9C7AA74200D06CE7DC7A4646640735
:101B300000D5CFE6C906C5D5D17E907E0902014306
:101B400028680078032801D0A96092E6147D527DB0
:101B50001202224312041143A9608AE6BB782209CB
:101B6000013B1A4200D05CE7012918D07B699942F9
:101B700015D23800FFF728FA012810D9431C90D05D
:101B80002F687B69984297D2E860023B02389842FE
:101B90000AD2BB785843BB6AC6182E6141E70220BF
:101BA00098E6A400E4B2FCE600262E6139E7AB69B2
:101BB000DB7A042800D08DE680E7C04694D600107A
:101BC00084D60010F8B54546DE4657464E46436972
:101BD000E0B504000D00994200D398E0012914D922
:101BE000FF2326785B009946023B98460127022E88
:101BF00000D175E0032E38D0012E08D00120F0BCB2
:101C0000BB46B246A946A046F8BD0220F7E76B08DE
:101C10009A46AA445346590A236A20009C466144C6
:101C2000FEF7BCFF0028E9D15346DB05DB0DE318C6
:101C300030331B7820009B4601239C46E2445346E8
:101C4000590A236A9C466144FEF7A8FF0028D5D1B3
:101C500053465A46DB05DB0DE31830331B781B0275
:101C600013432E4255D01E091CE0236AE9099C4605
:101C700020006144FEF792FF0028BFD14246AB002E
:101C800013401A003032A218D6789178E318303316
:101C90001B78360609040E431E4353781B021E436D
:101CA00036013609002E32D0012EAED06369AB4228
:101CB000ABD9002229002000FFF71AFB00289ED193
:101CC00023695A1C20D00133236163793B4363713C
:101CD00063699E421BD235002678022E00D089E728
:101CE000236A290A9C4620006144FEF757FF00281A
:101CF00000D083E74A466B001340E31830335A782C
:101D00001E7812021643CDE76369B342E3D8002080
:101D100075E71E05360DC5E7F0B5DE464E4657465B
:101D20004546E0B5002185B00600FFF7BBFC041E68
:101D30000AD0042800D10724200005B0F0BCBB461F
:101D4000B246A946A046F0BD3369356898460F23D0
:101D50009A46EC6A44450ED02F002B793037002B81
:101D600059D10123424639006878FEF70BFC002860
:101D700042D14346EB6273691B78E52B01D0002BFF
:101D800024D131693068FEF709FF041ED4D1202226
:101D90000021706908F04EFC7369B26919001143A3
:101DA000890700D0F1E0511C591A022900D8ECE053
:101DB0001168196051685960117A1972517A597213
:101DC000927A9A72012233681A71B5E7F488013465
:101DD000A4B2002CAFD033699846002BABD0574645
:101DE00053462740234209D035687B012F00303706
:101DF000FF18F4807761ACE701249DE701239C463E
:101E0000E0444346F16835683361002928D12B89C5
:101E1000A342EAD88FE70123220039006878FEF751
:101E2000CBFB0028E8D12A6AAB692871A21A9A4232
:101E300097D2EA789146012A93D932002E004D4676
:101E4000914600E0B369E41822000123390070785C
:101E5000013DFEF7B1FB012DF4D135004E4680E780
:101E6000AB782209013B1A42BFD1012921D06B690D
:101E700099421ED22800FFF7A7F80200019001281E
:101E800017D9431CB8D035686B69984213D2023A0F
:101E90000292023B019AF260029A934200D885E0D6
:101EA000AB785A431300AA6A90469844434633617C
:101EB0009BE7022440E72800F168FFF711FB031EAF
:101EC000019000D137E70128F3D0013394D0356871
:101ED0002B79002B6DD12800802200219200303018
:101EE00008F0A8FB019B35689A1E6B690292023BC1
:101EF0009A4200D390E01100A86AAA788046514324
:101F000088444146E962002A3CD000230394BB4642
:101F10004446B14698462F0001233037220039004D
:101F200068782B71FEF748FB002800D064E72A6A26
:101F3000AB692871A21A9A420ED2EE78012E01D80E
:101F40000AE0AB69E4182200012339006878013EF9
:101F5000FEF732FB012EF4D14B4647461D68013790
:101F6000EB6A5C1CFBB29846AB78EC624345D2D876
:101F70004346A04642465F464E46D31A98466B6992
:101F8000039C023B4246EA6284E71178197051785B
:101F9000597091789970D178D970117919715179F6
:101FA000597191799971D179D97105E700239846D2
:101FB0007CE7EB6A6878984630239B46AB44424600
:101FC00059462F3BFEF7F8FA002800D014E74246A6
:101FD000296AAB692871521A9A421BD2EA78914653
:101FE000012A17D942463100A0462E0014004D4662
:101FF000B9465F468B4600E0B369E418220001232E
:1020000039007078013DFEF7D7FA012DF4D144462E
:102010004F465E4635685EE70021AA78884670E73D
:1020200000B583B00B1E019000911AD009783039A9
:1020300008290FD910490B68002B01D00020187017
:10204000019B002B15D000200B601870012A0AD0CC
:1020500003B000BD58783A28ECD102330093002930
:10206000E8D00B20F4E70022694601A8FEF7D6FD70
:10207000EEE700200B60EBE7A0080020F0B5474634
:10208000CE4680B58DB0040017000191002868D0BD
:1020900000231E2203603A4001A905A8FEF7BEFDF9
:1020A000051E05D028000DB0C0BCB946B046F0BD35
:1020B0001F233B409846019902AB05A80B93FFF7FD
:1020C000C3FB00280FD10A9E002E00D19BE01C23E9
:1020D0003B420FD01122F37A1A4246D17B0700D43B
:1020E0008DE00825DEE71C233B4201D004283ED0CA
:1020F0000500D7E7F37ADA0635D4BA0701D5DB074E
:1021000033D4082205983A4003D0424620231A438C
:102110009046C36A2662E3614346A3710023E371DC
:10212000F37EB27E1B0213430278032A05D1727D2F
:10213000377D12023A43120413432361717F337FC8
:10214000B27F09021943F37F120411431B060B43AC
:10215000E36000232060A360A3616362C388A3805F
:10216000A0E709259EE704259CE707259AE705A82F
:10217000FFF7D2FD424608231A4390460A9E0028E4
:10218000B6D1FEF757FA83B21B0AF373030C33740C
:102190000023B073000E70740598F77EF3723377E6
:1021A0007377B377F377B27E03783F021743032B3D
:1021B00005D1737D317D1B020B431B041F4300239C
:1021C000B376F3763375737501330371002F9CD0AA
:1021D000012F1AD043699F4217D2C36A390099462A
:1021E000FFF7F0FC002883D10598013F4946C760FE
:1021F000FEF7D4FC002800D07AE7059885E73B0776
:10220000BFD4059885E706254CE702254AE7C04676
:10221000F8B51D00002304000E0017002B600028F5
:102220001ED00368002B1BD01A78002A18D0828891
:10223000D9880920914200D0F8BD5878FEF7A0F95E
:102240000123034210D1E0790028F5D1A27913428D
:1022500008D02B003A0031002000FEF721FFEBE709
:102260000920E9E70720E7E70320E5E7F8B5041EC2
:1022700060D00368002B5DD01A78002A5AD0D98824
:1022800082880925914201D02800F8BD5878FEF7D0
:1022900077F901231D00054003424DD1A3799A0629
:1022A00045D540261E420CD021002368A2695878EB
:1022B00028310123FEF780F900283FD1A379B343E9
:1022C000A371E1692068FEF769FC071E01D00500D3
:1022D000DAE72022266AF37A1343F372E36833774E
:1022E000A3891B0A7377E389B377E37BF3772369C9
:1022F000B3769AB21B0C120A33751B0AF276737509
:10230000FEF798F9202283B21B0AB075F375030C0F
:10231000000E33767076B774F774A3792068934310
:10232000A37101230371FFF779F8002808D1002376
:102330002360A9E70925A7E70325A5E70125A3E76A
:102340000500A1E730B587B0041E019132D000220C
:1023500001A902A8FEF762FC002803D00023236035
:1023600007B030BD029B2000236003AB0199A3613D
:10237000FFF76AFA002819D16369002B23D0DA7AB3
:10238000D20615D5DA7E987E0299120202430878A9
:10239000032811D0A260CB8820000021A380FFF782
:1023A00081F9042804D00028DAD0D7E70428D5D151
:1023B0000520D3E70920D3E71D7D5B7D1B022B435E
:1023C0001B041A43E6E70299E5E7C046F0B5454627
:1023D000DE4657464E46E0B587B004000D00019139
:1023E000002800D1DEE00368002B00D1DAE01A7883
:1023F000002A00D1D6E082880920D98883469142FC
:1024000007D0584607B0F0BCBB46B246A946A04626
:10241000F0BD5878FEF7B4F801231A000240934645
:10242000034200D0F3E0002D00D1C1E0266903ABE8
:10243000A361002E00D18AE00F239A462568EF6A37
:10244000B7420ED0302290462B79A844002B34D1CD
:102450000123320041466878FEF794F800285CD1E9
:10246000EE6262691378002B71D0E52B08D02E2B19
:1024700006D0D37A3F2213400F2B01D0082B68D10E
:10248000E7880137BFB2002F61D02669002E5ED0E9
:10249000534652463B403A4273D02568E7802A00B3
:1024A0005B013032EF6AD3186361B742D9D0302272
:1024B00090462B79A844002BCAD001233A0041460C
:1024C0006878FEF779F8002827D12A6AAB69287165
:1024D000BA1A9A42BCD2EA789146012AB8D9424641
:1024E0002100B0464C461600894600E0AB69FF1853
:1024F0003A00012331006878013CFEF75DF8012CB9
:10250000F4D13300464698463200012341466878AC
:102510004C46FEF737F80028A2D001239B46002343
:1025200023616EE7AB783A09013B1A4232D10129A7
:102530003BD06B69994238D22800FEF745FD01284F
:1025400033D9431CE9D025686B69984262D30023D4
:10255000236120000199FEF75BFAE5880135ADB2F1
:10256000002DDCD02369002BD9D00F2216002E407D
:102570002A4223D02068303076018019E5806061DE
:102580003FE7E1680136256826610029CAD12B8919
:10259000BB42DCD92B003033E7806361002E00D0D2
:1025A0004DE7D6E709239B462BE702239B46B6E778
:1025B00000212000FFF776F8834622E7E168013327
:1025C00020682361002931D02A0917008378013B54
:1025D0001F401A42CFD1012932D0436999422FD2EC
:1025E000FEF7F2FC030001282AD9421C2BD02068F8
:1025F0004269934293D2E360023A023B934204D28F
:1026000087785F43836A9C4667442761B3E7032367
:102610009B46F6E6E060023B023898420AD2AB6A7B
:10262000AE789C46464366442661B3E70389AB42D5
:10263000A1D874E7002330352361E780656188E71E
:1026400002239B46DDE601239B46DAE610B5012115
:102650001620FDF77BFE01210920FDF777FE012101
:102660001020FDF773FE0D4901220D48FFF7D8FC3D
:102670000C4B011E187003D00B4808F0EBF910BD8D
:102680000A4808F045F90A4B0A4A19001431FF318B
:1026900008C20B338B42FBD1F1E7C046F0130110A7
:1026A000C01B002003770220F41301102C1401102A
:1026B000A0160020F41D0020F0B5DE464546574622
:1026C0004E460023E0B58DB0039000200493884669
:1026D00001F068FF2F4D05A82900FFF733FE2E4CAF
:1026E00028002100FEF7EAF8071E34D02B4B012505
:1026F00099462B4B2B4E9A462B4B9B4615E00128B7
:102700003AD0404600F078F81F230193274B5A46F1
:10271000009350215346002002F0F6F96B1C9F42B3
:1027200019D30434AF4216D01D0049463000226848
:1027300007F000F8300004A9FEF7AEF80028DED15B
:10274000039800F059F8320000210020FDF774FFD3
:102750006B1C9F42E5D2002001F024FF404600F0B0
:102760004BF801211620FDF7F1FD0DB0F0BCBB4682
:10277000B246A946A046F0BD404600F03DF81F23F2
:1027800001930A4B4021009300205346084A02F06F
:10279000BBF9C3E7F0130110F41D002078D6001038
:1027A00018040020C076022068140110FFFF00000A
:1027B0005414011010B50F4B04001B7801210820A0
:1027C000522B10D0FDF7C2FD09200021FDF7BEFD00
:1027D000200AFDF799FEE0B2FDF796FE01210920DF
:1027E000FDF7B4FD10BDFDF7B1FD00210920FDF797
:1027F000ADFDF0E72004002070B5254C2378522B66
:1028000000D070BD431EDBB20025062B31D9214B11
:102810001871032829D9A022F021520059800820DC
:1028200000211A80FDF792FD00210920FDF78EFDA1
:102830003620FDF769FE01210920FDF787FD237889
:1028400001210820522B1CD0FDF780FD092000211A
:10285000FDF77CFD0020FDF757FE2800FDF754FE34
:1028600001210920FDF772FDCBE7A021F0224900EC
:10287000D4E7094A5B00D55C064B18710328F4D9EC
:10288000C9E7FDF763FD00210920FDF75FFDE4E7DF
:1028900020040020747602208414011070B50121F8
:1028A00082B005000F20FDF751FDFA204000FDF732
:1028B0004DFE00210F20FDF749FDFA204000FDF7F5
:1028C00045FE01210F20FDF741FDFA204000FDF7F4
:1028D0003DFE6B469E1D0023002109203370FDF74D
:1028E00035FD00210820FDF731FDDC20FDF70CFE51
:1028F0006B46DC1D220001233100F4480AF0ACFED7
:1029000001210920FDF722FD2378F14C0021082048
:102910002370522B01D100F000FCFDF717FD0021C0
:102920000920FDF713FD2120FDF7EEFD012109200F
:10293000FDF70CFD00210820FDF708FD002109200E
:10294000FDF704FDC220FDF7DFFD01210920FDF7A1
:10295000FDFC237801210820522B00D1D6E3FDF79E
:10296000F5FC09200021FDF7F1FC0020FDF7CCFD6E
:102970003320FDF7C9FD01210920FDF7E7FC002107
:102980000820FDF7E3FC00210920FDF7DFFCC5204E
:10299000FDF7BAFD01210920FDF7D8FC23780121BC
:1029A0000820522B01D101F0E1F9FDF7CFFC0920FD
:1029B0000021FDF7CBFC0020FDF7A6FD0020FDF770
:1029C000A3FD01210920FDF7C1FC23780121082086
:1029D000522B01D101F0C2F9FDF7B8FC092000210A
:1029E000FDF7B4FC0020FDF78FFD1E20FDF78CFDE8
:1029F00001210920FDF7AAFC237801210820522B90
:102A000001D101F0A3F9FDF7A1FC09200021FDF798
:102A10009DFC0020FDF778FD8020FDF775FD01216C
:102A20000920FDF793FC00210820FDF78FFC002111
:102A30000920FDF78BFCB120FDF766FD012109207F
:102A4000FDF784FC237801210820522B01D101F0ED
:102A500075F9FDF77BFC09200021FDF777FC0020CC
:102A6000FDF752FDB020FDF74FFD01210920FDF7D4
:102A70006DFC00210820FDF769FC00210920FDF70D
:102A800065FC3620FDF740FD01210920FDF75EFCC5
:102A9000237801210820522B01D101F047F9FDF7DD
:102AA00055FC09200021FDF751FC0020FDF72CFD0D
:102AB0002820FDF729FD01210920FDF747FC002111
:102AC0000820FDF743FC00210920FDF73FFCE02032
:102AD000FDF71AFD01210920FDF738FC23780121BB
:102AE0000820522B01D101F019F9FDF72FFC092024
:102AF0000021FDF72BFC0020FDF706FD0020FDF76F
:102B000003FD01210920FDF721FC23780121082084
:102B1000522B01D101F0FAF8FDF718FC0920002131
:102B2000FDF714FC0020FDF7EFFC1320FDF7ECFC93
:102B300001210920FDF70AFC237801210820522BEE
:102B400001D101F0DBF8FDF701FC09200021FDF7C0
:102B5000FDFB0020FDF7D8FC1820FDF7D5FC012176
:102B60000920FDF7F3FB237801210820522B01D126
:102B700001F0BCF8FDF7EAFB09200021FDF7E6FBB8
:102B80000020FDF7C1FC0420FDF7BEFC0121092057
:102B9000FDF7DCFB237801210820522B01D101F045
:102BA0009DF8FDF7D3FB09200021FDF7CFFB0020A6
:102BB000FDF7AAFC0F20FDF7A7FC01210920FDF776
:102BC000C5FB237801210820522B01D101F07EF8AA
:102BD000FDF7BCFB09200021FDF7B8FB0020FDF745
:102BE00093FC0620FDF790FC01210920FDF7AEFBC8
:102BF000237801210820522B01D101F05FF8FDF765
:102C0000A5FB09200021FDF7A1FB0020FDF77CFCBE
:102C10003A20FDF779FC01210920FDF797FB237885
:102C200001210820522B01D101F040F8FDF78EFB65
:102C300009200021FDF78AFB0020FDF765FC5620E6
:102C4000FDF762FC01210920FDF780FB23780121BB
:102C50000820522B01D101F021F8FDF777FB092064
:102C60000021FDF773FB0020FDF74EFC4D20FDF722
:102C70004BFC01210920FDF769FB23780121082085
:102C8000522B01D101F002F8FDF760FB0920002171
:102C9000FDF75CFB0020FDF737FC0320FDF734FC5B
:102CA00001210920FDF752FB237801210820522B36
:102CB00001D100F0E3FFFDF749FB09200021FDF7FA
:102CC00045FB0020FDF720FC04E0C0460000044066
:102CD000200400200A20FDF717FC01210920FDF740
:102CE00035FB237801210820522B01D100F0BEFFD3
:102CF000FDF72CFB09200021FDF728FB0020FDF744
:102D000003FC0620FDF700FC01210920FDF71EFB56
:102D1000237801210820522B01D100F09FFFFDF7FD
:102D200015FB09200021FDF711FB0020FDF7ECFB4E
:102D30003020FDF7E9FB01210920FDF707FB23788F
:102D400001210820522B01D100F080FFFDF7FEFA8F
:102D500009200021FDF7FAFA0020FDF7D5FB3E20FF
:102D6000FDF7D2FB01210920FDF7F0FA23780121BC
:102D70000820522B01D100F061FFFDF7E7FA09208E
:102D80000021FDF7E3FA0020FDF7BEFB0F20FDF761
:102D9000BBFB01210920FDF7D9FA00210820FDF72E
:102DA000D5FA00210920FDF7D1FAE120FDF7ACFBAF
:102DB00001210920FDF7CAFA237801210820522BAE
:102DC00001D100F033FFFDF7C1FA09200021FDF722
:102DD000BDFA0020FDF798FB0020FDF795FB0121CF
:102DE0000920FDF7B3FA237801210820522B01D1E5
:102DF00000F014FFFDF7AAFA09200021FDF7A6FA5A
:102E00000020FDF781FB1320FDF77EFB0121092047
:102E1000FDF79CFA237801210820522B01D100F004
:102E2000F5FEFDF793FA09200021FDF78FFA002047
:102E3000FDF76AFB1820FDF767FB01210920FDF76C
:102E400085FA237801210820522B01D100F0D6FE0B
:102E5000FDF77CFA09200021FDF778FA0020FDF744
:102E600053FB0120FDF750FB01210920FDF76EFA0D
:102E7000237801210820522B01D100F0B7FEFDF785
:102E800065FA09200021FDF761FA0020FDF73CFBFF
:102E90001120FDF739FB01210920FDF757FA2378AE
:102EA00001210820522B01D100F098FEFDF74EFAC7
:102EB00009200021FDF74AFA0020FDF725FB062036
:102EC000FDF722FB01210920FDF740FA23780121BB
:102ED0000820522B01D100F079FEFDF737FA0920C6
:102EE0000021FDF733FA0020FDF70EFB3820FDF737
:102EF0000BFB01210920FDF729FA23780121082085
:102F0000522B01D100F05AFEFDF720FA09200021D2
:102F1000FDF71CFA0020FDF7F7FA3420FDF7F4FA6C
:102F200001210920FDF712FA237801210820522BF4
:102F300001D100F03BFEFDF709FA09200021FDF761
:102F400005FA0020FDF7E0FA4D20FDF7DDFA01213A
:102F50000920FDF7FBF9237801210820522B01D12C
:102F600000F01CFEFDF7F2F909200021FDF7EEF953
:102F70000020FDF7C9FA0620FDF7C6FA0121092055
:102F8000FDF7E4F9237801210820522B01D100F04C
:102F9000FDFDFDF7DBF909200021FDF7D7F9002041
:102FA000FDF7B2FA0D20FDF7AFFA01210920FDF778
:102FB000CDF9237801210820522B01D100F0DEFD4C
:102FC000FDF7C4F909200021FDF7C0F90020FDF745
:102FD0009BFA0B20FDF798FA01210920FDF7B6F9BD
:102FE000237801210820522B01D100F0BFFDFDF70D
:102FF000ADF909200021FDF7A9F90020FDF784FAB9
:103000003120FDF781FA01210920FDF79FF923788E
:1030100001210820522B01D100F0A0FDFDF796F907
:1030200009200021FDF792F90020FDF76DFA372005
:10303000FDF76AFA01210920FDF788F923780121BB
:103040000820522B01D100F081FDFDF77FF9092006
:103050000021FDF77BF90020FDF756FA0F20FDF760
:1030600053FA01210920FDF771F900210820FDF72D
:103070006DF900210920FDF769F93A20FDF744FABE
:1030800001210920FDF762F9237801210820522B44
:1030900001D100F053FDFDF759F909200021FDF79A
:1030A00055F90020FDF730FA5520FDF72DFA0121E2
:1030B0000920FDF74BF900210820FDF747F9002111
:1030C0000920FDF743F91120FDF71EFA092001211F
:1030D000FDF73CF97820FDF739FA00210820FDF7CB
:1030E00035F900210920FDF731F92920FDF70CFA07
:1030F00001210920FDF72AF92378522B01D100F094
:10310000E6FC3220FDF722FA02B070BDFDF71EF991
:1031100000210920FDF71AF92AE4FDF717F900212B
:103120000920FDF713F91120FDF7EEF9012109201F
:10313000FDF70CF96420FDF709FA00210820FDF7DE
:1031400005F900210920FDF701F93620FDF7DCF92A
:1031500001210920FDF7FAF8237801210820522BDC
:1031600001D100F06EFFFDF7F1F809200021FDF715
:10317000EDF80020FDF7C8F90020FDF7C5F90121A1
:103180000920FDF7E3F800210820FDF7DFF8002112
:103190000920FDF7DBF83A20FDF7B6F901210920F7
:1031A000FDF7D4F8237801210820522B01D100F03B
:1031B00040FFFDF7CBF809200021FDF7C7F80020FC
:1031C000FDF7A2F95520FDF79FF901210920FDF730
:1031D000BDF800210820FDF7B9F800210920FDF70E
:1031E000B5F8B220FDF790F901210920FDF7AEF8FE
:1031F000237801210820522B01D100F012FFFDF7A6
:10320000A5F809200021FDF7A1F80020FDF77CF9C1
:103210000C20FDF779F901210920FDF797F82378B3
:1032200001210820522B01D100F0F3FEFDF78EF8AA
:1032300009200021FDF78AF80020FDF765F90C2030
:10324000FDF762F901210920FDF780F823780121BB
:103250000820522B01D100F0D4FEFDF777F80920A9
:103260000021FDF773F80020FDF74EF90020FDF76F
:103270004BF901210920FDF769F823780121082085
:10328000522B01D100F0B5FEFDF760F809200021B6
:10329000FDF75CF80020FDF737F93320FDF734F92E
:1032A00001210920FDF752F8237801210820522B33
:1032B00001D100F096FEFDF749F809200021FDF745
:1032C00045F80020FDF720F93320FDF71DF9012115
:1032D0000920FDF73BF800210820FDF737F8002111
:1032E0000920FDF733F8B720FDF70EF90121092079
:1032F000FDF72CF8237801210820522B01D100F092
:1033000068FEFDF723F809200021FDF71FF80020D3
:10331000FDF7FAF83520FDF7F7F801210920FDF750
:1033200015F800210820FDF711F800210920FDF70C
:103330000DF8BB20FDF7E8F801210920FDF706F89C
:10334000237801210820522B01D100F03AFEFCF72E
:10335000FDFF09200021FCF7F9FF0020FDF7D4F85C
:103360002820FDF7D1F801210920FCF7EFFF00210B
:103370000820FCF7EBFF00210920FCF7E7FFC02045
:10338000FDF7C2F801210920FCF7E0FF23780121B5
:103390000820522B01D100F00CFEFCF7D7FF0920CA
:1033A0000021FCF7D3FF0020FDF7AEF83C20FDF72D
:1033B000ABF801210920FCF7C9FF00210820FCF728
:1033C000C5FF00210920FCF7C1FFC220FDF79CF8D2
:1033D00001210920FCF7BAFF237801210820522B94
:1033E00001D100F0DEFDFCF7B1FF09200021FCF760
:1033F000ADFF0020FDF788F80120FDF785F80121D9
:103400000920FCF7A3FF00210820FCF79FFF002103
:103410000920FCF79BFFC320FDF776F80121092066
:10342000FCF794FF237801210820522B01D100F0F2
:10343000B0FDFCF78BFF09200021FCF787FF00207F
:10344000FDF762F80B20FDF75FF801210920FCF77A
:103450007DFF00210820FCF779FF00210920FCF7FF
:1034600075FFC420FDF750F801210920FCF76EFF1D
:10347000237801210820522B01D100F082FDFCF7B6
:1034800065FF09200021FCF761FF0020FDF73CF8F3
:103490002020FDF739F801210920FCF757FF002112
:1034A0000820FCF753FF00210920FCF74FFFC6203E
:1034B000FDF72AF801210920FCF748FF23780121B4
:1034C0000820522B01D100F054FDFCF73FFF0920EA
:1034D0000021FCF73BFF0020FDF716F80F20FDF759
:1034E00013F801210920FCF731FF00210820FCF727
:1034F0002DFF00210920FCF729FFD020FDF704F85B
:1035000001210920FCF722FF237801210820522BFA
:1035100001D100F026FDFCF719FF09200021FCF77E
:1035200015FF0020FCF7F0FFA420FCF7EDFF0121C0
:103530000920FCF70BFF237801210820522B01D131
:1035400000F007FDFCF702FF09200021FCF7FEFE5A
:103550000020FCF7D9FFA120FCF7D6FF01210920AC
:10356000FCF7F4FE00210820FCF7F0FE0021092002
:10357000FCF7ECFEE020FCF7C7FF01210920FCF777
:10358000E5FE237801210820522B01D100F0D9FC5F
:10359000FCF7DCFE09200021FCF7D8FE0020FCF738
:1035A000B3FFD020FCF7B0FF01210920FCF7CEFECD
:1035B000237801210820522B01D100F0BAFCFCF73E
:1035C000C5FE09200021FCF7C1FE0020FCF79CFF8E
:1035D0000120FCF799FF01210920FCF7B7FE2378B1
:1035E00001210820522B01D100F09BFCFCF7AEFE1C
:1035F00009200021FCF7AAFE0020FCF785FF082027
:10360000FCF782FF01210920FCF7A0FE23780121AD
:103610000820522B01D100F07CFCFCF797FE09201A
:103620000021FCF793FE0020FCF76EFF0F20FCF753
:103630006BFF01210920FCF789FE23780121082076
:10364000522B01D100F05DFCFCF780FE0920002127
:10365000FCF77CFE0020FCF757FF1120FCF754FF1D
:1036600001210920FCF772FE237801210820522B4A
:1036700001D100F03EFCFCF769FE09200021FCF7B7
:1036800065FE0020FCF740FF2A20FCF73DFF0121EA
:103690000920FCF75BFE237801210820522B01D181
:1036A00000F01FFCFCF752FE09200021FCF74EFE43
:1036B0000020FCF729FF3620FCF726FF0121092016
:1036C000FCF744FE237801210820522B01D100F0A1
:1036D00000FCFCF73BFE09200021FCF737FE002030
:1036E000FCF712FF5520FCF70FFF01210920FCF722
:1036F0002DFE237801210820522B00D1E2E3FCF7B4
:1037000025FE09200021FCF721FE0020FCF7FCFE2D
:103710004420FCF7F9FE01210920FCF717FE23786D
:1037200001210820522B00D1C5E3FCF70FFE092030
:103730000021FCF70BFE0020FCF7E6FE3A20FCF728
:10374000E3FE01210920FCF701FE23780121082076
:10375000522B00D1A8E3FCF7F9FD09200021FCF76A
:10376000F5FD0020FCF7D0FE0B20FCF7CDFE01217B
:103770000920FCF7EBFD237801210820522B00D112
:1037800086E3FCF7E3FD09200021FCF7DFFD0020C4
:10379000FCF7BAFE0620FCF7B7FE01210920FCF772
:1037A000D5FD237801210820522B00D169E3FCF7D5
:1037B000CDFD09200021FCF7C9FD0020FCF7A4FE87
:1037C0001120FCF7A1FE01210920FCF7BFFD2378A1
:1037D00001210820522B00D14CE3FCF7B7FD092052
:1037E0000021FCF7B3FD0020FCF78EFE2020FCF743
:1037F0008BFE01210920FCF7A9FD00210820FCF720
:10380000A5FD00210920FCF7A1FDE120FCF77CFECD
:1038100001210920FCF79AFD237801210820522B71
:1038200000D120E3FCF792FD09200021FCF78EFD7A
:103830000020FCF769FED020FCF766FE012109207C
:10384000FCF784FD237801210820522B00D103E3EB
:10385000FCF77CFD09200021FCF778FD0020FCF737
:1038600053FE0220FCF750FE01210920FCF76EFDFB
:10387000237801210820522B00D1E6E2FCF766FDF7
:1038800009200021FCF762FD0020FCF73DFE072027
:10389000FCF73AFE01210920FCF758FD23780121AD
:1038A0000820522B00D1C9E2FCF750FD092000216D
:1038B000FCF74CFD0020FCF727FE0A20FCF724FE55
:1038C00001210920FCF742FD237801210820522B19
:1038D00000D1ACE2FCF73AFD09200021FCF736FDEF
:1038E0000020FCF711FE0B20FCF70EFE0121092041
:1038F000FCF72CFD237801210820522B00D18FE208
:10390000FCF724FD09200021FCF720FD0020FCF736
:10391000FBFD1820FCF7F8FD01210920FCF716FD3E
:10392000237801210820522B00D172E2FCF70EFD12
:1039300009200021FCF70AFD0020FCF7E5FD3420FA
:10394000FCF7E2FD01210920FCF700FD23780121AD
:103950000820522B00D155E2FCF7F8FC0920002189
:10396000FCF7F4FC0020FCF7CFFD4320FCF7CCFD76
:1039700001210920FCF7EAFC237801210820522BC1
:1039800000D138E2FCF7E2FC09200021FCF7DEFC64
:103990000020FCF7B9FD4A20FCF7B6FD0121092003
:1039A000FCF7D4FC237801210820522B00D11BE224
:1039B000FCF7CCFC09200021FCF7C8FC0020FCF738
:1039C000A3FD2B20FCF7A0FD01210920FCF7BEFC84
:1039D000237801210820522B00D1FEE1FCF7B6FC30
:1039E00009200021FCF7B2FC0020FCF78DFD1B2014
:1039F000FCF78AFD01210920FCF7A8FC23780121AE
:103A00000820522B00D1E1E1FCF7A0FC09200021A5
:103A1000FCF79CFC0020FCF777FD1C20FCF774FDF4
:103A200001210920FCF792FC237801210820522B68
:103A300000D1C4E1FCF78AFC09200021FCF786FCD8
:103A40000020FCF761FD2220FCF75EFD012109202A
:103A5000FCF77CFC237801210820522B00D1A7E140
:103A6000FCF774FC09200021FCF770FC0020FCF737
:103A70004BFD1F20FCF748FD01210920FCF766FCE7
:103A800000210820FCF762FC00210920FCF75EFC05
:103A90005520FCF739FD01210920FCF757FC23785C
:103AA00001210820522B00D17BE1FCF74FFC0920BB
:103AB0000021FCF74BFC0020FCF726FDB020FCF7B2
:103AC00023FD01210920FCF741FCFFF706FB6B1EDB
:103AD000DBB20026062B00D854E1F14B1D71032DFB
:103AE00000D84BE1A022F02152005980082000218B
:103AF0001A80FCF72BFC00210920FCF727FC36205C
:103B0000FCF702FD01210920FCF720FC23780121AC
:103B10000820522B00D13DE1FCF718FC09200021C0
:103B2000FCF714FC0020FCF7EFFC3000FCF7ECFC89
:103B300001210920FCF70AFCFFF7E3FAFCF706FC79
:103B400000210920FCF702FCFFF7AEFAFCF7FEFBB0
:103B500000210920FCF7FAFBFFF780FAFCF7F6FBDF
:103B600000210920FCF7F2FBFFF761FAFCF7EEFBFE
:103B700000210920FCF7EAFBFFF742FAFCF7E6FB1D
:103B800000210920FCF7E2FBFFF723FAFCF7DEFB3C
:103B900000210920FCF7DAFBFFF704FAFCF7D6FB5B
:103BA00000210920FCF7D2FBFFF7E5F9FCF7CEFB7B
:103BB00000210920FCF7CAFBFFF7C6F9FCF7C6FB9A
:103BC00000210920FCF7C2FBFFF7A7F9FCF7BEFBB9
:103BD00000210920FCF7BAFBFFF788F9FCF7B6FBD8
:103BE00000210920FCF7B2FBFFF769F9FCF7AEFBF7
:103BF00000210920FCF7AAFBFFF74AF9FCF7A6FB16
:103C000000210920FCF7A2FBFFF72BF9FCF79EFB34
:103C100000210920FCF79AFBFFF70CF9FCF796FB53
:103C200000210920FCF792FBFFF7EDF8FCF78EFB73
:103C300000210920FCF78AFBFFF7CEF8FCF786FB92
:103C400000210920FCF782FBFFF7A0F8FCF77EFBC0
:103C500000210920FCF77AFBFFF781F8FCF776FBDF
:103C600000210920FCF772FBFFF762F8FCF76EFBFE
:103C700000210920FCF76AFBFFF743F8FCF766FB1D
:103C800000210920FCF762FBFFF724F8FCF75EFB3C
:103C900000210920FCF75AFBFEF7FFFFFCF756FB5B
:103CA00000210920FCF752FBFEF7E0FFFCF74EFB7A
:103CB00000210920FCF74AFBFEF7C1FFFCF746FB99
:103CC00000210920FCF742FBFEF7A2FFFCF73EFBB8
:103CD00000210920FCF73AFBFEF783FFFCF736FBD7
:103CE00000210920FCF732FBFEF764FFFCF72EFBF6
:103CF00000210920FCF72AFBFEF745FFFCF726FB15
:103D000000210920FCF722FBFEF726FFFCF71EFB33
:103D100000210920FCF71AFBFEF707FFFCF716FB52
:103D200000210920FCF712FBFEF7E8FEFCF70EFB72
:103D300000210920FCF70AFBFEF7BAFEFCF706FBA0
:103D400000210920FCF702FBFEF78CFEFCF7FEFACF
:103D500000210920FCF7FAFAFEF75EFEFCF7F6FAFE
:103D600000210920FCF7F2FAFEF73FFEFCF7EEFA1D
:103D700000210920FCF7EAFAFEF720FEA021F0223C
:103D80004900B2E6474A5B00D65C454B1D71032DE6
:103D9000F4D9A7E6FCF7DAFA00210920FCF7D6FAF5
:103DA000C3E6FCF7D3FA00210920FCF7CFFA85E639
:103DB000FCF7CCFA00210920FCF7C8FA59E6FCF719
:103DC000C5FA00210920FCF7C1FA3CE6FCF7BEFA6F
:103DD00000210920FCF7BAFA1FE6FCF7B7FA002128
:103DE0000920FCF7B3FA02E6FCF7B0FA002109203B
:103DF000FCF7ACFAE5E5FCF7A9FA00210920FCF78D
:103E0000A5FAC8E5FCF7A2FA00210920FCF79EFA02
:103E1000ABE5FCF79BFA00210920FCF797FA8EE549
:103E2000FCF794FA00210920FCF790FA71E5FCF701
:103E30008DFA00210920FCF789FA54E5FCF786FA8F
:103E400000210920FCF782FA37E5FCF77FFA002110
:103E50000920FCF77BFA1AE5FCF778FA0021092023
:103E6000FCF774FAFDE4FCF771FA00210920FCF775
:103E70006DFAE0E4FCF76AFA00210920FCF766FA23
:103E8000B4E4FCF763FA00210920FCF75FFA97E439
:103E9000FCF75CFA00210920FCF758FA7AE4C046E6
:103EA0007476022084140110FCF750FA00210920D6
:103EB000FCF74CFA58E4FCF749FA00210920FCF71A
:103EC00045FA3BE4FCF742FA00210920FCF73EFAF0
:103ED0001EE4FCF73BFA00210920FCF737FAFFF754
:103EE00001FCFCF733FA00210920FCF72FFAFFF759
:103EF000E2FBFCF72BFA00210920FCF727FAFFF779
:103F0000C3FBFCF723FA00210920FCF71FFAFFF797
:103F1000A4FBFCF71BFA00210920FCF717FAFFF7B6
:103F200085FBFCF713FA00210920FCF70FFAFFF7D5
:103F300066FBFCF70BFA00210920FCF707FAFFF7F4
:103F400047FBFCF703FA00210920FCF7FFF9FFF714
:103F500028FBFCF7FBF900210920FCF7F7F9FFF734
:103F6000FAFAFCF7F3F900210920FCF7EFF9FFF763
:103F7000DBFAFCF7EBF900210920FCF7E7F9FFF782
:103F8000ADFAFCF7E3F900210920FCF7DFF9FFF7B0
:103F90007FFAFCF7DBF900210920FCF7D7F9FFF7DE
:103FA00051FAFCF7D3F900210920FCF7CFF9FFF70C
:103FB00023FAFCF7CBF900210920FCF7C7F9FFF73A
:103FC000F5F9FCF7C3F900210920FCF7BFF9FFF769
:103FD000C7F9FCF7BBF900210920FCF7B7F9FFF797
:103FE00099F9FCF7B3F900210920FCF7AFF9FFF7C5
:103FF0006BF9FCF7ABF900210920FCF7A7F9FFF7F3
:104000004CF9FCF7A3F900210920FCF79FF9FFF711
:104010002DF9FCF79BF900210920FCF797F9FFF730
:104020000EF9FCF793F900210920FCF78FF9FFF74F
:10403000EFF8FCF78BF900210920FCF787F9FFF76F
:10404000C1F8FCF783F900210920FCF77FF9FFF79D
:1040500093F8C046F8B5CE464746804680B508205E
:104060000F0000211C001500FCF770F90021092049
:10407000FCF76CF92A20FCF747FA01210920FCF72C
:1040800065F943468A4E1B0A994633780121082078
:10409000522B00D1D4E0FCF759F909200021FCF79C
:1040A00055F90020FCF730FA4B46D8B2FCF72CFA51
:1040B00001210920FCF74AF9337801210820522B0D
:1040C00000D1EEE0FCF742F909200021FCF73EF9AF
:1040D0000020FCF719FA4346D8B2FCF715FA013D67
:1040E00001210920FCF732F92B129846337801217F
:1040F0000820522B00D1CDE0FCF728F9092000213F
:10410000FCF724F94346180EFCF7FEF94346D8B2F3
:10411000FCF7FAF901210920FCF718F9337801219D
:104120000820ADB2522B00D1ADE0FCF70FF9092009
:104130000021FCF70BF90020FCF7E6F9E8B2FCF7E8
:10414000E3F901210920FCF701F900210820FCF71F
:10415000FDF800210920FCF7F9F82B20FCF7D4F931
:1041600001210920FCF7F2F83378012108203D0AEB
:10417000522B00D180E0FCF7E9F809200021FCF780
:10418000E5F80020FCF7C0F9E8B2FCF7BDF9012121
:104190000920FCF7DBF8337801210820522B64D08A
:1041A000FCF7D4F809200021FCF7D0F80020FCF738
:1041B000ABF9F8B2FCF7A8F901210920FCF7C6F821
:1041C0003378013C012108202512522B46D0FCF700
:1041D000BDF809200021FCF7B9F8280EFCF794F986
:1041E000E8B2FCF791F901210920FCF7AFF8337828
:1041F00001210820A4B2522B29D0FCF7A7F80920EE
:104200000021FCF7A3F80020FCF77EF9E0B2FCF7F0
:104210007BF901210920FCF799F800210820FCF71F
:1042200095F800210920FCF791F82C20FCF76CF997
:1042300001210920FCF78AF8C0BCB946B046F8BD98
:10424000FCF784F800210920FCF780F82CE7FCF744
:104250007DF800210920FCF779F8D7E7FCF776F81C
:1042600000210920FCF772F8BAE7FCF76FF800218B
:104270000920FCF76BF89CE7FCF768F8002109209F
:10428000FCF764F880E7FCF761F800210920FCF7EF
:104290005DF853E7FCF75AF800210920FCF756F8BF
:1042A00034E7FCF753F800210920FCF74FF812E738
:1042B00020040020F8B505000C0008200021FCF7C0
:1042C00045F800210920FCF741F82A20FCF71CF9E9
:1042D00001210920FCF73AF8864E012133780820A5
:1042E0002F0A522B00D1CCE0FCF730F80920002136
:1042F000FCF72CF80020FCF707F9F8B2FCF704F9FA
:1043000001210920FCF722F8337801210820522BE3
:1043100000D1E7E0FCF71AF809200021FCF716F8B5
:104320000020FCF7F1F8E8B2FCF7EEF801210920D3
:10433000FCF70CF83378013D012108202F12522B95
:1043400000D1C8E0FCF702F809200021FBF7FEFFCE
:10435000380EFCF7D9F8F8B2FCF7D6F8012109209D
:10436000FBF7F4FF337801210820ADB2522B00D1C6
:10437000AAE0FBF7EBFF09200021FBF7E7FF002095
:10438000FCF7C2F8E8B2FCF7BFF801210920FBF7FF
:10439000DDFF00210820FBF7D9FF00210920FBF7F2
:1043A000D5FF2B20FCF7B0F801210920FBF7CEFF49
:1043B000337801210820250A522B00D17DE0FBF73C
:1043C000C5FF09200021FBF7C1FF0020FCF79CF886
:1043D000E8B2FCF799F801210920FBF7B7FF337821
:1043E00001210820522B61D0FBF7B0FF09200021EA
:1043F000FBF7ACFF0020FCF787F8E0B2FCF784F88D
:1044000001210920FBF7A2FF3378013C012108209C
:104410002512522B43D0FBF799FF09200021FBF70F
:1044200095FF280EFCF770F8E8B2FCF76DF8012153
:104430000920FBF78BFF337801210820A4B2522B0F
:1044400026D0FBF783FF09200021FBF77FFF002028
:10445000FCF75AF8E0B2FCF757F801210920FBF706
:1044600075FF00210820FBF771FF00210920FBF7F1
:104470006DFF2C20FCF748F801210920FBF766FFAF
:10448000F8BDFBF763FF00210920FBF75FFF34E76E
:10449000FBF75CFF00210920FBF758FFDAE7FBF789
:1044A00055FF00210920FBF751FFBDE7FBF74EFF49
:1044B00000210920FBF74AFF9FE7FBF747FF002198
:1044C0000920FBF743FF83E7FBF740FF00210920AA
:1044D000FBF73CFF56E7FBF739FF00210920FBF70C
:1044E00035FF38E7FBF732FF00210920FBF72EFFED
:1044F00019E7C04620040020104B10B514001A889C
:10450000824202D35B888B4200D210BD0B000200B6
:10451000FFF7A0FD01210820FBF718FF002109206B
:10452000FBF714FF200AFBF7EFFFE0B2FBF7ECFF0D
:1045300001210920FBF70AFFE7E7C0467476022055
:10454000F0B5C64600B51C0006AB80460F0015004E
:104550001E88824201D98C4202D880BCB846F0BD88
:104560002300FFF777FD43460121ED1A0820E41BE5
:10457000FBF7ECFEADB200210920A4B26C43FBF7BF
:10458000E5FE0025370AF6B23800FBF7BDFF01351E
:104590003000FBF7B9FFAC42F6D101210920FBF74F
:1045A000D5FEDAE7F8B5144B04001D88002D02D0C3
:1045B0005E88002E00D1F8BD33002A0000210020C3
:1045C000FFF748FD01210820FBF7C0FE002109206C
:1045D0006E43FBF7BBFE0025270AE4B23800FBF769
:1045E00093FF01352000FBF78FFFAE42F6D101218A
:1045F0000920FBF7ABFEDEE774760220F0B5DE465D
:104600004E46574645469B46E0B585B00EAB1B88E7
:10461000072601935B4602919988DC880E40731E41
:104620009E41203ACB08F318160066435E435B4672
:104630001B689C466644002C44D0029B013B9BB205
:104640009846431E0393234B994600293AD06B4664
:104650009889434601339BB200259A4608E0073CFF
:1046600063425C410135ADB23619B8B2A94217D9DF
:10467000072480232C4023413278471C1342EED07C
:104680004B461A88BBB29A42E9D34B465B885345E6
:10469000E5D34146019AFFF72FFF5B469988DEE795
:1046A0004B0700D001365B46DA88434602981B1A56
:1046B00002339BB2934205D2434601339BB29846E4
:1046C0000029C4D105B0F0BCBB46B246A946A046FD
:1046D000F0BDC04674760220F0B54E464546DE4633
:1046E00057461C00E0B5072687B0019310AB039135
:1046F000198811AB8846198804900291A188203A44
:104700000E40731E9E41CB08F3181600E088464306
:104710005E4323689C4605936644002861D0039B52
:10472000013B9BB29A46324B9946002959D0049BD3
:104730000025581E534601339BB29B4680B21CE0B5
:1047400080232341471C134229D04B461A88BBB211
:104750009A4209D34B465B885B4505D35146029A82
:10476000FFF7CAFE019B9988073C63425C41013513
:10477000ADB23619B8B28D4221D207241D4B327822
:104780002C409845DCD180232341471C1342EBD0B9
:10479000174B1A889446BAB29445DCD2E4E74B46EC
:1047A0001A88BBB29A42DFD34B465B885B45DBD3AA
:1047B00051464246FFF7A0FE019B9988D4E74B077C
:1047C00000D00136019B0398DA8853461B1A023346
:1047D0009BB29A4205D9534601339BB29A460029AF
:1047E000A5D107B0F0BCBB46B246A946A046F0BD75
:1047F00074760220FFFF0000F0B557464E4645464E
:10480000DE46E0B50F001E00844614008FB00B9307
:1048100018AB1D8819ABA8460A921D78121A1AAB5C
:104820001B780291D11706955518F21B9946D3179C
:104830004D40D11859400891A4458941D3179A1A7F
:104840005A400592564A01905648114084460A0043
:1048500002216244BC4608000992B445924108997D
:104860001040421E0C926A1A00214B468A46079558
:1048700004925D0052009BB2013D03920D9353469A
:1048800001335BB29A46069B012B06D103215046A9
:1048900004F0C6FF49B200294FD0434B019A1B8850
:1048A000934223D3404B029A5B8893421ED3002D40
:1048B0001CDD0023019A99460D9BD21A9346029A59
:1048C000D71ABFB24E4600245E44B6B2E119013495
:1048D0004246300089B2A4B2FFF70EFEA542F5DCD5
:1048E0004B4601339BB299469D42EBDC059B039AF4
:1048F000934211DC0A9A019B9A424AD0049A089981
:10490000521A099904928C4663449BB20193530056
:10491000079A03939A42B2DB0B9A029B9A4238D0D1
:104920000799049A8C460C9962448C4663449BB266
:104930000293530004920393A1E71B4B019A1B8837
:10494000934223D3184B029A5B8893421ED3002DC7
:104950001CDD0023019A99460D9BD21A9246029AB9
:10496000D71ABFB24E4600245644B6B2E1190134FC
:1049700030000C4A89B2A4B2FFF7BEFDAC42F5DBB1
:104980004B4601339BB29946AB42EBDB00239A4680
:10499000ACE70FB0F0BCBB46B246A946A046F0BD9E
:1049A0000200FFFFFFFF000074760220F0B54F46C3
:1049B0004646D646C0B584B01F000CAB1B88140019
:1049C00099460DAB1B7805009A462D4B0E001A88B0
:1049D0009846904225D85B88994222D8944210D8B4
:1049E00053460293002301934B46220000930B0091
:1049F000FFF702FF43461A88954212D85B889E4211
:104A00000FD89F420DD853460293002301934B4683
:104A10002A00009331003B002800FFF7EDFE4346DB
:104A20001A88944226D843465B889F4222D89E42E9
:104A300012D853460293002301934B462200009361
:104A4000390033002000FFF7D7FE43461A8894420E
:104A500010D85B88BB420DD395420BD853460293C6
:104A6000002301934B462A00009339003B002000AD
:104A7000FFF7C2FE04B0E0BCBA46B146A846F0BD9E
:104A800074760220F0B585B00AAC26880BAC277886
:104A90000CAC2478A446094C258885420CD3648844
:104AA0008C4209D3954207D39C4205D364460197B3
:104AB00002940096FFF7A0FE05B0F0BD74760220C8
:104AC000F0B583B008AC278809AC26780AAC247806
:104AD000A4460C4C258885420BD364888C4208D3AD
:104AE000954206D39C4204D3002E04D00097FFF7D2
:104AF00027FD03B0F0BD644600970194FFF756FF11
:104B0000F7E7C04674760220F0B557464E46DE46BB
:104B10004546E0B585B01F000EAB1B888A4603935F
:104B20000FAB1B8881469B461F4B16001988984681
:104B3000814231D3588850452ED31278002A2BD089
:104B4000BB8855469C464C461DE0FB88EB188342CB
:104B500001DD55464C468C420CD885420AD85B464E
:104B60000193039B2900009320003B00FFF7B4FD55
:104B7000BB889C46727864440136A4B2002A0BD0EC
:104B80004346198858886346E3188B42DDDDFB886D
:104B90004C46ED18ADB2D9E705B0F0BCBB46B24605
:104BA000A946A046F0BDC0467476022070B51F4BE2
:104BB0009A88824205D2DC881E008C4201D23000E5
:104BC00070BD1B4CA588854208D2824206D9E28876
:104BD0008A4203D2DB8826008B42F0D8154B9A8894
:104BE000824208D2854206D9DD888D4203D2E4880C
:104BF0001E008C42E3D8104CA588854208D2824220
:104C000006D9E2888A4203D2DB8826008B42D6D8B6
:104C10000A4B9A888242D2D28542D0D9DA888A4217
:104C2000CDD2E2888A42CAD91E00C8E71804002003
:104C3000100400200804002000040020F8030020D5
:104C4000F0B5DE464E46454657468346E0B58FB042
:104C5000984618AB40CB17001B880BAA04931AABDD
:104C60001B880D000693D64B03CB03C21B8807217C
:104C700013805B46F81A04F0D3FD434684B2591BF7
:104C800089B22000FFF792FF0390B3790A21180040
:104C9000994604F0EDFDC9B2002900D01DE14B4654
:104CA0000A3B312B38D97379B171581CC0B20A2133
:104CB0007071994604F0DCFDC9B2002900D034E1DE
:104CC0004B46093B312B00D856E1337971710133E2
:104CD000DBB20A2118003371994604F0C9FD01398D
:104CE000C9B2022903D84B46172B00D86CE1002328
:104CF0003371069B3A002900009358464346FFF75C
:104D00001FFC6200A3185900594489B20991091B7C
:104D100089B208919BB2F7E0A300E3189BB29946D1
:104D20005B4498B23A000700069B29000093434673
:104D30000890FFF705FC3B194F46620098B26108E6
:104D4000A31809909BB292B20591C01B80B2814614
:104D50008A465344079392449A4F30793B889B4547
:104D600014D87A88AA4200D2D9E00A2104F080FD42
:104D70000C2208ABC0B29B181A5C049B58460093E7
:104D80002900039BFFF73AFC30793B88994513D8FB
:104D90007A88AA4200D2C5E00A2104F069FD0C22FB
:104DA00008ABC9B29B185A5C049B29000093484683
:104DB000039BFFF723FC3B88A208904605984844D4
:104DC000404480B298420AD87A88AA4207D3049B0A
:104DD0003A2200932900039BFFF710FC3B885246C0
:104DE0005A4492B2924670799A4213D87A88AA426B
:104DF00010D30A2104F03CFD0C2208ABC0B29B1872
:104E00001A5C049B504600932900039BFFF7F6FBB6
:104E100070793B88079A5A4492B291469A4213D8C5
:104E20007A88AA4200D275E00A2104F021FD0C2202
:104E300008ABC9B29B185A5C049B290000934846F2
:104E4000039BFFF7DBFB3B88059AA0009446424694
:104E500058446044801A80B298420AD87A88AA429C
:104E600058D3049B3A2200932900039BFFF7C6FB0B
:104E70003B88089CB0799C4213D87B88AB4225D3F1
:104E80000A2104F0F5FC0C2208ABC0B29B181A5C96
:104E9000049B200000932900039BFFF7AFFBB07930
:104EA0003B88099C9C4211D87B88AB420ED30A21D7
:104EB00004F0DEFC0C2208ABC9B29B185A5C049BC0
:104EC000290000932000039BFFF798FB0FB0F0BC74
:104ED000BB46B246A946A046F0BD63009A46A1462D
:104EE000D1444B465B005B4498B23A000700069BF6
:104EF0002900009343460990FFF722FB3B1B9BB21E
:104F000008934B4652469BB25846610892B20591AF
:104F100000191BE7089AB0799342D7D2C1E74B45F5
:104F200000D249E7A208904659E763009946A24695
:104F3000CA446208534694469BB2634418000793E0
:104F4000069B5844059280B23A00009329004346DC
:104F5000FFF7F6FA53465B005B449BB209931B1BB9
:104F60009BB208934B469AB25B46181983B2994696
:104F7000059B9A469244EFE6630099469AB263080D
:104F80009A4658460699924450443A000593009137
:104F90004346290080B2FFF7D3FA494663185A0006
:104FA0005A4491B20A1B099191B2089159460A19C3
:104FB00091B2059A9BB29446634489460793CBE627
:104FC00094140110747602205B461B199BB299461B
:104FD000069B3A002900009348464346FFF7B0FA83
:104FE000A300E3184B449BB209931B1B9BB26200C6
:104FF00008936108A3189BB292B20591A8E6C04637
:10500000F0B5C64600B5070084B03C493C4808F0FE
:1050100077FA0E2301AD6B442E0098460021102034
:10502000FBF794F93800FBF76FFAC820FBF792FA08
:105030000020FBF77BFA84B20020FBF777FA24020A
:10504000A4B20443A4B201211020E408FBF77EF9C6
:105050003480C8200236FBF77DFA4645DED1294967
:10506000274808F04DFA2B886A88934201D92A8094
:105070006B802B88AA88934201D92A80AB802B8829
:10508000EA88934201D92A80EB802B882A899342AF
:1050900031D86B88AA88934201D96A80AB806B882B
:1050A000EA88934201D96A80EB806B882A8993420F
:1050B0001ED8AB88EA88934201D9AA80EB80AB88DE
:1050C0002A89934201D9AA802B812B89EA889A42A6
:1050D00000D9EB80AB8868880321C018EB88C01822
:1050E00080B204F0C5FB80B204B080BCB846F0BD0D
:1050F0006A802B81DDE72B81CBE7C046C0C62D003F
:105100000000044080A81201F8B5D020FFF778FF16
:1051100004009020FFF774FF06000A20FBF71AFA3C
:10512000D020FFF76DFF05009020FFF769FF070013
:105130000A20FBF70FFAAC420CD2230031330020D7
:10514000AB4206DBBE420DD2330031330020BB42FE
:1051500010DAF8BD2B003133A342F3DA0020AC4261
:10516000F7D1EAE73B003133B34203DA0020BE4215
:10517000EFD1E9E7044B6419F61970106410D88078
:105180009C800120E5E7C0468076022010B52A4BBE
:1051900082B01B78522B1BD0284B1A7E062A0CD0CB
:1051A000002A21D1264A1A61264A5A611522524202
:1051B0005A81123A9A8102B010BD234A1A61234AD9
:1051C0005A61812292005A81162252429A81F2E754
:1051D0001A4B1F4A1A611F4A5A616422FF325A81D0
:1051E000783AFF3A9A81E6E7032A0BD0052A13D1D1
:1051F000194A1A61194A5A61194A5A8114225242AB
:105200009A81D8E7174A1A61174A5A611622524200
:105210005A81103A9A81CEE7144C2000FFF7C2F968
:10522000F8231B0201933C210020114B114A0094EA
:10523000FFF76AFCBFE7C04620040020807602200A
:1052400010B3B73DEA060A3E239F07BE5950B83D4A
:105250006DABB9BDB6118F3D831808BE7826B43D3D
:10526000050200005B25B83DD05F083EFFFF00004F
:1052700008040020A0140110664BF0B5CE46474646
:10528000984680B5A0270024012542460C23624E93
:1052900085B07F009380947132233A000021002072
:1052A000029501950096FFF70BFC022399460293A5
:1052B000322200210020019400942F33FFF700FCDC
:1052C0004B4687203A0002930021019400942F332B
:1052D0004000FFF7F5FB3A0032233221002002950F
:1052E00001940094FFF7CEFB4C4B0F2103204C4A56
:1052F000019400969946FFF707FC14204B460F21B6
:10530000484A01940096FF30FFF7FEFB4346FA221D
:1053100000930F212023462002960194FFF790FC72
:10532000414B3A0000933321F02300200295019570
:10533000FFF7C6FB82238C2246211420029501959B
:105340000096FFF7BDFB82238C2246211420029594
:1053500001940094FFF7B4FB344B143F98465A2154
:105360002820334A01940096FFF7CEFB3A008223AF
:105370004621B420029501950096FFF7A1FB3A0063
:1053800082234621B420029501940094FFF798FBF4
:1053900043465A21BE20274A01940096FFF7B4FBEA
:1053A000D7238C229B211420029501950096FFF7AC
:1053B00087FBD7238C229B21142002950194009413
:1053C000FFF77EFB4346AF211E201B4A0194009647
:1053D000FFF79AFB3A00D7239B21B4200295019551
:1053E0000096FFF76DFB3A00D7239B21B42002956E
:1053F00001940094FFF764FBAF21BE200F4B104ACD
:1054000001940096FFF780FB05B0C0BCB946B046DA
:10541000F0BDC046A4760220FF070000080400206B
:10542000E4140110EC140110FFFF00001804002028
:10543000F4140110FC1401100415011010040020D4
:105440000C150110F0B5DE46574645464E46012480
:105450000C22E0B5714E87B0322300213520029432
:1054600001940096FF320025FFF72AFBA022322389
:10547000322100200294520001950095FFF702FBB3
:105480000F215020664B674A00960195FFF73CFBC1
:10549000A022654FF023332100200294019400974D
:1054A0005200FFF70DFBA022604E5A23322100204C
:1054B0000294019400965200FFF702FB41210F2055
:1054C0005B4B5C4A01970096FFF71EFB5A4B41214C
:1054D00098465520594A01970096FFF715FB434619
:1054E0004121AF20564A01970096FFF70DFB434636
:1054F0004121FF20534A01970096FFF705FBF02357
:105500004D2232214D20029401950095FFF7BAFA01
:10551000F023A0223221A020029401950095FFF7EC
:10552000B1FAF0230294F0223221F0200195009587
:10553000FFF7A8FA444B00279B46002300249A4615
:10554000424E5346A0229DB2012331680020694398
:105550005A3189B2029352000B0001940094FFF774
:1055600091FA3B4B3168DB59694305932E4B5F3110
:1055700099460520059A89B2009301944346FFF7A6
:10558000C3FA344B3168DB59694305934B466E319E
:105590000520059A89B2009301944346FFF7B4FAB7
:1055A0002D4B3168DB59694305934B4664315520D7
:1055B000059A89B2009301944346FFF7A5FA274B59
:1055C0003168DB59694305934B466431AF20059A36
:1055D00089B2009301944346FFF796FA5B46DA6876
:1055E0003368FF205D4329004B466431009389B244
:1055F00043460194FFF788FA01239C46053BE244A9
:105600009C465346E3440437042B9AD107B0F0BCC0
:10561000BB46B246A946A046F0BDC046FF07000003
:105620001004002014150110FFFF0000308400005A
:105630000804002020150110000400202815011086
:1056400030150110381501102404002074040020C6
:10565000340400206404002054040020440400208A
:10566000F0B5CE46474601240C2280B5424E85B0A7
:10567000322300213520029401940096FF32FFF777
:105680001FFAA0235B00002598460F3B42463221BB
:105690000020029401950095FF3BFFF7F3F9374F87
:1056A0000F210520364B374A01950096FFF72CFA5B
:1056B0000F214620344B354A01950096FFF724FA16
:1056C00042460097F0233321002002940194FFF713
:1056D000F7F9009781238B2246211420029401942C
:1056E000FFF7EEF982238C224621142002940195C3
:1056F0000095FFF7E5F9264B00975A212820254A07
:1057000001959946FFF700FA2C23FF339846962718
:1057100042467F004621B420029401940096AA3BA1
:10572000FFF7CEF93A0082234621B4200294019576
:105730000095FFF7C5F94B465A21CD20164A019531
:105740000096FFF7E1F9154B42460093A521DB23B4
:10575000142002940194FFF7B3F9DC233A00A52149
:105760001420029401950095FFF7AAF905B0C0BC7A
:10577000B946B046F0BDC046FF070000FFFF00007D
:1057800008040020401501101004002048150110E5
:1057900018040020F4140110581501103084000082
:1057A000F0B5C64600B53D4C84B02378002B09D136
:1057B0003B4B1C78002C3ED0FAF73EFE04B080BC78
:1057C000B846F0BD374B1D78002DF7D10126364F76
:1057D00081238B2246211420009702960196FFF721
:1057E0006FF9324B5A212820314A0097019598468B
:1057F000FFF78AF92C222F4F81234621B420FF3254
:10580000029601960097FFF75BF943465A21CD2097
:10581000294A01950097FFF777F92C22DB23A52170
:105820001420029601960097FF32FFF749F923787A
:10583000002BC3D1BCE701251E4F812300978B228B
:105840004621142002950195FFF73AF9174E00976B
:1058500033005A212820164A0194FFF755F92C22CB
:10586000114F81234621B420029501950097FF3204
:10587000FFF726F933005A21CD200F4A01940097F3
:10588000FFF742F92C220D4BA52100931420DB23B6
:1058900002950195FF32FFF713F98DE70777022094
:1058A0000977022008770220FF0700001804002073
:1058B000F4140110FFFF000058150110308400009F
:1058C000F0B5C64601240C2200B56B4E84B03223DD
:1058D00000213520029401940096FF32FFF7F0F882
:1058E000A0235B00002598460F3B42463221002052
:1058F000029401950095FF3BFFF7C4F85F4F0F211D
:105900003B0003205E4A01950096FFF7FDF80F214A
:105910006E205C4B5C4A01950096FFF7F5F85B4BF7
:10592000424600933321F023002002940194FFF7B4
:10593000C7F88C2364223C210A200294019400962B
:10594000FFF7BEF88C2364223C210A2002940195C3
:105950000095FFF7B5F83B005A211E204C4A0195EF
:105960000096FFF7D1F88C23CD223C2173200294BE
:1059700001940096FFF7A4F88C23CD223C217320DC
:10598000029401950095FFF79BF83B005A21802077
:10599000404A01950096FFF7B7F89B235B009846B5
:1059A0003C214246DC20029401940096AA3BFFF77A
:1059B00087F842468C233C21DC2002940195009517
:1059C000FFF77EF83B005A21E920334A0195009603
:1059D000FFF79AF8E623642296210A2002940194A4
:1059E0000096FFF76DF8E623642296210A200294C0
:1059F00001950095FFF764F83B00B9211E20274A66
:105A000001950096FFF780F8E623CD2296217320BA
:105A1000029401940096FFF753F8E623CD229621D5
:105A20007320029401950095FFF74AF83B00B921D5
:105A300091201B4A01950096FFF766F84246E6233F
:105A40009621DC20029401940096FFF739F8424633
:105A5000E6239621DC20029401950095FFF730F8AB
:105A60003B00B921E1200F4A01950096FFF74CF861
:105A700004B080BCB846F0BDFF0700000804002059
:105A800040150110100400200C150110FFFF00004C
:105A9000F4140110FC14011004150110601501101C
:105AA000681501106C150110F0B5CE46474601256A
:105AB0000C2280B5464E85B0322300213520029558
:105AC00001950096FF32FEF7FBFFA0235B00002448
:105AD00099460F3B4A4632210020029501940094DA
